:10000000C00B002039150000A53F00000D150000B1
:100010000D1500000D1500000D150000000000007A
:10002000000000000000000000000000211200009D
:100030000D15000000000000CD1100000D1500009E
:10004000D1120000D1120000D1120000D112000024
:10005000D1120000D1120000D1120000D112000014
:10006000D1120000D1120000D1120000D112000004
:10007000D1120000D1120000D1120000D1120000F4
:10008000D1120000D1120000D1120000D1120000E4
:10009000D1120000D1120000D1120000D1120000D4
:1000A000D1120000D1120000D1120000D1120000C4
:1000B000D1120000D1120000D1120000D1120000B4
:1000C000D1120000D1120000D1120000D1120000A4
:1000D000D1120000D1120000D1120000D112000094
:1000E000D1120000D1120000D1120000D112000084
:1000F000D1120000D1120000D1120000D112000074
:1001000053B94AB9002908BF00281CBF4FF0FF317E
:100110004FF0FF3000F00CB8ADF1080C6DE904CEE3
:1001200000F008F8DDF804E0DDE9022304B07047D0
:10013000704700BF2DE9F04F07468C460846099EE0
:1001400015463C461946002B40F0C6808242B2FA62
:1001500082F746D94FB1C7F1200E24FA0EFE00FAFD
:1001600007F3BD404EEA030CBC404FEA15481FFAA6
:1001700085FEBCFBF8F9220C08FB19C309FB0EFA3B
:1001800042EA03439A4528D9EB1809F1FF3004D21B
:100190009A4502D9A9F102002B44A3EB0A03A4B2A9
:1001A000B3FBF8F208FB123302FB0EFE44EA0344F1
:1001B000A64514D92C1902F1FF3303D2A64501D963
:1001C000931E2C44A4EB0E0443EA00401EB1FC40F5
:1001D000002334607360BDE8F08F4846DDE71346C6
:1001E000F0E702B9FFDE87BB831A01214FEA154E03
:1001F000AAB2B3FBFEFC200C0EFB1C330CFB02F876
:1002000040EA0343984563D9EB180CF1FF3004D260
:10021000984502D9ACF102002B44A3EB0803A4B229
:10022000B3FBFEFC0EFB1C330CFB02F244EA03445E
:10023000A2424FD92C190CF1FF3304D2A24202D9A9
:10024000ACF102032C44A41ABEE7C7F1200C20FA3B
:100250000CF800FA07F324FA0CFCBD404CEA030248
:100260004FEA154EABB2B8FBFEFC110C0EFB1C8026
:100270000CFB03F941EA0040814504FA07F423D955
:1002800028180CF1FF3104D2814502D9ACF10201EA
:100290002844A0EB090092B2B0FBFEFC0EFB1C0050
:1002A0000CFB03F842EA004398450FD9EB180CF118
:1002B000FF3204D2984502D9ACF102022B44A3EBE1
:1002C000080342EA014191E76146E2E76246F6E748
:1002D0006046A2E76346B6E7834205D90EB1C6E998
:1002E00000700021084676E7B3FA83F181B98342B2
:1002F00001D3BA420AD8BC1A60EB030301209C4622
:10030000002E68D0C6E9004C002164E70846F7E7F4
:10031000C1F1200C8B4022FA0CF41C4302FA01F5C7
:1003200000FA01F327FA0CF220FA0CFB4FEA144909
:100330001343BBFBF9F81FFA84FE09FB18BB1A0C28
:1003400008FB0EFA42EA0B42924507FA01F73ED942
:10035000A21808F1FF3004D2924502D9A8F1020098
:100360002244A2EB0A029BB2B2FBF9F809FB182265
:1003700008FB0EFE43EA024296452AD9A21808F16C
:10038000FF3304D2964502D9A8F10203224443EA7E
:100390000040A0FB0593A2EB0E029A42CE4698467F
:1003A00002D306D14F4504D2B9EB050E63EB040826
:1003B000013886B1B7EB0E0362EB080707FA0CFCB5
:1003C000CB404CEA0303CF40C6E900379CE74046E8
:1003D000C7E74346DBE73146FDE60000F0B587B0EE
:1003E00001A9684600F01EF80B4F0C4E0C4D044658
:1003F0002146384603F045FB009B3046197803F050
:1004000040FB0499284603F03CFB00214FF40040D8
:1004100003F02AF9ECE700BF804B0000A64B000078
:10042000B64B00002DE9F8430646084604F06AF88A
:100430003C2004F096F90546306010B90120BDE873
:10044000F8832C4B036002240471042004F089F922
:10045000A8603568AB68002BF0D001274FF0030986
:100460001F705F7083F80290DC702879224BEB607C
:100470002C74B84004F075F9D6F800806861D8F89B
:100480001430002BDAD000251D705F709C70DF7077
:1004900098F80400194BC8F8183088F81C40B84088
:1004A00004F05FF9C8F82000D6F80080D8F82030B2
:1004B000002BC3D01F705F7083F80290DC7098F837
:1004C00004000F4BC8F8303088F83440B84004F0CE
:1004D00048F93268C8F83800936B002BAED01C7016
:1004E0005C709D70DC70074B536282F82850284680
:1004F000A5E700BF000100FF010100FF020100FFAE
:10050000040100FF030000FF0B6801330B60014B87
:100510001B68184700000020014B1860704700BF9F
:100520000000002007B50B46002102460191034858
:1005300001A900F0E5F803B05DF804FB090500002F
:100540002DE9F84FB0F8189019F0080804469346C2
:100550000DD001290CBF49F0100949F02009A0F87D
:1005600018908BF31188BFF36F8FBDE8F88F09F0F7
:100570000709022907D1204603F090FA0028F0D09D
:100580000128238B4ED16769218B002F15DA25684E
:1005900021F00701C4E9008841F001012183002610
:1005A000218B01F0070ACA4502D0A368002B5AD15B
:1005B0000DB9002E71D0002356E001F007035A1F39
:1005C000012A1ED821F00701062B256889B2C4E94B
:1005D00000880AD13DB1638B2A46126801339BB271
:1005E000002AFAD1638341F002012183204603F0FF
:1005F00055FA06460028D3D0238B43F020032383EB
:10060000CDE7042B0CD121F0070189B221832046CC
:1006100003F044FA05460028C1D041F020012183AF
:100620000025BCE7032809D1226923F007031668D7
:1006300043F00603238300252F46B1E7042806D1A3
:10064000226923F00703566843F00403F2E7052804
:1006500006D1226923F00703966843F00503E9E712
:1006600000252E46E8E7012341F0080121838BF3A2
:100670001188BFF36F8FFBB985BB16B11F492046A8
:10068000B0474FF02003EFF3118B83F31288BFF3D1
:100690006F8F238B23F008032383238BDA0625D562
:1006A00023F0100323830121B4F8189009F00709FF
:1006B00000297FF45EAF54E7A1680029DCD0D1F8AF
:1006C0000090D1F804B03B4652462046D847B9F1D5
:1006D000000FD1D04946D9F80090F2E729463B46B1
:1006E000524620462D6803F0F5F9C5E713F02001C6
:1006F0001EBF23F0200323830221D5E7013B000026
:100700002DE9F04F91B08B46029092461C46002591
:100710009AF8000008B928465FE325280AF1010786
:1007200007D0029B594698470028C0F256830135EE
:1007300012E2182200210AA803F060FC9AF80130A6
:10074000252B78D000221046964694461646394608
:1007500017F8013B2B2B00F09D8000F29480202B9A
:1007600000F09B80232B00F09B802EB19DF8306021
:1007700046F004068DF83060BCF1000F05D09DF8FE
:10078000306046F008068DF83060BEF1000F05D0ED
:100790009DF8306046F010068DF8306028B19DF865
:1007A000300040F020008DF830002AB19DF8302054
:1007B00042F040028DF830209DF8302002F04400D5
:1007C000442803D16FF386128DF830209DF8302035
:1007D0002A2B42F080028DF830207BD19DF8312009
:1007E00042F001024B1C8DF831201A782E2A9DF818
:1007F00031200CBF0121002161F341028DF831202D
:1008000074D15A782A2A6AD0013300210A26184660
:1008100010F8012BA2F13007092F40F28E809DF8CD
:1008200030200E91C2F3400040EAD17161F34102E1
:100830008DF830205AE00AF102078DF833309DF828
:100840003130D90740F1498154F8049BB9F1000FC8
:1008500007DA9DF8302042F004028DF83020C9F10B
:1008600000095A0740F1428154F8048BB8F1000F97
:1008700080F241819DF831306FF341038DF83130C2
:100880004FF0FF3837E12D2B0CD0302B7FF46DAFBC
:1008900001225CE74FF0010C59E74FF0010E56E7DB
:1008A000012054E7012652E70CFB0202303A33469E
:1008B0001E4616F8010BA0F13007092FF4D9994212
:1008C00093D09DF830100D92D20F62F341018DF854
:1008D00030108AE70B4600224FF00A0CE8E79DF83B
:1008E000312042F004028DF8312002331F4617F800
:1008F000012B6C2A41D025D8682A2BD06A2A46D0F1
:100900004C2A4CD01F4617F8012B9DF831308DF83A
:100910003320782A00F2D980572A4DD8412A03D0B3
:10092000453A022A00F2D1809DF83230042262F367
:1009300002038DF8323001239EE006FB012130399D
:10094000034664E7742A26D07A2ADBD19DF8313039
:1009500006220DE05A78682A9DF8312006D101213F
:1009600061F3C6028DF831209F1CCCE713460222AA
:1009700062F3C6038DF83130C5E75A786C2A9DF8CA
:10098000312001D10421EBE713460322F0E79DF863
:1009900031300522ECE79DF831300722E8E7BDF859
:1009A000303023F4F04323F0020343F4804343F058
:1009B0000203ADF83030A6E7A2F15801202900F279
:1009C000848001A050F821F08D0A0000CB0A0000BD
:1009D000CB0A0000CB0A0000CB0A0000CB0A0000C3
:1009E000CB0A0000CB0A0000CB0A00002909000056
:1009F000CB0A00008D0A00004D0A00002909000002
:100A00002909000029090000CB0A00004D0A000056
:100A1000CB0A0000CB0A0000CB0A0000CB0A000082
:100A2000950A00008D0A0000B10A0000CB0A000000
:100A3000CB0A0000B10A0000CB0A00008D0A0000BA
:100A4000CB0A0000CB0A00008D0A00009DF832108E
:100A5000012003F0780360F30201402B8DF832107F
:100A600002BF9DF8301041F001018DF83010632A6B
:100A700031D1003B18BF01239DF83020C2F3400163
:100A80000B4363F341028DF83020D8E69DF8321015
:100A90000220DEE79DF8322003F07803A3F1400046
:100AA000032161F3020243428DF832204341E3E720
:100AB0009DF83220032113F0780F61F302028DF8C4
:100AC000322014BF01230023D6E79DF8303043F0D5
:100AD00001038DF830300023CEE79DF93020002A45
:100AE000B4BFDDF834904FF0FF39BAE69B077FF5CD
:100AF000C7AEDDF838809DF831100023CDE90D3305
:100B00009DF8323003F00703012BC1F3C30138D144
:100B1000CB1E042B22D8DFE803F0030909212100B2
:100B200054F8043BDA17CDE90A3206E0073424F022
:100B30000704F4E80223CDE90A239DF8303013F0CE
:100B4000030656D002983B465246594603F004FA33
:100B50000028C0F242810544BA46D9E554F8043B66
:100B600001294FEAE372CDE90A3205D19DF8283018
:100B70000A9300230B93E0E70229DED1BDF9283068
:100B8000D0E7022B23D1CB1E042B13D8DFE803F0D0
:100B9000030A0A12120022680A920023201D0B93F6
:100BA0000446CAE7E01D20F00700F0E80223CDE983
:100BB0000A23F5E754F8043B0A9301294FF0000398
:100BC0000B93D3D00229B8D1BDF82830D0E7042B3D
:100BD00009D1E31D23F0070303F10804D3E900233F
:100BE000CDE90A23A9E7032B04BF54F8043B0A9379
:100BF000A3E79DF833007828AED8622822D82528AC
:100C00003FF48FAD5828A7D10DF126030093DDE9FD
:100C10000A0104AB0CAA03F059F98246B8F1000F9F
:100C20000DF126000CDB9DF83020A0EB0A036FF3DA
:100C3000861298458DF8302002D9A8EB03030D9356
:100C400080463DE06338152886D801A252F820F08E
:100C5000D10C0000350D0000590B0000590B0000AD
:100C6000590B0000590B0000350D0000590B000016
:100C7000590B0000590B0000590B00008F0D0000AC
:100C80005D0D0000610D0000590B0000590B0000C4
:100C9000A90C0000590B00005D0D0000590B00006D
:100CA000590B00005D0D0000B8F1000FDDF828A021
:100CB0000ADB4146504603F08DF90AEB0008002696
:100CC000BAF1000F0CD147E7504603F07CF9F4E786
:100CD0000A9B8DF8103000260DF1100A0DF1110855
:100CE000A8EB0A0306B101339DF83220D00668D57F
:100CF000023352060D9948BF0E9A0B4448BF9B1809
:100D0000B9F1000F76DD9DF83020A9EB0309C2F39D
:100D10008003039353076DD4500661D546B1029BFF
:100D2000594630469847002857DB039B01351E463D
:100D3000302356E01E070FD413F0100618BF2026EC
:100D4000DDE90A23002BBFF65FAF524263EB43039A
:100D5000CDE90A232D2657E72B26F1E7002653E796
:100D60000A9840B30DF1260300930CAA04AB0021AE
:100D700003F0ACF8BDF8323003F0EF0343F4F04376
:100D800043F010038246ADF83230002646E70A9B56
:100D900007293FF6E1AEDFE801F00C04060C080875
:100DA0000C0C1D70D8E61D80D6E6EA17C3E9005288
:100DB000D2E61D60D0E6DFF8C8A006460AF10508B5
:100DC0008EE7110748BF013393E71846039359464E
:100DD000029B98470028039B04DA11B0BDE8F08F0E
:100DE00020234D444A46002AA5EB090109F1FF39A9
:100DF000EBDC0D4636B1029B594630469847002839
:100E0000EBDB01359DF83230D90601D41A0706D53F
:100E1000029B5946302098470028DEDB01359DF8BB
:100E20003230DB0607D59DF83300029B59469847C0
:100E30000028D2DB01350D9E2E44731B002B16DCDF
:100E4000029843465246594603F086F80028C4DB10
:100E50000544A944A9EB0503002B7FF77DAE029B57
:100E60005946202098470028B7DB0135F2E7029B5E
:100E70005946302098470028AFDB0135DDE700BF39
:100E8000D34B00002DE9F84305464FF02003EFF364
:100E9000118683F31288BFF36F8F0E4B1C689CB1D1
:100EA0000D4FDFF838804FF00C09D4E90132002DE6
:100EB00008BF13462BB198F8142009FB02F2B85C66
:100EC00098472468002CF0D186F31188BFF36F8F08
:100ED000BDE8F883F0010020FC0100205C03002045
:100EE00000F01F0301229A400A4BBFF35B8F4009B9
:100EF00003EB800050E8003F43EA020140E8001C99
:100F0000BCF1000FF6D1BFF35B8F1A4214BF012072
:100F1000002070470802002030B51D4B1C7DBFF338
:100F20005B8F04F01F0301229A401A4B610985B0C0
:100F3000D04303EB810353E8001F01EA000543E8B7
:100F4000005CBCF1000FF6D1BFF35B8F114217D0EC
:100F5000114D0C2202FB045207CA01AB83E80700C3
:100F60000E4A7AB193E8070003F067F80020FFF714
:100F700089FF0C235C432A1900232B51C2E901335A
:100F800005B030BD82F31188BFF36F8FEEE700BF6D
:100F90005C030020F8010020FC0100203B40000021
:100FA0002DE9F041374B384C1D7D88B080462846EE
:100FB000FFF796FF60B96F4642462946384602F071
:100FC000E2FF97E807000C2606FB054686E80700C7
:100FD0000C236B43E218E05C6E0905F01F07002844
:100FE0003BD0B8F1FF3F10D0D2F808E02748284A9C
:100FF0004FF4004C00210023EEFB0C01FFF780F8BA
:101000000121A8EB000003F04CFB02F0F7F80120EF
:10101000FFF738FFBFF35B8F1E4B0122BA4003EB93
:10102000860353E8001F114343E800100028F8D15D
:10103000BFF35B8F0C2303FB054494E8070005AB6B
:1010400083E80700144A1AB193E8070002F0E2FFB0
:10105000FFF762FF02F058FA0120104ABFF35B8FDE
:101060000123BB40DB4302EB860656E8002F1A4003
:1010700046E800210029F8D1BFF35B8F08B0BDE836
:10108000F08100BF5C030020FC0100203F420F0004
:1010900040420F00F8010020154000000802002027
:1010A000014910220A60704710ED00E072B640401E
:1010B00080F31188BFF36F8FBFF34F8F30BF62B6DD
:1010C000BFF36F8F704700BF72B6494081F311883C
:1010D00020BF80F3118862B6704700BF43B2002B77
:1010E00008DB012200F01F0002FA00F05B09024A4F
:1010F00042F82300704700BF00E100E0054B4209C1
:1011000000F01F0053F82220012303FA00F01040E2
:10111000704700BF00E100E043B2002BA8BF03F11D
:10112000604301F10101B8BF064B4FEA4111ACBF6A
:1011300003F5614300F00F00C9B2B4BF195483F83E
:101140000013704714ED00E030BFFFF7FDBF00BF94
:101150000F4A08B50F4B22F07F029A60BFF34F8F02
:10116000BFF36F8FD3F8882022F47002C3F8882071
:10117000EFF3148323F0040383F31488BFF36F8F1A
:1011800001F07CFE02F0E2FA00F0CAF901F080FE04
:101190000000000000ED00E0094A0A499368096870
:1011A0009967094958674B6843F080534B600023A7
:1011B00083F31188BFF36F8F9368986F704700BFF8
:1011C0005C0300207C4B000000ED00E012498A68BF
:1011D0004FF030001044EFF3098C80E8F01F20201E
:1011E00080F31288BFF36F8F0C4F4FF00066CA690F
:1011F0008A603E60506F0023536780F3118804B506
:10120000104600F0CFF9BDE8044002F1300090E84C
:10121000F01F8CF3098870475C03002004ED00E0A8
:101220001EF0040F0CBFEFF30880EFF30980816913
:1012300011F8021C0229FFD001B502F0ABFE01BD7E
:1012400042F8203C009B42F81C3C0A49019B42F8B2
:10125000183C029B42F8143C21F001014FF08073CE
:1012600042F8043C42F8081C0023203A0265436718
:10127000704700BFF33B0000094A0346906870B115
:1012800013F1160F406E05D0A0F120029A4205D846
:10129000834203D2814228BF00207047002070475C
:1012A0005C03002008B5094B98600D46144600F019
:1012B00079F9204685F30988002163B681F3118806
:1012C000BFF36F8F0022002302F093FC5C03002029
:1012D00001B572B60B4A906900281EBF00219161CA
:1012E00003F009F962B6EFF30580A0F110004FEAB0
:1012F000C0000549014409C99847BDE801400349B8
:10130000084700005C030020D048000011130000D3
:10131000044B9968D869884203D003494FF0805242
:101320000A6070475C03002004ED00E038B5194BFB
:1013300014469A6A9A6A9A6A0546900719D5586BB4
:101340009A6A120615D519B19A6A22F080029A6239
:101350009A6A9A6A9A6AD1060ED49B6A9A070BD443
:1013600000200C4A936A43F0FF039362002323702A
:1013700038BD6FF01500EBE7064B5B681B05EFD53A
:101380002946FFF779FF0028EAD080F30988022078
:10139000E7E700BF00ED00E00D4B9A6A9A6A9A6A8F
:1013A000920508D59A6B9A6A120404D518B19A6A04
:1013B00022F400429A62064B9A6A9A6AD20558BF92
:1013C0009A6A9A6A002042F47F429A6208707047D3
:1013D00000ED00E070B5484B5B688AB00D46C3F382
:1013E0000803002686F31188BFF36F8F02F07F4158
:1013F000B1F17F4F11D102F00C0108290DD0110776
:1014000001D4054601260022033B8DF80720032B5B
:101410006BD8DFE803F00455595D3546F3E7364BEA
:10142000DC6A14F0020460D1DA6A002A15DBDA6A99
:10143000520012D5AA6932F8021C4DF6027291428E
:101440000AD093F828200AB30DF10702012128469B
:10145000FFF76CFF044600E02C689DF807309BB94D
:101460002022294602A802F0BEFD099B002E3ED094
:10147000C3F3080222B96FEA53236FEA43230993A7
:1014800002A9204602F084FD0AB070BD93F829201D
:101490002AB10DF107010120FFF77EFFDAE75A8D2F
:1014A00092B2002AD9D09A6A9A6A9A6A9A6A9A6A11
:1014B0009A6A9A6A6FEA02426FEA12429A62CCE72B
:1014C0000DF107020021C2E70DF107010020E3E75B
:1014D000094B9A6A9A6A9A6A9A6A9A6A9A6A9A6A9C
:1014E0006FEA02426FEA12429A620024B5E723F4DF
:1014F000FF7323F00103C2E700ED00E0024A5369E5
:1015000043F010035361704700ED00E0EFF30880F3
:10151000EFF3098101B57246FFF75CFF01BD00BF23
:10152000044800232021C2180133302B82F8001315
:10153000F9D1704700E100E003F060F9202080F36A
:10154000118808484FF40261401880F30988EFF3CE
:1015500014800221084380F31488BFF36F8FFFF7D4
:10156000F7FD0000400D0020064B9B68834207D129
:10157000EFF3058323B1044A536843F0805353606B
:1015800002F092B85C03002000ED00E0024B034A39
:101590000348012100F06EB8000004200000002084
:1015A000784A0000426E054B203A1A60044A202116
:1015B000C3E901121846012100F066B80C020020B0
:1015C00000000B15F0B51F4F00268E4201DB1046C0
:1015D000F0BD44689CB353B104F1FF3C14EA0C0F16
:1015E00018D11F2C16D905681CEA050F12D1202C22
:1015F0000568D0F808C0D2B20FD9B4F1004F0ED8A8
:10160000013CB4FA84F4C4F11F046400072A4CEAD4
:10161000040406D96FF01502D9E70824F6E73E2442
:10162000F4E725F01F05154345F0100544F00104CB
:10163000C7F89820C7F89C500132C7F8A04001367F
:101640000C30C2E700ED00E0044B0522C3F8942003
:10165000BFF34F8FBFF36F8F704700BF00ED00E007
:10166000BFF35F8F024B0022C3F89420704700BF86
:1016700000ED00E010B5034C01232278FFF7A2FF34
:10168000207010BD9403002008B5094A0023127889
:10169000FFF798FF10F1160F02D0064A072800DD69
:1016A00008BDC2F89800C2F8A0300130F6E700BFCC
:1016B0009403002000ED00E014490868082810B5E4
:1016C00021D8FFF7CDFF124C49680022904201F16A
:1016D0000C0105D10F4B1870FFF7B6FF002010BDAD
:1016E000C4F8982051F80C3C23F01F03134343F037
:1016F0001003C4F89C3051F8043C43F00103C4F8D3
:10170000A0300132E2E74FF0FF30E8E7844A000002
:1017100000ED00E094030020014B1860704700BF0B
:101720000400002010B54FF02003EFF3118083F385
:101730001288BFF36F8F114A0123C2F840354FF072
:1017400080424FF08051C2F87835D1F83041082CF2
:1017500008D1D1F83411052904D8094C615C09B1CC
:10176000C2F838364FF080430122C3F8802580F359
:101770001188BFF36F8F002010BD00BF00E0014053
:10178000E84B000020B1034B800143F001031847F0
:10179000704700BF704A0000084B70B5C31A0D4671
:1017A00007499B10044659430648402202F06CFC4E
:1017B0002B4601462046BDE870401847280200200D
:1017C000B76DDBB65848000073B50C4C0C4A40238B
:1017D000041B00930D460B460A49A41061430646BC
:1017E000094802F07DFC011E05DA30462B4602B0A6
:1017F000BDE87040184702B070BD00BF280200204D
:1018000051410000B76DDBB658480000002270B5AA
:10181000012104461046FFF77FFC0020FFF75EFC25
:101820000F4800F0A9FE0F4B984215D102F098FD29
:1018300026690D49304602F080F900280BDB246947
:1018400009490125356404F11C0002F076F90028ED
:1018500001DBE564002070BD6FF00400FBE700BF12
:10186000A11800000000AD0BCC4A000001460C237B
:1018700009484B4370B5C418D4E90E5600224033D2
:10188000A263184402F0EDFB2DB132462B4603480B
:10189000BDE87040184770BD28020020584800007D
:1018A00010B1012804D07047034B1B6C5B0701D1BA
:1018B000FFF7DCBF704700BF2802002008B54FF0DB
:1018C0002003EFF3118183F31288BFF36F8F124A65
:1018D000136843F0020013F0010310600CD04FF0C6
:1018E0008042D2F80C34D2F80C2413F0010303D058
:1018F0000A4802F0B6FB012381F31188BFF36F8F12
:1019000023B1BDE808400020FFF7B0BFBDE80840A4
:10191000012002F02FBD00BF7802002068020020E5
:101920001FB500220123CDE90223094ACDF800D0DA
:101930006B46CDF804D002F004FC002805DB4FF420
:1019400080420023684601F0D9FB05B05DF804FB36
:101950006F410000094BBFF35B8F53E8002F22F06B
:10196000020143E800100028F7D1BFF35B8FD307D3
:1019700002D4012000F010BE704700BF78020020A2
:101980002DE9F0413949BFF35B8F0746012251E849
:10199000003F41E800200028F9D1BFF35B8F33B945
:1019A000334934484B60CB608A6002F0D9F87B1E23
:1019B000012B2FD8012F07D14FF08043D3F81C34CF
:1019C00003F00303012B25D002F08FFD044618B964
:1019D000294B1B78002B41D14FF02003EFF31186E8
:1019E00083F31288BFF36F8F0124DFF890804FF0EC
:1019F0008045D5F81834D5F81824D2030CD503F057
:101A00000303012B01D0012F06D10CB386F31188FB
:101A1000BFF36F8FBDE8F081ACB13046FFF754FBE8
:101A2000D5F81835002BE4D1D5F80421002AE0D0F0
:101A3000C5F80431D5F804310123C5F81835C8F8C4
:101A40008031AB60D5E70021212001F00DFEE7E7F2
:101A50004FF080430222C3F80423DBE74FF08043BA
:101A60000222C3F808230646BFE700BF7C0200201D
:101A70001802002044020020A507002000E100E039
:101A800008B5084B0848186002F0FEFC38B107485A
:101A9000FFF742FE0548FEF73FFD002008BD6FF04E
:101AA0001200FBE780020020B8480000B11A0000D5
:101AB0000A2838B5074D044604D1286883680D21EB
:101AC0005B68984728688368E1B25B68984720465E
:101AD00038BD00BF8002002030B54068047A01F0B4
:101AE0001F01B2F5005F85B041EA44144FF00005D4
:101AF00004D1204600F0FEFF00202DE0B2F5804F1B
:101B0000CDE902552AD1B3F5003F0CBF04230523CC
:101B1000B2F5A03F8DF808302CD16209012A04F0FB
:101B20001F031D4A03F5E07318BF4FF0A04252F89F
:101B30002330DB071ED40DF107052946204600F0AF
:101B40003DFF164B984214D1284600F085FF144BF8
:101B500098420ED06FF00B0005B030BDB3F5C02F2A
:101B600005D0B3F5003F0CBF02230123D0E70323C8
:101B7000CEE703950023194602AA204600F0F8FD9F
:101B8000074B984204D10121204600F06BFFB3E7D8
:101B90006FF00400E0E700BF000300500400AD0B4D
:101BA0000000AD0B10B500F047FF044668B900F027
:101BB0001BFF084B98420AD10748214600F0F8FE67
:101BC000224605210620FFF7A7FA002010BD6FF07E
:101BD0000400FBE70000AD0BDD1B0000420970B5FF
:101BE000034602D0012A15D070BD0B4E32695168F0
:101BF0000029F9D003F01F0301250C689D408A6875
:101C00002A4002D04B6830469847002CECD0214641
:101C10002468F4E7014EE9E77048000088480000B6
:101C2000F0B547683B7A01F01F0585B00E4645EADE
:101C300043151446C2B902A9284600F0BFFE044667
:101C4000284600F07FFF414B984203D06FF004001C
:101C500005B0F0BD844205D19DF8080000F0F6FE05
:101C6000A042F3D10020F3E70023194602AA284638
:101C7000CDE9023300F07CFD344B984202D06FF086
:101C80001500E5E7A3054ED5314B324A2340934278
:101C90003AD00CD8062B14D004D893B1022BEED135
:101CA00004230EE0B3F5801FE9D1012309E02A4A9D
:101CB00093422BD0B3F5A00F2AD0B3F5800FDED11D
:101CC00002238DF8043084F48073C3F30023E0060C
:101CD0008DF8053054BFC4F34013032321058DF85C
:101CE000063017D57B68012101FA06F6C3F80865AE
:101CF000002201A9284600F0E9FD144B984214BFC8
:101D00006FF015000020A3E70723DAE70523D8E7E3
:101D10000323D6E7620541BF7B68012101FA06F67D
:101D2000C3F80C65E4E7E3064FF0000354BFC4F3C7
:101D3000401403241A4601A928468DF8044000F0F7
:101D400017FD024B98428DD099E700BF0000AD0B04
:101D50000600F0000600100002004000036803F0D7
:101D60001F025B09012B0260024818BF4FF0A04020
:101D7000704700BF00030050F0B54B79012B26D00F
:101D8000032B21D110268B79032B1DD1CC790CB1DB
:101D9000012C19D10A7912B1022A15D10E220B6831
:101DA0004568B3F5164F2D6865D02DD8B3F5165F8D
:101DB00064D016D8B3F5966F62D00AD8B3F5967F83
:101DC00061D0B3F5167F61D06FF0850052E0002638
:101DD000D9E7B3F5166F5CD0B3F5965FF4D1374B06
:101DE0003CE0B3F5E14F57D007D8B3F5615F55D06C
:101DF000B3F5964FE8D1324B30E047F61227BB429D
:101E0000E2D14FF4000329E0B3F5613F48D013D885
:101E1000B3F5963F47D009D84DF6C027BB4244D012
:101E2000B3F5614FD0D14FF46B0317E0B3F5E13F49
:101E3000CAD14FF0EB7311E0B3F5612F38D008D859
:101E4000204FBB4237D0B3F5E12FBDD14FF0E8634F
:101E500004E01D4FBB42B7D14FF08053C5F8243585
:101E6000036903C9344322430433C5F86C2583E86E
:101E700003000020F0BD4FF41D03EFE7134BEDE727
:101E80004FF49E23EAE74FF4A033E7E74FF41C3307
:101E9000E4E74FF41D23E1E70D4BDFE70D4BDDE7F2
:101EA0004FF06C73DAE70C4BD8E74FF46503D5E7D6
:101EB0004FF07063D2E74FF08063CFE700B01300BC
:101EC00000A04E0090D0030040420F0000502700B9
:101ED00000C0750000F03A0000903A01F8B50669BC
:101EE00005460F4602F001FB10B92C4B1B7883B955
:101EF0004FF02003EFF3118483F31288BFF36F8F49
:101F0000686802F0B8F928BB84F31188BFF36F8FBB
:101F1000EEE76424686802F0AEF970B9012002F0BF
:101F20001DFA013CF6D10021212001F09DFBF0E7D4
:101F300084F31188BFF36F8FF5E74FF02003EFF3C1
:101F4000118483F31288BFF36F8F686802F093F9EE
:101F50000028EDD006F8107F69680B680122C3F8ED
:101F60004465C3F848250022C3F82021D3F8200196
:101F7000C3F85821D3F858214A68D20641BF082235
:101F8000C3F800254FF48002C3F8042301229A60AD
:101F900084F31188BFF36F8FF8BD00BFA507002041
:101FA0002DE9F341D0F804800769D8F800400023F8
:101FB000C4F8003538604568EB685A1C064613D0F3
:101FC00001A80193FFF7CAFE019A01239340C0F8CC
:101FD0000835EB68019301A8FFF7C0FE019B03F5EC
:101FE000E073032240F823202869431C06D02B7F8E
:101FF000002B14BF0321002102F02FF96B695A1C3A
:1020000013D001A80193FFF7A9FE019A0123934081
:10201000C0F808356B69019301A8FFF79FFE019B8B
:1020200003F5E073032240F82320A869431C06D07F
:102030006B7F002B14BF0321002102F00EF9D5E9BC
:1020400003122B68C3F80C15C3F81425D5E9051243
:10205000C3F808153169C3F8102504313046FFF77D
:102060008BFE0546002846D1D8F80430990719D5CB
:1020700007F1120000F060FE224B98423FD1B87C7D
:10208000C30003F1804303F5F83304F10C0204F5B7
:102090009071C3F81015C3F814251B4A012383401F
:1020A000C2F804350823C4F8003598F808305BB945
:1020B000C4F81031D4F8103107F11103C4F83435E5
:1020C0000123C4F838352360D8F804309A075CBF80
:1020D0004FF48072C4F80423DB0644BF4FF480033E
:1020E000C4F8043310370023C4F84475C4F84835E5
:1020F0000123A360E360284602B0BDE8F0816FF0E1
:102100000405F8E70000AD0B00F00140044A136835
:10211000C81A20F07F400344136001F0F7BB00BFF2
:10212000A802002038B50F4C00254FF48033C4F8C6
:102130000855C4F804330C4B4FF40032C3F8802127
:1021400001212A461120FEF7E7FF1120FEF7C6FF06
:102150000123064AA360022023601360FFF710FCEE
:10216000284638BD0010014000E100E0A402002034
:102170002DE9F843860006F1804600F1500406F58B
:102180008836A400A4B204F180444FF48037D6F816
:102190004035DFF86C8021F07F4504F588348740B6
:1021A000D8F80495A3EB090323F07F4329F07F427D
:1021B000012BC6F8402502D1132002F090FA09F154
:1021C0000202AB1A23F07F43B3F5000F88BF154618
:1021D000002323602368C8F8447325F07F43C6F8C2
:1021E0004035D8F80435994506D0EB1A023B23F068
:1021F0007F43B3F5000F01D8BDE8F8832B46CFE746
:102200000010014070B5154D154C00262B680020BC
:1022100006B170BDD4F80423D203FAD5D4F8402116
:10222000002AF6D0C4F84061D4F840214FF480323F
:10223000C4F84823D4F84015D4F80465721A22F083
:102240007F42B2F5000F88BF314601261BB16A6894
:1022500028609847DAE72B60DBE700BF9C0200208C
:1022600000100140134AB0F1FF3F14BF034613466C
:10227000013B002B1CDD9342A8BF13460E4AD2F847
:1022800004050E4A1168401A10F4000F20F07F4236
:1022900018BF002301321344094A0A481060002085
:1022A0005060044A934294BFC9188918FFF760BF71
:1022B0000023E3E7FFFF7F0000100140A802002099
:1022C0009C0200200D210000044BD3F80405044BB0
:1022D0001B68C01A20F07F40704700BF001001400B
:1022E000A80200204FF08053D3F83021082A06D1ED
:1022F000D3F83431052B02D8024AD05C7047002055
:10230000704700BF164C0000024AD2F80034002B80
:10231000FBD0704700E0014010B502F015F840B165
:102320004FF080430022C3F80C21C3F81021C3F8FA
:10233000382502F009F8002846D04FF08052604B53
:10234000D2F80414C3F82015D2F80814C3F82415E1
:10235000D2F80C14C3F82815D2F81014C3F82C15B1
:10236000D2F81414C3F83015D2F81814C3F8341581
:10237000D2F81C14C3F84015D2F82014C3F8441541
:10238000D2F82414C3F84815D2F82814C3F84C1511
:10239000D2F82C14C3F85015D2F83014C3F85415E1
:1023A000D2F83414C3F86015D2F83814C3F86415A1
:1023B000D2F83C14C3F86815D2F84014C3F86C1571
:1023C000D2F84424C3F87025FFF78CFF18B13D4BB9
:1023D0003D4AC3F88C26FFF785FF18B13B4BFB2223
:1023E000C3F81825FFF77EFF70B14FF080414FF022
:1023F0008053D1F8E42ED3F8583222F00F0203F0C4
:102400000F031343C1F8E43EFFF76CFF20B1304BDC
:102410004FF40072C3F8402601F096FF48B14FF028
:102420008043D3F80024D20744BF6FF00102C3F801
:1024300000244FF08053D3F83021082A0ED1D3F86E
:102440003431052B02D8234AD35C3BB14FF0102323
:10245000D3F808224FF08043C3F858254FF01023DB
:10246000D3F80022002A03DBD3F80432002B22DA4F
:10247000194901234FF01020C1F804351224FFF749
:1024800043FFC0F80042FFF73FFFC0F80442FFF7E8
:102490003BFF0023C1F80435FFF736FFBFF34F8F32
:1024A0000E490F4BCA6802F4E0621343CB60BFF3DE
:1024B0004F8F00BFFDE70B4B0B4A1A6010BD00BFEA
:1024C00000C00040005000404881030000F0004080
:1024D00000900240104C000000E0014000ED00E0E0
:1024E0000400FA05300000200090D00370B50125EB
:1024F0000368B3FA83F2202AC2F11F0414D0BFF399
:102500005B8F05FA04F223EA020250E8006F9E4254
:1025100004D140E8002CBCF1000FF6D1BFF35B8F73
:10252000E6D102480C7070BD0148FCE70000AD0B1D
:102530000200AD0B0368CB40DB0710B515D40123B7
:1025400003FA01F10368BFF35B8F41EA030250E82D
:10255000004F9C4204D140E8002CBCF1000FF6D1A2
:10256000BFF35B8FEED1024810BD0248FCE700BF0D
:102570000000AD0B0400AD0B044B1A7922B9012207
:1025800018609A800248704702487047AC020020E9
:102590000000AD0B0C00AD0B38B510B1012817D001
:1025A00038BD4FF080440223C4F80833C4F8040156
:1025B000D4F804310123E36042F21075D4F81834E2
:1025C000DB03EDD5012001F0C9FE013DF6D1E7E7BF
:1025D0004FF080440023C4F80803C4F80031D4F855
:1025E0000031606042F21075D4F80C34D4F80C2439
:1025F000D20303F0010305D523B1012001F0AEFEA3
:10260000013DF1D1014B00225A71C9E7AC02002013
:102610004FF0804310B5D3F800216AB10022C3F80F
:102620000021D3F800210122C3F80823114B587967
:1026300010B95A711B6898474FF08043D3F80421B2
:1026400072B10022C3F80421D3F80421D3F818246E
:10265000D3F81814920704D10122C3F818259A6000
:1026600010BD0222C3F80823024BBDE810401B68CE
:1026700001201847AC020020036803F01F025B0929
:10268000012B0260024818BF4FF0A040704700BF06
:1026900000030050034B083033F81000C0F3401023
:1026A000704700BF3400002070B500F108030C4CE7
:1026B00034F81330DA0505460E4607D5C3F3432335
:1026C00004EBC30254F8333052689847A3682BB127
:1026D000E26831462846BDE87040184770BD00BF2B
:1026E00034000020124A083010B432F81030D905F6
:1026F0001BD5C3F3432123F4F85322F8103002F121
:102700001004002034F8023B13F4807F03D0C3F39D
:102710004323994209D001303028F3D1002342F8F5
:102720003130044810BCFFF705BF10BC704700BF34
:1027300034000020A800002038B50246FFF7AAFFA9
:10274000094C02F1080540B134F8153007495B0B1C
:1027500003F5A273002041F823001046FFF7C2FFE3
:10276000002324F8153038BD3400002000600040FC
:102770002DE9FF41044617461D4621B34E4E00F198
:10278000080836F818309B0706D5FFF783FF18B105
:102790004A4804B0BDE8F0810023CDE900338DF84C
:1027A0000E308DF80F300DF10F020B4620460DF163
:1027B0000E0101F00BFE36F8183023F0020343F04F
:1027C000010326F8183097B13B4B3E787A6804F144
:1027D000080033F810108F070CD5002AD8D133F831
:1027E000102022F01C0242EA860223F81020CDBB02
:1027F0003348CEE721F02001C904C90C23F810109A
:10280000002AECD0032EC3D817782EB92D4A07F52D
:10281000A27142F82160E2E7BA0002F1804202F5BB
:10282000C04241EA4731D2F810C52CF0030CC2F87F
:1028300010C5D2F810C52CF44F3C2CF4407CC2F8E3
:1028400010C5D2F810E54FEA042C0CF47C5C4EEA7B
:10285000064E4CEA0E0C41F0200123F81010C2F88D
:1028600010C5BCE7D5E900672046FFF73BFF002E07
:10287000BED0114D2B689E4204D16B689F4201D19E
:1028800000220AE010480DF10F01FFF72FFE0C4B5C
:1028900098427FF47EAF9DF80F2045F8326005EB3B
:1028A000C20308345F6035F8143043EA422343F42E
:1028B000807325F814309BE7340000200400AD0B32
:1028C0000000AD0B00600040A8000020F0B50446F9
:1028D00085B0154619B3334E00F1080736F81720B6
:1028E000930703D4FFF7D6FE002858D112F01C0F2F
:1028F00002D04B78012B52D001238DF80F300023EA
:10290000CDE900134A1C8B1C20460DF10F0101F08C
:102910005DFD36F8173043F0030326F8173015B97C
:10292000214805B0F0BD1F4E04F1080736F8170026
:10293000830734D595F800C06146890020F0200057
:1029400001F18041C00401F5C041C00C26F8170018
:102950000023C1F810356A78002AE1D0D1F810358B
:10296000AD7823F4991323F4F853C1F81035D1F856
:1029700010E5230203F47C53120402F4403243EACC
:102980000E0313432A0502F4801240EA4C3013432D
:1029900040F0200026F81700C1F81035C0E70348C2
:1029A000BFE700BF340000200000AD0B0400AD0BFA
:1029B000014BC3E9020170473400002008B502460C
:1029C000FFF768FE38B1054B0548083233F812307E
:1029D0005B0B0B7008BD0348FCE700BF3400002010
:1029E0000000AD0B0400AD0B38B50F4C94F87850D7
:1029F000BDB96022294604F1100001F0FFFA06205B
:102A0000FEF76CFB094B0A48C3F87C51D3F87C21D4
:102A10004FF00042C3F80423012384F87830636741
:102A200038BD0448FCE700BF3400002000600040CF
:102A30000000AD0B0500AD0B034B93F87800003898
:102A400018BF0120704700BF340000200146014834
:102A5000FFF770BDA400002001460148FFF746BD06
:102A6000A400002037B50446FFF714FE04F1080265
:102A70001E4B33F81230E8B113F002051AD15B0B8C
:102A80009A0002F1804000F5C24002F1804202F556
:102A9000C04205600068D2F8100540F00100C2F89D
:102AA000100529B1012202FA03F3114AC2F80433D6
:102AB00003B030BDC3F38203042B12D0052B12D018
:102AC00001A80194FFF7D8FD019BD0F81015D9405B
:102AD00001F001010231204603B0BDE8304001F0B1
:102AE000BCBC0321F7E70221F5E700BF340000205A
:102AF0000060004008B50246FFF7CCFDC0B102F10E
:102B000008010E4B33F81130990711D45B0B0122E9
:102B10009A409B000A4903F1804303F5C043C1F882
:102B20000823D3F8102522F00302C3F8102508BDAE
:102B3000BDE808400021104601F08FBC34000020A1
:102B4000006000400E4B00F1080213B533F812305C
:102B5000DB07044611D5FFF7CDFF2046FFF7ECFD5C
:102B600001A80194FFF788FD019B03F5E0730222A1
:102B700040F82320034802B010BD0348FBE700BF24
:102B8000340000200000AD0B0400AD0B2DE9F04F28
:102B9000644B65486549002687B0012234461D68AC
:102BA00035B1D0F8045315421EBF1C601D68164392
:102BB00004338B424FEA4202F1D1DFF86C81D8F83E
:102BC0007C31002B00F091804FF0A043D3F82025FA
:102BD0000492C3F82025D3F820280592C3F82028B2
:102BE00000270DF110097B0100934FF0010A49E025
:102BF000009B4F4A94FAA4F4B4FA84F41C4404F100
:102C00000803E00832F81330039404F007020AFACC
:102C100002FC19F8002022EA0C0209F8002003A89F
:102C2000C3F382059908FFF727FD039A02F5E072C6
:102C30004B0750F82220AB46C2F3014229D520466B
:102C40005946D5B2FFF730FD03A80394FFF714FDF2
:102C5000039B03F5E07350F82330C3F301439D4217
:102C600007D10021204601F0F8FB2946204601F05B
:102C7000F4FB03A80394FFF7FFFC039B0AFA03F39A
:102C8000C0F8203559F82740002CB1D1CFB9012721
:102C9000A9E7022A0CBF032102212046019201F07C
:102CA000DCFB032D04D0019A022A06D1012DE0D1CC
:102CB00059462046FFF7F8FCDBE7032AD9D1022D5D
:102CC000F5E7C8F87C41D8F87C311A494FF0A043A9
:102CD000D3F820250492C3F82025D1F82035059398
:102CE000C1F8203513437FF47BAF012416B907B038
:102CF000BDE8F08F96FAA6F3B3FA83F304FA03F271
:102D00009B0003F1804303F5C04326EA0206D3F893
:102D10001005D3F81015C0F30520C1F30141FFF7EA
:102D2000C3FCE3E700610040006000402061004018
:102D3000340000200003005001460148FFF7D6BBD5
:102D4000B000002010B5144C144A15490323236128
:102D50006361144BA261E3614FF48063236200233B
:102D6000A3626362E36222660F4A6266E01D10227C
:102D7000A2662367E366636701F01BF9BFF35F8F09
:102D80000A49204601F015F9BFF35F8F2023A37194
:102D9000BFF35F8F10BD00BFB40200201C4C0000C9
:102DA000254C0000A503002095030020294C0000BD
:102DB0000E4B70B553F82040013053F82060A64206
:102DC00000D870BDD4E900352846984765B1EB6856
:102DD00030B10028B8BF4042FF28A8BFFF201870BC
:102DE0005A7842F001025A700834E8E7684B000054
:102DF00030B5002387B00122CDE904230F22CDE9AD
:102E0000023201930C4C0D4B0D49182204EBC014F7
:102E100002FB00334FF4B075009305FB0011094B22
:102E20004FF4A072204600F0A5F8637B23F0040362
:102E3000637307B030BD00BFE80000205C030020D2
:102E4000E00B00209130000008B50A4B012202205F
:102E50001A70FFF7ADFF00F0D5FD0320FFF7A8FFC4
:102E600000F0BAF8FDF7BAFA034A137B23F0010326
:102E7000137308BDA5070020680100200248034A1B
:102E80000021121A01F0BAB8E8000020A8070020BB
:102E900080B5DFF8C080A6B088F308882E4D2F4E8D
:102EA0006B69DFF8BC9043F4007300246B61E0238E
:102EB00085F82230EC772C766C76AC7685F820405D
:102EC0006B6A43F4E0236B6285F82340FEF716FB40
:102ED000FEF7E6F84FF0FF33AB62EB62FEF7ECFB78
:102EE000FEF754FB40F20113ADF8243006ABB3609B
:102EF000CDE91F4401F0C7FA2046FFF759FF012032
:102F0000184DFFF755FF00F01BFB174B05930123EE
:102F100016490094CDE903434FF480624B46CDE956
:102F200001442846F56100F025F86A7B074622F047
:102F3000040228466A7301F01AFB2046FFF758FF87
:102F40000B4BF3604A46394628463475C6F8048070
:102F5000FEF7A8F96015002000ED00E05C030020FA
:102F6000492E000068010020304C0000C0070020FE
:102F7000E80000202DE9FF410E9E067304264673EB
:102F80000D9E867300F158050F46D61DC0E91655F3
:102F90000C9A002526F007062037C0E90655C0E93F
:102FA00019768560C573C56606F1200802920B9AF2
:102FB000019288440A9A009242460446FEF740F97C
:102FC000044B65659B6803B11B6F2367404604B0E3
:102FD000BDE8F0815C0300202DE9F043294C2A4D27
:102FE00087B02646AE4204F130040FD300F006F954
:102FF000244CDFF898904FF4004640F2E737AC429B
:1030000020D307B0BDE8F04300F07EBA54F8043C8A
:10301000059354F8103C049354F8143C039354F86B
:10302000183C029354F81C3C019354F8203C009344
:1030300054E90C0154E90A23FFF79CFF54F8303C93
:103040005E65CEE7636A5A1C0DD023EAE373002164
:103050003846C3FB060151EAC333D4F8008004D1DB
:10306000404600F0AFF93034C9E74FF47A720023DC
:10307000FDF746F802460B4608F11800494600F0F5
:10308000CBFBF0E7D0000020D00000208F450000EF
:1030900008B5094C4FF02002EFF3118382F3128838
:1030A000BFF36F8F01F0EDFAA061FDF779FF002803
:1030B000F0D1FDF7FBFFEDE75C03002038B50446D7
:1030C0004FF02003EFF3118583F31288BFF36F8F66
:1030D00001F0A9FA48B10022826701F048FA2946B6
:1030E0000548BDE8384000F077B8D4E902329A428A
:1030F00018BF0133A360F2E7A607002013B54FF015
:103100002004EFF3118184F31288BFF36F8F84687A
:1031100044B1013C846081F31188BFF36F8F0020BC
:1031200002B010BD52EA030406D181F31188BFF347
:103130006F8F6FF00F00F3E7CDE9002302460248DE
:1031400000F09CF9ECE700BFA607002010B5084C82
:1031500023685BB1FFF7B8F803462068054A0344CB
:10316000BDE810401361002101F09BBA10BD00BF03
:103170008C0300205C030020F8B504460D464FF098
:103180002003EFF3118683F31288BFF36F8F0F4B89
:1031900000214FF4004740F2E73019614FF47A7292
:1031A0000023E4FB0701FCF7ABFF002C084B09DC14
:1031B0001860084B1D60FFF7C9FF86F31188BFF345
:1031C0006F8FF8BD0228B8BF0220F1E75C03002032
:1031D0008C0300208803002049B9EFF3058030B943
:1031E000054BDA699B689A4201D0FDF7D5BF81F3A0
:1031F0001188BFF36F8F70475C0300204FF02003EE
:10320000EFF3118183F31288BFF36F8F044B9A6839
:10321000D37B013BD37381F31188BFF36F8F70476A
:103220005C03002038B502460C480D4D01F099F9B9
:10323000044600B9EC68AB684AB95A7BD20606D19D
:10324000A26922B9DA897F2A01D9EB6138BD9C4293
:1032500001D0FFF77BFFEC61F8E700BF7C030020A3
:103260005C03002070B590F90D20437B002A0146D5
:1032700004DA03F07F03437301F04BF94B7B154AEB
:1032800063F07F034B73D2E9083402F12005AB42AF
:103290001BD0D3B191F90E6093F90E0086420FD086
:1032A000801B00280CDD5868C1E9003001605960BE
:1032B0009068431A5842BDE870405841FFF7B2BFCA
:1032C000A34202D01B68002BE6D1C1E90054216063
:1032D0005162EDE75C03002038B501464FF0200352
:1032E000EFF3118483F31288BFF36F8F154B164AE7
:1032F00098681568A84206D1FFF728FF84F3118863
:10330000BFF36F8F38BD00251560104A1268BAB13F
:10331000C2897F2A14D8427BD20611D10C4A90F977
:103320000E50126895420BDB0A4A904208D01A6987
:103330008A4202DCFFF796FFDEE7521A1A61DDE7E8
:103340000022FBE75C030020840300208C030020A4
:1033500088030020E800002070B490F90D20437B22
:10336000002A2ADBDA0628D1826932BB144A63F0CC
:103370007F034373D2E9083402F12005AB4217D032
:10338000B3B190F90E6093F90E108E420BD0891BE9
:10339000002908DD5A68C0E900321060586070BC2E
:1033A0000020FFF73FBFA34202D01B68002BEAD1E9
:1033B000C0E9005420605062F1E770BC704700BF64
:1033C0005C03002010B54FF02002EFF3118482F36C
:1033D0001288BFF36F8F427B510704D484F31188A6
:1033E000BFF36F8F10BD22F004024273FFF7B4FFEA
:1033F00021460248BDE81040FFF7EEBEA6070020B8
:1034000008B590F90D20437B002A014604DA03F049
:103410007F03437301F07DF8044B9868431A5842C8
:103420005841BDE80840FFF7FDBE00BF5C03002027
:103430002DE9F041064615461C464FF02003EFF3F8
:10344000118783F31288BFF36F8F01F0C2F887F3FF
:103450001188BFF36F8FB4F1FF3F08BFB5F1FF3F95
:1034600008D02A46234606F118000349BDE8F0417A
:1034700000F0D2B9BDE8F0818F45000010B5074BD0
:103480009868074B0C4618601146DDE90223FFF7E8
:10349000CFFF2046BDE81040FDF77EBE5C03002054
:1034A0008403002070B50446183001F0D4F84FF0C2
:1034B0002003EFF3118683F31288BFF36F8F94F923
:1034C0000D20637B002A05DA03F07F036373204637
:1034D00001F01FF80B4D637BA86843F01003637382
:1034E000031B58425841FFF79DFE86F31188BFF336
:1034F0006F8FAB68A34203D1BDE8704001F027B8DD
:1035000070BD00BF5C03002010B54FF02003EFF347
:10351000118483F31288BFF36F8F084B9A68D37BB3
:103520000133D3730020FFF77DFE84F31188BFF3CE
:103530006F8FBDE8104001F00AB800BF5C030020A7
:10354000044B002103F12002C3E908220846FFF7DB
:1035500013BE00BF5C030020F8B54FF02003EFF36B
:10356000118583F31288BFF36F8F1A498868437BF4
:1035700003F07F03437300F0CCFF8B685A7B08464F
:1035800062F07F025A7350F8202F82421CD0DAB1C9
:103590004F6A93F90E6092F90E40A6420FD0A41B19
:1035A000002C0CDD5168C3E900210B605360012041
:1035B000FFF738FE2846BDE8F840FDF7EDBDBA42FA
:1035C00002D01268002AE6D14A6AC3E900021360F9
:1035D0004B62ECE75C03002050EA01032DE9F04167
:1035E00005460E4603D1FFF7B7FF002033E06FF02A
:1035F0000104241A4FF0FF3363EB0103012C73F134
:10360000000302DA01F067F844194FF02003EFF3EA
:10361000118883F31288BFF36F8F104F104BB86877
:103620001860FFF7EDFEB8680E492A463346183099
:1036300000F0F2F8BA68537B43F01003537340462E
:10364000FDF7AAFD01F047F8201A63EB03030128F8
:1036500073F10003C9DBBDE8F08100BF5C0300200B
:10366000840300208F450000B1F1FF3F08BFB0F197
:10367000FF3F08B506D1084B9868FFF713FF4FF0DE
:10368000FF3008BDFFF7A8FF4FF47A7380FB0303F8
:10369000C00B40EA4340F4E75C030020014B98680C
:1036A000704700BF5C0300202DE9F04104464FF055
:1036B0002003EFF3118683F31288BFF36F8F437BF0
:1036C0001A0705D586F31188BFF36F8FBDE8F08127
:1036D00023F0200242F00801D20920D14173A368EF
:1036E00013B1204600F01DFF04F1180000F0B3FFF5
:1036F00004F158074FF00008A56DBD4200D0B5B9E0
:103700000120FFF78FFD104B9B68A342DAD1EFF346
:103710000583002BD6D13046FDF73EFDD2E703F0FE
:103720005F0343F00803437300F0F3FED7E7284636
:1037300000F0F7FE05F1180000F08DFFC5F8788065
:103740002846FFF709FED7E75C03002008B50648C6
:10375000064A0749121A00F046FCBDE80840054A2F
:103760000549064800F03FBC00000020E4000020AE
:10377000784C000000000000784C000000000020A1
:10378000034B1B680BB9FEF79FBD0020704700BFBD
:1037900090030020114B10B51C689C4208BF002408
:1037A000FFF7EEFF03466CB1D4E90402C01A62EBE6
:1037B000E373012873F100020DDBB0F1004F73F1E8
:1037C000000301DB6FF00040054B1B6913B1984209
:1037D000A8BF184610BD0020F6E700BFB4000020C7
:1037E0005C03002030B5036868B10A4A5268904211
:1037F00009D043B1D3E90421D0E90445121941EBC2
:103800000501C3E90421426813605A600023C0E93E
:10381000003330BDB4000020B3F1FF3F08BFB2F168
:10382000FF3FF8B504461F46154667D081604FF04C
:103830002003EFF3118683F31288BFF36F8F6FF0CD
:103840000102531B4FF0FF3C6CEB0703002B1BDB0B
:103850002B4BD3E90013521A6CEB0303551B63EB9C
:103860000703012D73F10002BCBF01250023C0E94D
:1038700004532448D0E9003C834218D1C4E9000C29
:10388000CCF80040446026E0FFF77AFF013547F1AD
:1038900000072D1847EBE077C4E90457E9E7521A0F
:1038A00065EB07059C45C4E90425E7D01B68002BA0
:1038B000E4D0D3E90417D4E904258A4275EB070E56
:1038C000EDDA8A1A67EB0505C3E904255A68C4E9ED
:1038D000003214605C60036883420BD09C4209D1C3
:1038E000FFF758FF18B1084B1B69834202D0002133
:1038F000FEF7B8FC86F31188BFF36F8FF8BD00BFE9
:10390000E8010020B40000205C0300202DE9F8430A
:103910000546FFF7E1FC4FF02003EFF3118483F33A
:103920001288BFF36F8F244EDFF890803560244DEE
:10393000D8F8000032684045D5E9001E4FEAE2772A
:103940000BD050B1D0E9043C9A4277EB0C0916DA5F
:103950009B1A6CEB070CC0E9043C52184EEB0707AE
:10396000C5E9002700253560FFF714FF2946FEF75B
:1039700079FC84F31188BFF36F8FBDE8F883591881
:103980004EEBE377D31A336000220023C0E904230F
:10399000C5E90017FFF726FF84F31188BFF36F8F87
:1039A000836898474FF02003EFF3118483F3128864
:1039B000BFF36F8FBCE700BF90030020B40000206E
:1039C000E801002010B54FF02003EFF3118483F3DA
:1039D0001288BFF36F8FFEF777FC054AD2E90031FA
:1039E000C01841F1000184F31188BFF36F8F10BD3F
:1039F000E80100200A460146014800F09FBE00BFD2
:103A0000D0000020024A0349034800F03AB800BF42
:103A1000D24B0000354C0000504C000038B5064C2D
:103A2000064DAC4201D3002038BDD4E90112204636
:103A300000F09BFE1434F4E7D0000020E4000020E6
:103A40007047034658B1426802F00302012A03D0CE
:103A5000032A04D1026812B10020986070476FF009
:103A6000150070474268816002F00302032A4FF09C
:103A7000000203460CBF006810465A6070470020E1
:103A800070470FB407B504A951F8040B0191FCF776
:103A900049FD03B05DF804EB04B07047038B13F0ED
:103AA000070305D10368002B0CBF002003207047DB
:103AB000022B05D1438B002B14BF0020042070473C
:103AC000012B05D10368002B0CBF00200520704797
:103AD000002070472DE9F0410D4607461946281D84
:103AE00090461E46FFF7BEFF044638B133464246B5
:103AF00029463846A446BDE8F0416047BDE8F0815C
:103B000010B44FF02004EFF3118284F31288BFF356
:103B10006F8F416110BC0121FCF712BD10B50C463E
:103B200040B139B1081DFFF78CFF28B9A36833F005
:103B3000030301D06FF0150010BD38B50C460546E3
:103B400058B151B10B6843B14B6833B11C2200210D
:103B500000F054FA2C61002038BD6FF01500FBE72F
:103B600070B504460E46FFF7D9FF051E31DB4FF056
:103B70002003EFF3118183F31288BFF36F8F638B00
:103B8000208B4FF6FF75AB4200F007022ED0022AC1
:103B90000ED1013363831546012381F31188BFF3EE
:103BA0006F8FB3B1002331462046FFF793FF10E03B
:103BB000830701D0062A0ED100233360636893B9CE
:103BC000C4E90066154662B90A4620460221FCF7A0
:103BD000B7FC284670BD052A0CBF6FF085056FF055
:103BE00004050023D9E71E606660EBE76FF00A0565
:103BF000F7E7044608B5084611461A46A047FFF7FE
:103C00004DFDFDF7B1FC00EBC10040884008704756
:103C1000F8B50346FFF7F7FFB0FA80F0C0F11F00D8
:103C200003EB800CCA00DCF81060171D0C4606324E
:103C30008DB256B9012101FA00F0D9680143D9606B
:103C4000CCF81040DD539D52F8BDF1000431585AB4
:103C5000D85303EBC0009E52C5805D52F4E710B507
:103C600000EBC104E388994202F104010AD1012367
:103C700003FA02F2C36823EA0203C360002340F898
:103C8000213010BDA28840F8213000EBC20100EBCA
:103C9000C300CB808280F4E72DE9F843B1FA81F5C7
:103CA000C5F11F0900EB890703463A690E46C2B108
:103CB0004FF003083C6918462146FFF7A4FFB042C5
:103CC00006D34A461846FFF7CAFF2046BDE8F883E8
:103CD00003EBC400B8F10108C088386101D082420A
:103CE000E8D1C5F120024FF0FF349440DA68144067
:103CF000EBD094FAA4F2B2FA82F2111D53F82140EB
:103D00002146DFE738B50346FFF77DFF0C46A51ACD
:103D1000511A03EBC40405444800608003EBC20061
:103D20006C00448023F8321018461146FFF76BFFF1
:103D3000014423F8315038BD70B5056809B9002039
:103D400070BDAB68B3EBD10FF9D90B31CC0821466C
:103D50002846FFF7A1FF06460028F0D00146284676
:103D6000FFF751FFA04207D932192846FFF7CAFFD3
:103D700011462846FFF74CFF05EBC6021046538854
:103D800043F0010353800430DAE72DE9F843144689
:103D90004A4202EA010731EA020203460AD0042F2E
:103DA0003A46B94628BF0422CF1B74B900252846DD
:103DB000BDE8F883042904D82146BDE8F843FFF79D
:103DC000BBBF4FF000090422EFE71E68B368B3EBF6
:103DD000D40FEBD904F10B013944891AC9083046D4
:103DE000FFF75AFF80460028E0D009F1040505EBF3
:103DF000C0057B1E35441D447F423D40A5EB0905AF
:103E00002C442B1F07349B1B24F00704A41BB0EB8E
:103E1000D30F4FEAD3074FEAE40408D201463A46EB
:103E20003046FFF76FFF41463046FFF7F1FE394657
:103E30003046FFF7E8FE3844844207D23046224637
:103E4000FFF760FF21463046FFF7E2FE06EBC706AC
:103E5000738843F001037380A9E7043ACB1D114432
:103E600023F0070321F00701F0B4CD1AEA0803603C
:103E7000B2FA82F0C0F12404A40007340026E1085D
:103E8000C0F1200003F110049A60DE6004EB8000B2
:103E9000844218D1480040F00100588003EBC1046F
:103EA000501A47001E8067805C1923F8311003EB1D
:103EB000C20266805853508840F001005080F0BC28
:103EC0001846FFF7A5BE44F8046BE1E72DE9F84F6B
:103ED0009A46D3786F2B80460F461546A3F1410BC7
:103EE00029D024D8582B14BF0A261026DDF8289094
:103EF0003246002340463946FCF702F9092AD4B27B
:103F00001ED83034B045E4B277F1000309F8014D12
:103F100001D3D14511D82B789B0605D5082E15D194
:103F2000AB7843F00803AB704846BDE8F88F03F068
:103F3000F703702BD7E70826D8E780460F46D7E768
:103F4000BBF1190F94BF37345734DBE7102EEBD198
:103F5000AB7843F01003E6E72DE9F04107468846C9
:103F600015461E461446B442A4EB050002D33EB9E2
:103F700023782BB114F8010B4146B8470028F2DA38
:103F8000BDE8F08170470022C0E9002282607047DE
:103F900000F090BA0146006800F08CBA00210120C0
:103FA000FFF7F6BF08B5FDF7CFF8BDE80840FDF70D
:103FB000AFB90139034611F8012F0AB91A707047D9
:103FC00003F8012BF7E7034600201A5C02B970479B
:103FD0000130FAE7034600201A5C0AB1884200D19A
:103FE00070470130F8E710B5431E0A44914200D1F2
:103FF00010BD11F8014B03F8014FF7E7C9B20244B5
:104000000346934200D1704703F8011BF9E74FF0D4
:10401000FF30704784B004AB03E907009DF804301B
:10402000062B08D14FF080430122C3F80025BFF3CF
:104030004F8F20BFFDE704B0704784B004AB03E9A5
:104040000700002383F31188BFF36F8F04B070471C
:104050000369C9B20C2201FB0233186C00F007009F
:1040600070474FF02003EFF3118283F31288BFF300
:104070006F8F036803F0C00343F00203036082F311
:104080001188BFF36F8F7047034670B50069C9B2DE
:104090004FF02004EFF3118684F31288BFF36F8F83
:1040A0000C2505FB0104246C14F0C00401D0A242CD
:1040B00010D105FB010001220264002086F3118863
:1040C000BFF36F8F28B95B6803EBC1014B6898475A
:1040D000002070BD4FF0FF30F0E78022FFF7D4BF23
:1040E000F8B5069F04690546C9B24FF02000EFF30A
:1040F000118C80F31288BFF36F8F0C2606FB0146EC
:10410000306C00F0070EBEF1010F11D137640026AC
:104110008CF31188BFF36F8F46B90C2000FB01446C
:10412000C4E90E236B6853F8313098473046F8BD28
:1041300000F0C000874214BF4FF0FF366FF07706E3
:10414000E6E713B580240094FFF7CAFF02B010BD64
:10415000006910B4CBB21C2403FB0400002110BC86
:104160001047002000F006B90020FEF715BA1046EF
:10417000FEF7A4BF43685B68D3F810350B600020DE
:10418000704743685B68D3F8040542400A404240E8
:10419000C3F804250020704743685B680020C3F81B
:1041A0000815704743685B680020C3F80C1570471A
:1041B00043685A68D2F804354B40C2F804350020F1
:1041C00070470369586830B558B10024814212D154
:1041D00008689D6854B98D42586000D198600020ED
:1041E00008606AB9002030BD2846EFE78D422060A4
:1041F00008BF9C60F3E705680446002DF4D13AB18E
:1042000098685A680A6059600028EBD19960EAE71B
:104210006FF01500E7E702690B46D2E9010183E878
:1042200003000020704743681B68D3F88004C3F87C
:1042300080047047436802691B68D3F8100148B1D5
:10424000527C0A700020C3F81001D3F8102101221B
:104250001A6070474FF0FF30704707B5019001A812
:10426000FDF77CFD019B03F5E073890040F8231006
:1042700003B05DF804FB02680346D2F8580140B968
:104280005B689B0706D4D2F82001003818BF0120D4
:1042900070470120704743681B68D3F80423D10599
:1042A00018D5D3F82021AAB14FF02001EFF31182E5
:1042B00081F31288BFF36F8FD3F8201131B1002141
:1042C000C3F82011D3F820110121D96082F311889D
:1042D000BFF36F8F42685268D20615D54FF02001A8
:1042E000EFF3118281F31288BFF36F8FD3F8581167
:1042F00011B10021C3F800154FF48001C3F8081371
:1043000082F31188BFF36F8F704710B50022044607
:1043100001212820FCF700FF2820FCF7DFFE2046C3
:10432000BDE81040FDF73CBE10B500220446012157
:104330000220FCF7F1FE0220FCF7D0FE2046BDE88B
:104340001040FDF72DBE70474FF08053D3F8300179
:10435000A0F10803584258417047004700F0BFB928
:1043600008B50020FCF7CAFE18B9BDE80840FCF704
:10437000B5BE08BD10B101281DD070474FF0804375
:10438000D3F81824D3F81814C90312D502F0030285
:10439000012A0ED1C3F818254FF080430022C3F83C
:1043A0000421D3F804210222C3F8042301229A60D5
:1043B00070470022EEE74FF080430022C3F800214F
:1043C000D3F80021C3F8040318607047F7B50190D3
:1043D00001A8DDE9084617461D46FEF74DF9019B89
:1043E000002F00EB830014BF02230023002918BF15
:1043F00043F00103002D14BF4FF00C0C4FF0000CE4
:10440000002C43EA0C0314BF4FF4E06C4FF0000C97
:10441000002E43EA0C03D0F8002714BF4FF4403CB1
:104420004FF0000C43EA0C0322EA030301B10978C0
:104430000FB13F787F0019430DB12D78AD0039439E
:104440000CB1227814020D430EB1367836042C4399
:104450003443C0F8004703B0F0BD1FB50DF10F03A2
:10446000019300238DF80F1000931A461946FFF7A9
:10447000ADFF05B05DF804FBFEF764BC08B5FFF7BF
:10448000FBFF002008BD704738B1C3681888C0F32F
:104490000800A0F580735842584170474FF0200241
:1044A000EFF3118382F31288BFF36F8FFEE708B535
:1044B000FFF7F4FFF8B505460E464FF02003EFF383
:1044C000118783F31288BFF36F8FFFF7E7F8314648
:1044D00004462846FFF7EBFF87F31188BFF36F8F81
:1044E0002046BDE8F840FDF73FB8EFF305800038FF
:1044F00018BF0120704708B5FCF70EFDBDE8084065
:10450000FFF721BF03460020C3E90200C3E90033DF
:104510007047D0E9003213605A600023C0E90033CD
:10452000704708B5FFF7F5FF437B23F002034373A1
:104530000023836008BD034620B9EFF305820AB962
:10454000FCF72ABE83F31188BFF36F8F70474FF0DB
:104550002003EFF3118083F31288BFF36F8FFFF70F
:10456000EABF03460068834208BF0020704710B5C9
:104570004FF02003EFF3118483F31288BFF36F8FA2
:10458000FEF7EAFE84F31188BFF36F8F10BD10B5FC
:1045900001464FF02003EFF3118483F31288BFF339
:1045A0006F8F10F80B3C13F0280F0DD151F8103C11
:1045B00018380BB1FFF7B5FF11F80B3C23F01403CB
:1045C00001F80B3CFEF7C8FE84F31188BFF36F8F30
:1045D00010BD38B504460D46FEF712FF637B43F06D
:1045E0000203637395B12B68A5609D4215D0A3B1FA
:1045F00094F90E1093F90E20914208D0521A002A15
:1046000005DD5A68C4E9003214605C6038BD6A6830
:10461000934202D01B68002BECD16B68C4E90053B5
:104620001C606C60F2E738B54FF02003EFF31185A2
:1046300083F31288BFF36F8FFFF793FF044620B117
:10464000FFF76FFF183000F006F885F31188BFF30D
:104650006F8F204638BD10B54FF02002EFF3118464
:1046600082F31288BFF36F8F03683BB1FFF7BAF88C
:10467000002084F31188BFF36F8F10BD6FF0150019
:10468000F7E710B54FF02003EFF3118483F312889E
:10469000BFF36F8FFFF77EF884F31188BFF36F8F3E
:1046A00010BD70B504460D464FF02003EFF31186A0
:1046B00083F31288BFF36F8FFFF76CF8012805DDD5
:1046C000A04203DB29462046FDF7CCFD86F3118886
:1046D000BFF36F8F70BD08B5FFF774F908BD08B15F
:1046E000FDF750B87047B1F1FF3F08BFB0F1FF3F91
:1046F00038B505460C461DD051EA000303D1BDE88C
:104700003840FFF75FB96FF00103181A4FF0FF331D
:1047100063EB010100290CDAFFF754F9012D224661
:1047200074F100042B46BCBF01230022181841EB92
:10473000020138BD4FF0FF300146FAE70432D3B52D
:10474000044608D200260027CDE9006741F00401A5
:1047500000F013F810B9002002B0D0BD40F8044BAF
:10476000FAE701460420FFF745B910B400F10C0444
:10477000C0E9034410BCFFF770BB2DE9F04F85B0D2
:1047800006468846DDE90E019146FFF7ACFF06F1CB
:10479000140A05460F464FF02003EFF3118483F30C
:1047A0001288BFF36F8F06F10C0B4A464146304624
:1047B000FFF7EBFA0390FFF705F9039B3BB184F396
:1047C0001188BFF36F8F184605B0BDE8F08F281A27
:1047D00067EB0101012871F10002F0DBCDE9000176
:1047E0005A4621465046FEF749FE4FF02003EFF3AC
:1047F000118483F31288BFF36F8FD6E7FDF78CBD6A
:0848000034B9FF7F0100000044
:1048080025170000000000000D180000584800009F
:104818007D440000000000001D3A00000000000078
:10482800A51B000088480000A51B00007048000078
:104838000B430000A048000029430000B8480000CE
:10484800811A00000000000025210000000000007F
:10485800EE4B0000BC4A0000A44A0000BC00002047
:1048680028020020684A0000FB4B0000FC4A0000B8
:10487800D84A0000C400002084020020624A0000D8
:10488800F44B0000084B0000D84A0000C00000208C
:10489800900200205C4A0000024C0000484B0000D7
:1048A800144B0000C80000201C000020564A0000DD
:1048B800094C0000284B0000144B0000CC000020DD
:0848C80008000020504A000026
:1048D000112600005B430000000000009D3F000027
:1048E000B848000097420000000000009D3F000013
:1048F000000000009D3F0000000000009D3F000000
:104900008D2B00005B430000000000009D3F000075
:10491000000000009D3F0000000000009D3F0000DF
:10492000000000009D3F0000000000009D3F0000CF
:10493000000000009D3F0000000000009D3F0000BF
:10494000000000009D3F0000000000009D3F0000AF
:10495000000000009D3F0000000000000522000054
:10496000000000009D3F0000000000009D3F00008F
:10497000000000009D3F0000000000009D3F00007F
:10498000000000009D3F0000000000009D3F00006F
:10499000000000009D3F0000000000009D3F00005F
:1049A000000000009D3F0000000000009D3F00004F
:1049B000000000009D3F0000000000009D3F00003F
:1049C000000000009D3F0000000000009D3F00002F
:1049D000000000009D3F0000000000009D3F00001F
:1049E000000000009D3F0000000000009D3F00000F
:1049F000000000009D3F0000000000009D3F0000FF
:104A0000000000009D3F0000000000009D3F0000EE
:104A1000A048000097420000000000009D3F0000F9
:104A2000000000009D3F0000000000009D3F0000CE
:104A3000000000009D3F0000000000009D3F0000BE
:104A4000000000009D3F0000000000009D3F0000AE
:104A500000800080FF7F00800080FF7F008000805A
:0E4A6000FF7F00800080FF7F00800080FF7FCE
:024A6E00FFFF48
:104A70000338FDD87047000000000020000000004F
:104A800000000B06020000008C4A0000000000003D
:104A9000D94B00002600020700000020E14B000077
:104AA00022000B1121190000DB40000043410000EF
:104AB000000000005140000000000000BD18000090
:104AC000551900006341000069410000C91700004A
:104AD0009917000000000000211C00007541000033
:104AE0008341000099410000A5410000B141000050
:104AF000D91A0000C341000000000000FFFFFFFFC3
:104B00000000005000000000FFFF00000003005004
:104B10000100000035420000DD1E000027420000B9
:104B2000791D000017420000002000400200000034
:104B30000000000006000000080000000500000062
:104B40000700000001010000008002400200000098
:104B5000000000002200000021000000FFFFFFFF16
:104B6000FFFFFFFF01000000084800005048000060
:104B7000584800005848000058480000F5FFFFFF63
:104B8000477261706820696E697469616C697A61E5
:104B900074696F6E2073746174757320636F6465DC
:104BA0003A2025640A004772617068206E6F646560
:104BB0003A2025640A004772617068206D7574653B
:104BC00078206C6F636B20636F756E743A20256478
:104BD000200A00286E696C2900464C4153485F301A
:104BE000005352414D5F3000000001000000434C73
:104BF0004F434B004750494F5F31004750494F5F8B
:104C00003000554152545F3100554152545F3000DD
:104C10000000000000010100000000005465726DFA
:104C2000696E616C00525454005345474745520029
:104C30006D61696E0076322E372E39392D3234305F
:104C4000312D67376238363133376236636361003E
:104C50002A2A2A20426F6F74696E67205A6570682D
:104C60007972204F53206275696C6420257320256A
:084C700073202A2A2A0A000021
:104C78007F3A00000F4000000000000000C2010061
:104C88000001030000000000000000000000000018
:104C980000C2010000010300000000000000000045
:104CA8000090D00300000000000000000000000099
:104CB80000000000000000000000000000000000EC
:104CC80000000000000000000000000000000000DC
:104CD80000000000000000000000000000000000CC
:104CE80000000000000000000000000000000000BC
:104CF80000000000000000000000000000000000AC
:104D0800000000000000000000000000000000009B
:104D180000000000FF00000000000000000000008C
:0C4D2800FFFF0F00B4000020B4000020CA
:104D3400000000000000000000000000000000006F
:044D4400000000006B
:104D480000000000601500200004000000000000C2
:044D58000000000057
:0400000300001539AB
:00000001FF
