:10100000A0060020511C0000F53E0000251C000039
:10101000251C0000251C0000251C0000000000000D
:10102000000000000000000000000000391900006E
:10103000251C000000000000E5180000251C000031
:10104000E9190000E9190000E9190000E919000098
:10105000E9190000E9190000E9190000E919000088
:10106000E9190000E9190000E9190000E919000078
:10107000E9190000E9190000E9190000E919000068
:10108000E9190000E9190000E9190000E919000058
:10109000E9190000E9190000E9190000E919000048
:1010A000E9190000E9190000E9190000E919000038
:1010B000E9190000E9190000E9190000E919000028
:1010C000E9190000E9190000E9190000E919000018
:1010D000E9190000E9190000E9190000E919000008
:1010E000E9190000E9190000E9190000E9190000F8
:1010F000E9190000E9190000E9190000E9190000E8
:1011000053B94AB9002908BF00281CBF4FF0FF316E
:101110004FF0FF3000F00CB8ADF1080C6DE904CED3
:1011200000F008F8DDF804E0DDE9022304B07047C0
:10113000704700BF2DE9F04F07468C460846099ED0
:1011400015463C461946002B40F0C6808242B2FA52
:1011500082F746D94FB1C7F1200E24FA0EFE00FAED
:1011600007F3BD404EEA030CBC404FEA15481FFA96
:1011700085FEBCFBF8F9220C08FB19C309FB0EFA2B
:1011800042EA03439A4528D9EB1809F1FF3004D20B
:101190009A4502D9A9F102002B44A3EB0A03A4B299
:1011A000B3FBF8F208FB123302FB0EFE44EA0344E1
:1011B000A64514D92C1902F1FF3303D2A64501D953
:1011C000931E2C44A4EB0E0443EA00401EB1FC40E5
:1011D000002334607360BDE8F08F4846DDE71346B6
:1011E000F0E702B9FFDE87BB831A01214FEA154EF3
:1011F000AAB2B3FBFEFC200C0EFB1C330CFB02F866
:1012000040EA0343984563D9EB180CF1FF3004D250
:10121000984502D9ACF102002B44A3EB0803A4B219
:10122000B3FBFEFC0EFB1C330CFB02F244EA03444E
:10123000A2424FD92C190CF1FF3304D2A24202D999
:10124000ACF102032C44A41ABEE7C7F1200C20FA2B
:101250000CF800FA07F324FA0CFCBD404CEA030238
:101260004FEA154EABB2B8FBFEFC110C0EFB1C8016
:101270000CFB03F941EA0040814504FA07F423D945
:1012800028180CF1FF3104D2814502D9ACF10201DA
:101290002844A0EB090092B2B0FBFEFC0EFB1C0040
:1012A0000CFB03F842EA004398450FD9EB180CF108
:1012B000FF3204D2984502D9ACF102022B44A3EBD1
:1012C000080342EA014191E76146E2E76246F6E738
:1012D0006046A2E76346B6E7834205D90EB1C6E988
:1012E00000700021084676E7B3FA83F181B98342A2
:1012F00001D3BA420AD8BC1A60EB030301209C4612
:10130000002E68D0C6E9004C002164E70846F7E7E4
:10131000C1F1200C8B4022FA0CF41C4302FA01F5B7
:1013200000FA01F327FA0CF220FA0CFB4FEA1449F9
:101330001343BBFBF9F81FFA84FE09FB18BB1A0C18
:1013400008FB0EFA42EA0B42924507FA01F73ED932
:10135000A21808F1FF3004D2924502D9A8F1020088
:101360002244A2EB0A029BB2B2FBF9F809FB182255
:1013700008FB0EFE43EA024296452AD9A21808F15C
:10138000FF3304D2964502D9A8F10203224443EA6E
:101390000040A0FB0593A2EB0E029A42CE4698466F
:1013A00002D306D14F4504D2B9EB050E63EB040816
:1013B000013886B1B7EB0E0362EB080707FA0CFCA5
:1013C000CB404CEA0303CF40C6E900379CE74046D8
:1013D000C7E74346DBE73146FDE600002DE9F84F5D
:1013E000B0F8189019F00808044693460DD001296A
:1013F0000CBF49F0100949F02009A0F818908BF3B0
:101400001188BFF36F8FBDE8F88F09F00709022933
:1014100007D1204602F0A9FC0028F0D00128238B38
:101420004ED16769218B002F15DA256821F007015D
:10143000C4E9008841F0010121830026218B01F0DD
:10144000070ACA4502D0A368002B5AD10DB9002E55
:1014500071D0002356E001F007035A1F012A1ED85D
:1014600021F00701062B256889B2C4E900880AD15A
:101470003DB1638B2A46126801339BB2002AFAD130
:10148000638341F002012183204602F06EFC064690
:101490000028D3D0238B43F020032383CDE7042BF4
:1014A0000CD121F0070189B22183204602F05DFCB6
:1014B00005460028C1D041F0200121830025BCE76A
:1014C000032809D1226923F00703166843F00603B5
:1014D000238300252F46B1E7042806D1226923F093
:1014E0000703566843F00403F2E7052806D1226992
:1014F00023F00703966843F00503E9E700252E462D
:10150000E8E7012341F0080121838BF31188BFF341
:101510006F8FFBB985BB16B11F492046B0474FF00E
:101520002003EFF3118B83F31288BFF36F8F238BAC
:1015300023F008032383238BDA0625D523F0100339
:1015400023830121B4F8189009F0070900297FF4DA
:101550005EAF54E7A1680029DCD0D1F80090D1F843
:1015600004B03B4652462046D847B9F1000FD1D0CF
:101570004946D9F80090F2E729463B4652462046B4
:101580002D6802F00EFCC5E713F020011EBF23F00A
:10159000200323830221D5E7CF3D00002DE9F84346
:1015A00005464FF02003EFF3118683F31288BFF353
:1015B0006F8F0E4B1C689CB10D4FDFF838804FF0D9
:1015C0000C09D4E90132002D08BF13462BB198F85D
:1015D000142009FB02F2B85C98472468002CF0D173
:1015E00086F31188BFF36F8FBDE8F883A001002058
:1015F000AC0100206002002000F01F0301229A408D
:101600000A4BBFF35B8F400903EB800050E8003FBB
:1016100043EA020140E8001CBCF1000FF6D1BFF321
:101620005B8F1A4214BF012000207047B8010020D0
:1016300030B51D4B1C7DBFF35B8F04F01F030122EF
:101640009A401A4B610985B0D04303EB810353E8FC
:10165000001F01EA000543E8005CBCF1000FF6D171
:10166000BFF35B8F114217D0114D0C2202FB0452C5
:1016700007CA01AB83E807000E4A7AB193E8070076
:1016800002F066FC0020FFF789FF0C235C432A1957
:1016900000232B51C2E9013305B030BD82F311881C
:1016A000BFF36F8FEEE700BF60020020A8010020AB
:1016B000AC010020513F00002DE9F041374B384C80
:1016C0001D7D88B080462846FFF796FF60B96F46BB
:1016D00042462946384602F0FEFB97E807000C26F2
:1016E00006FB054686E807000C236B43E218E05C26
:1016F0006E0905F01F0700283BD0B8F1FF3F10D05E
:10170000D2F808E02748284A4FF4004C0021002373
:10171000EEFB0C01FFF7F4FC0121A8EB000002F046
:101720009AFE01F0E7FE0120FFF738FFBFF35B8F61
:101730001E4B0122BA4003EB860353E8001F1143FE
:1017400043E800100028F8D1BFF35B8F0C2303FBA4
:10175000054494E8070005AB83E80700144A1AB172
:1017600093E8070002F0E1FBFFF762FF02F048F8A0
:101770000120104ABFF35B8F0123BB40DB4302EB28
:10178000860656E8002F1A4046E800210029F8D1C5
:10179000BFF35B8F08B0BDE8F08100BF600200209E
:1017A000AC0100203F420F0040420F00A801002082
:1017B0002B3F0000B8010020014910220A60704749
:1017C00010ED00E072B6404080F31188BFF36F8FD8
:1017D000BFF34F8F30BF62B6BFF36F8F704700BF4C
:1017E00072B6494081F3118820BF80F3118862B638
:1017F000704700BF43B2002B08DB012200F01F003E
:1018000002FA00F05B09024A42F82300704700BF69
:1018100000E100E0054B420900F01F0053F82220D0
:10182000012303FA00F01040704700BF00E100E020
:1018300043B2002BA8BF03F1604301F10101B8BF1F
:10184000064B4FEA4111ACBF03F5614300F00F00B6
:10185000C9B2B4BF195483F80013704714ED00E007
:1018600030BFFFF7FDBF00BF0F4A08B50F4B22F096
:101870007F029A60BFF34F8FBFF36F8FD3F888203A
:1018800022F47002C3F88820EFF3148323F00403DA
:1018900083F31488BFF36F8F01F06CFC02F0D2F871
:1018A00000F0CAF901F070FC0010000000ED00E04B
:1018B000094A0A49936809689967094958674B6852
:1018C00043F080534B60002383F31188BFF36F8F85
:1018D0009368986F704700BF600200206447000063
:1018E00000ED00E012498A684FF030001044EFF339
:1018F000098C80E8F01F202080F31288BFF36F8FDF
:101900000C4F4FF00066CA698A603E60506F00233A
:10191000536780F3118804B5104600F0CFF9BDE895
:10192000044002F1300090E8F01F8CF30988704702
:101930006002002004ED00E01EF0040F0CBFEFF386
:101940000880EFF30980816911F8021C0229FFD099
:1019500001B502F0C7FA01BD42F8203C009B42F8F5
:101960001C3C0A49019B42F8183C029B42F8143C7B
:1019700021F001014FF0807342F8043C42F8081C4A
:101980000023203A02654367704700BFC13E000054
:10199000094A0346906870B113F1160F406E05D0E6
:1019A000A0F120029A4205D8834203D2814228BF87
:1019B00000207047002070476002002008B5094BE6
:1019C00098600D46144600F079F9204685F30988A1
:1019D000002163B681F31188BFF36F8F00220023CB
:1019E00002F06EFA6002002001B572B60B4A9069EF
:1019F00000281EBF0021916102F05EFC62B6EFF389
:101A00000580A0F110004FEAC0000549014409C952
:101A10009847BDE8014003490847000060020020E4
:101A200028450000291A0000044B9968D8698842AB
:101A300003D003494FF080520A60704760020020D3
:101A400004ED00E038B5194B14469A6A9A6A9A6A0E
:101A50000546900719D5586B9A6A120615D519B123
:101A60009A6A22F080029A629A6A9A6A9A6AD106FF
:101A70000ED49B6A9A070BD400200C4A936A43F059
:101A8000FF0393620023237038BD6FF01500EBE76E
:101A9000064B5B681B05EFD52946FFF779FF002849
:101AA000EAD080F309880220E7E700BF00ED00E0FC
:101AB0000D4B9A6A9A6A9A6A920508D59A6B9A6A45
:101AC000120404D518B19A6A22F400429A62064BB5
:101AD0009A6A9A6AD20558BF9A6A9A6A002042F4B2
:101AE0007F429A620870704700ED00E070B5484B85
:101AF0005B688AB00D46C3F30803002686F311889D
:101B0000BFF36F8F02F07F41B1F17F4F11D102F02F
:101B10000C0108290DD0110701D405460126002229
:101B2000033B8DF80720032B6BD8DFE803F0045547
:101B3000595D3546F3E7364BDC6A14F0020460D198
:101B4000DA6A002A15DBDA6A520012D5AA6932F87D
:101B5000021C4DF6027291420AD093F828200AB373
:101B60000DF1070201212846FFF76CFF044600E053
:101B70002C689DF807309BB92022294602A802F064
:101B8000C0F9099B002E3ED0C3F3080222B96FEAC8
:101B900053236FEA4323099302A9204602F0A0F9D8
:101BA0000AB070BD93F829202AB10DF10701012078
:101BB000FFF77EFFDAE75A8D92B2002AD9D09A6AEF
:101BC0009A6A9A6A9A6A9A6A9A6A9A6A6FEA024260
:101BD0006FEA12429A62CCE70DF107020021C2E7D8
:101BE0000DF107010020E3E7094B9A6A9A6A9A6AA5
:101BF0009A6A9A6A9A6A9A6A6FEA02426FEA12428B
:101C00009A620024B5E723F4FF7323F00103C2E7CF
:101C100000ED00E0024A536943F01003536170473E
:101C200000ED00E0EFF30880EFF3098101B57246A3
:101C3000FFF75CFF01BD00BF044800232021C2184C
:101C40000133302B82F80013F9D1704700E100E036
:101C500002F028FC202080F3118808484FF402612C
:101C6000401880F30988EFF314800221084380F3C1
:101C70001488BFF36F8FFFF7F7FD000020080020E6
:101C8000064B9B68834207D1EFF3058323B1044AD7
:101C9000536843F08053536001F082BE600200201D
:101CA00000ED00E0024B034A0348012100F06EB84A
:101CB0000000042000000020C8460000426E054BD2
:101CC000203A1A60044A2021C3E901121846012172
:101CD00000F066B8BC01002000000B15F0B51F4FE6
:101CE00000268E4201DB1046F0BD44689CB353B120
:101CF00004F1FF3C14EA0C0F18D11F2C16D905680B
:101D00001CEA050F12D1202C0568D0F808C0D2B209
:101D10000FD9B4F1004F0ED8013CB4FA84F4C4F1E9
:101D20001F046400072A4CEA040406D96FF0150268
:101D3000D9E70824F6E73E24F4E725F01F0515430C
:101D400045F0100544F00104C7F89820C7F89C50EE
:101D50000132C7F8A04001360C30C2E700ED00E0C8
:101D6000044B0522C3F89420BFF34F8FBFF36F8F4E
:101D7000704700BF00ED00E0BFF35F8F024B002211
:101D8000C3F89420704700BF00ED00E010B5034C8D
:101D900001232278FFF7A2FF207010BD98020020D7
:101DA00008B5094A00231278FFF798FF10F1160FC3
:101DB00002D0064A072800DD08BDC2F89800C2F824
:101DC000A0300130F6E700BF9802002000ED00E0EF
:101DD00014490868082810B521D8FFF7CDFF124C28
:101DE00049680022904201F10C0105D10F4B187097
:101DF000FFF7B6FF002010BDC4F8982051F80C3C46
:101E000023F01F03134343F01003C4F89C3051F830
:101E1000043C43F00103C4F8A0300132E2E74FF084
:101E2000FF30E8E7D446000000ED00E09802002013
:101E300010B54FF02003EFF3118083F31288BFF346
:101E40006F8F114A0123C2F840354FF080424FF0A6
:101E50008051C2F87835D1F83041082C08D1D1F83A
:101E60003411052904D8094C615C09B1C2F838362F
:101E70004FF080430122C3F8802580F31188BFF31F
:101E80006F8F002010BD00BF00E001408B470000B5
:101E900020B1034B800143F001031847704700BF96
:101EA000C04600004FF08043D3F84036DB072ED504
:101EB0004FF01023D3F8043303F00703072B26D188
:101EC000144A0123C2F80435D2F80034002BFBD0A9
:101ED0004FF01021D1F8043323F0070343F004033B
:101EE000C1F804330023C2F804350A4AD2F800349A
:101EF000002BFBD0BFF34F8F0749084BCA6802F491
:101F0000E0621343CB60BFF34F8F00BFFDE70020BB
:101F1000704700BF00E0014000ED00E00400FA055A
:101F2000084B70B5C31A0D4607499B100446594328
:101F30000648402202F033F82B4601462046BDE811
:101F400070401847D8010020B76DDBB6E0440000B0
:101F500073B50C4C0C4A4023041B00930D460B46F2
:101F60000A49A41061430646094802F044F8011EDC
:101F700005DA30462B4602B0BDE87040184702B083
:101F800070BD00BFD801002067400000B76DDBB610
:101F9000E0440000002270B5012104461046FFF71E
:101FA00047FC0020FFF726FC0F4800F0BDFC0F4B5C
:101FB000984215D102F0C7F826690D49304601F064
:101FC00023FF00280BDB246909490125356404F14E
:101FD0001C0001F019FF002801DBE564002070BD42
:101FE0006FF00400FBE700BF292000000000AD0BEC
:101FF0001C47000001460C2309484B4370B5C41828
:10200000D4E90E5600224033A263184401F0B4FF15
:102010002DB132462B460348BDE87040184770BDCD
:10202000D8010020E044000010B1012804D070471E
:10203000034B1B6C5B0701D1FFF7DCBF704700BF90
:10204000D801002008B54FF02003EFF3118183F38E
:102050001288BFF36F8F124A136843F0020013F027
:10206000010310600CD04FF08042D2F80C34D2F84B
:102070000C2413F0010303D00A4801F07DFF012373
:1020800081F31188BFF36F8F23B1BDE808400020B2
:10209000FFF7B0BFBDE80840012002F05EB800BF06
:1020A00028020020180200201FB500220123CDE9DC
:1020B0000223094ACDF800D06B46CDF804D001F0D8
:1020C000CBFF002805DB4FF480420023684601F077
:1020D00091F905B05DF804FB85400000094BBFF3A2
:1020E0005B8F53E8002F22F0020143E80010002824
:1020F000F7D1BFF35B8FD30702D4012000F024BCDB
:10210000704700BF280200202DE9F0413949BFF394
:102110005B8F0746012251E8003F41E8002000287C
:10212000F9D1BFF35B8F33B9334934484B60CB608F
:102130008A6001F07CFE7B1E012B2FD8012F07D176
:102140004FF08043D3F81C3403F00303012B25D058
:1021500002F0ACF8044618B9294B1B78002B41D18A
:102160004FF02003EFF3118683F31288BFF36F8FD4
:102170000124DFF890804FF08045D5F81834D5F869
:102180001824D2030CD503F00303012B01D0012F37
:1021900006D10CB386F31188BFF36F8FBDE8F081D1
:1021A000ACB13046FFF71CFBD5F81835002BE4D155
:1021B000D5F80421002AE0D0C5F80431D5F804315F
:1021C0000123C5F81835C8F88031AB60D5E7002188
:1021D000212001F0C5FBE7E74FF080430222C3F85E
:1021E0000423DBE74FF080430222C3F808230646AE
:1021F000BFE700BF2C020020C8010020F40100202E
:102200009902002000E100E030B54068047A01F056
:102210001F01B2F5005F85B041EA44144FF000059C
:1022200004D1204600F03EFE00202DE0B2F5804FA4
:10223000CDE902552AD1B3F5003F0CBF0423052395
:10224000B2F5A03F8DF808302CD16209012A04F0C4
:102250001F031D4A03F5E07318BF4FF0A04252F868
:102260002330DB071ED40DF107052946204600F078
:102270007DFD164B984214D1284600F0C5FD144B45
:1022800098420ED06FF00B0005B030BDB3F5C02FF3
:1022900005D0B3F5003F0CBF02230123D0E7032391
:1022A000CEE703950023194602AA204600F038FC29
:1022B000074B984204D10121204600F0ABFDB3E763
:1022C0006FF00400E0E700BF000300500400AD0B16
:1022D0000000AD0B10B500F087FD044668B900F0B2
:1022E0005BFD084B98420AD10748214600F038FDB3
:1022F000224605210620FFF79BFA002010BD6FF053
:102300000400FBE70000AD0B0D230000420970B58F
:10231000034602D0012A15D070BD0B4E32695168B8
:102320000029F9D003F01F0301250C689D408A683D
:102330002A4002D04B6830469847002CECD021460A
:102340002468F4E7014EE9E7F84400001045000076
:10235000F0B547683B7A01F01F0585B00E4645EAA7
:1023600043151446C2B902A9284600F0FFFC0446F2
:10237000284600F0BFFD414B984203D06FF00400A7
:1023800005B0F0BD844205D19DF8080000F036FD8F
:10239000A042F3D10020F3E70023194602AA284601
:1023A000CDE9023300F0BCFB344B984202D06FF011
:1023B0001500E5E7A3054ED5314B324A2340934241
:1023C0003AD00CD8062B14D004D893B1022BEED1FE
:1023D00004230EE0B3F5801FE9D1012309E02A4A66
:1023E00093422BD0B3F5A00F2AD0B3F5800FDED1E6
:1023F00002238DF8043084F48073C3F30023E006D5
:102400008DF8053054BFC4F34013032321058DF824
:10241000063017D57B68012101FA06F6C3F8086576
:10242000002201A9284600F029FC144B984214BF51
:102430006FF015000020A3E70723DAE70523D8E7AC
:102440000323D6E7620541BF7B68012101FA06F646
:10245000C3F80C65E4E7E3064FF0000354BFC4F390
:10246000401403241A4601A928468DF8044000F0C0
:1024700057FB024B98428DD099E700BF0000AD0B8F
:102480000600F0000600100002004000044A136835
:10249000C81A20F07F400344136001F0B3BB00BFB3
:1024A0005402002038B50F4C00254FF48033C4F897
:1024B0000855C4F804330C4B4FF40032C3F88021A4
:1024C00001212A461120FFF7B3F91120FFF792F9F5
:1024D0000123064AA360022023601360FFF714FE65
:1024E000284638BD0010014000E100E05002002005
:1024F0002DE9F843860006F1804600F1500406F508
:102500008836A400A4B204F180444FF48037D6F892
:102510004035DFF86C8021F07F4504F58834874032
:10252000D8F80495A3EB090323F07F4329F07F42F9
:10253000012BC6F8402502D1132001F0AAFF09F1B2
:102540000202AB1A23F07F43B3F5000F88BF154694
:10255000002323602368C8F8447325F07F43C6F83E
:102560004035D8F80435994506D0EB1A023B23F0E4
:102570007F43B3F5000F01D8BDE8F8832B46CFE7C2
:102580000010014070B5154D154C00262B68002039
:1025900006B170BDD4F80423D203FAD5D4F8402193
:1025A000002AF6D0C4F84061D4F840214FF48032BC
:1025B000C4F84823D4F84015D4F80465721A22F000
:1025C0007F42B2F5000F88BF314601261BB16A6811
:1025D00028609847DAE72B60DBE700BF480200205D
:1025E00000100140134AB0F1FF3F14BF03461346E9
:1025F000013B002B1CDD9342A8BF13460E4AD2F8C4
:1026000004050E4A1168401A10F4000F20F07F42B2
:1026100018BF002301321344094A0A481060002001
:102620005060044A934294BFC9188918FFF760BFED
:102630000023E3E7FFFF7F00001001405402002069
:10264000480200208D240000044BD3F80405044BFD
:102650001B68C01A20F07F40704700BF0010014087
:1026600054020020BFF34F8F0549064BCA6802F49D
:10267000E0621343CB60BFF34F8F00BFFDE700BFA5
:1026800000ED00E00400FA054FF08053D3F830214C
:10269000082A06D1D3F83431052B02D8024AD05C7F
:1026A00070470020704700BFAB470000024AD2F8D5
:1026B0000034002BFBD0704700E0014010B501F062
:1026C00036FD40B14FF080430022C3F80C21C3F81F
:1026D0001021C3F8382501F02AFD002846D04FF01C
:1026E0008052654BD2F80414C3F82015D2F80814B0
:1026F000C3F82415D2F80C14C3F82815D2F8101416
:10270000C3F82C15D2F81414C3F83015D2F81814E5
:10271000C3F83415D2F81C14C3F84015D2F82014AD
:10272000C3F84415D2F82414C3F84815D2F8281475
:10273000C3F84C15D2F82C14C3F85015D2F8301445
:10274000C3F85415D2F83414C3F86015D2F838140D
:10275000C3F86415D2F83C14C3F86815D2F84014D5
:10276000C3F86C15D2F84424C3F87025FFF78CFF2A
:1027700018B1424B424AC3F88C26FFF785FF18B1C7
:10278000404BFB22C3F81825FFF77EFF70B14FF0D6
:1027900080414FF08053D1F8E42ED3F8583222F024
:1027A0000F0203F00F031343C1F8E43EFFF76CFF81
:1027B00020B1354B4FF40072C3F8402601F0B7FC4E
:1027C00048B14FF08043D3F80024D20744BF6FF0E4
:1027D0000102C3F800244FF08053D3F83021082AB7
:1027E0000ED1D3F83431052B02D8284AD35C3BB143
:1027F0004FF01023D3F808224FF08043C3F8582538
:102800004FF01021D1F80C32DB0714D520480123FA
:10281000C0F80435FFF74AFFD1F80C3223F001036A
:10282000C1F80C32FFF742FF0023C0F80435FFF770
:102830003DFFFFF717FFD1F80032002B03DBD1F883
:102840000432002B14DA124901234FF01020C1F892
:1028500004351224FFF72AFFC0F80042FFF726FFD5
:10286000C0F80442FFF722FF0023C1F80435DEE779
:10287000084B094A1A6010BD00C0004000500040DB
:102880004881030000F0004000900240A54700008E
:1028900000E00140000000200090D00370B5012549
:1028A0000368B3FA83F2202AC2F11F0414D0BFF3E5
:1028B0005B8F05FA04F223EA020250E8006F9E42A1
:1028C00004D140E8002CBCF1000FF6D1BFF35B8FC0
:1028D000E6D102480C7070BD0148FCE70000AD0B6A
:1028E0000200AD0B0368CB40DB0710B515D4012304
:1028F00003FA01F10368BFF35B8F41EA030250E87A
:10290000004F9C4204D140E8002CBCF1000FF6D1EE
:10291000BFF35B8FEED1024810BD0248FCE700BF59
:102920000000AD0B0400AD0B044B1A7922B9012253
:1029300018609A8002487047024870475802002089
:102940000000AD0B0C00AD0B38B510B1012817D04D
:1029500038BD4FF080440223C4F80833C4F80401A2
:10296000D4F804310123E36042F21075D4F818342E
:10297000DB03EDD5012001F0E4FB013DF6D1E7E7F3
:102980004FF080440023C4F80803C4F80031D4F8A1
:102990000031606042F21075D4F80C34D4F80C2485
:1029A000D20303F0010305D523B1012001F0C9FBD7
:1029B000013DF1D1014B00225A71C9E758020020B4
:1029C0004FF0804310B5D3F800216AB10022C3F85C
:1029D0000021D3F800210122C3F80823114B5879B4
:1029E00010B95A711B6898474FF08043D3F80421FF
:1029F00072B10022C3F80421D3F80421D3F81824BB
:102A0000D3F81814920704D10122C3F818259A604C
:102A100010BD0222C3F80823024BBDE810401B681A
:102A20000120184758020020036803F01F025B09C9
:102A3000012B0260024818BF4FF0A040704700BF52
:102A400000030050034B083033F81000C0F340106F
:102A5000704700BF0400002070B500F108030C4C63
:102A600034F81330DA0505460E4607D5C3F3432381
:102A700004EBC30254F8333052689847A3682BB173
:102A8000E26831462846BDE87040184770BD00BF77
:102A900004000020124A083010B432F81030D90572
:102AA0001BD5C3F3432123F4F85322F8103002F16D
:102AB0001004002034F8023B13F4807F03D0C3F3EA
:102AC0004323994209D001303028F3D1002342F842
:102AD0003130044810BCFFF705BF10BC704700BF81
:102AE000040000207800002038B50246FFF7AAFF56
:102AF000094C02F1080540B134F8153007495B0B69
:102B000003F5A273002041F823001046FFF7C2FF2F
:102B1000002324F8153038BD040000200060004078
:102B20002DE9FF41044617461D4621B34E4E00F1E4
:102B3000080836F818309B0706D5FFF783FF18B151
:102B40004A4804B0BDE8F0810023CDE900338DF898
:102B50000E308DF80F300DF10F020B4620460DF1AF
:102B60000E0101F026FB36F8183023F0020343F083
:102B7000010326F8183097B13B4B3E787A6804F190
:102B8000080033F810108F070CD5002AD8D133F87D
:102B9000102022F01C0242EA860223F81020CDBB4E
:102BA0003348CEE721F02001C904C90C23F81010E6
:102BB000002AECD0032EC3D817782EB92D4A07F57A
:102BC000A27142F82160E2E7BA0002F1804202F508
:102BD000C04241EA4731D2F810C52CF0030CC2F8CC
:102BE00010C5D2F810C52CF44F3C2CF4407CC2F830
:102BF00010C5D2F810E54FEA042C0CF47C5C4EEAC8
:102C0000064E4CEA0E0C41F0200123F81010C2F8D9
:102C100010C5BCE7D5E900672046FFF73BFF002E53
:102C2000BED0114D2B689E4204D16B689F4201D1EA
:102C300000220AE010480DF10F01FFF72FFE0C4BA8
:102C400098427FF47EAF9DF80F2045F8326005EB87
:102C5000C20308345F6035F8143043EA422343F47A
:102C6000807325F814309BE7040000200400AD0BAE
:102C70000000AD0B0060004078000020F0B5044675
:102C800085B0154619B3334E00F1080736F8172002
:102C9000930703D4FFF7D6FE002858D112F01C0F7B
:102CA00002D04B78012B52D001238DF80F30002336
:102CB000CDE900134A1C8B1C20460DF10F0101F0D9
:102CC00078FA36F8173043F0030326F8173015B9B1
:102CD000214805B0F0BD1F4E04F1080736F8170073
:102CE000830734D595F800C06146890020F02000A4
:102CF00001F18041C00401F5C041C00C26F8170065
:102D00000023C1F810356A78002AE1D0D1F81035D7
:102D1000AD7823F4991323F4F853C1F81035D1F8A2
:102D200010E5230203F47C53120402F4403243EA18
:102D30000E0313432A0502F4801240EA4C30134379
:102D400040F0200026F81700C1F81035C0E703480E
:102D5000BFE700BF040000200000AD0B0400AD0B76
:102D6000014BC3E9020170470400002008B5024688
:102D7000FFF768FE38B1054B0548083233F81230CA
:102D80005B0B0B7008BD0348FCE700BF040000208C
:102D90000000AD0B0400AD0B38B50F4C94F8785023
:102DA000BDB96022294604F1100001F0B5F80620F3
:102DB000FEF720FD094B0A48C3F87C51D3F87C216B
:102DC0004FF00042C3F80423012384F8783063678E
:102DD00038BD0448FCE700BF04000020006000404C
:102DE0000000AD0B0500AD0B034B93F878000038E5
:102DF00018BF0120704700BF0400002001460148B1
:102E0000FFF770BD7400002001460148FFF746BD82
:102E10007400002037B50446FFF714FE04F10802E1
:102E20001E4B33F81230E8B113F002051AD15B0BD8
:102E30009A0002F1804000F5C24002F1804202F5A2
:102E4000C04205600068D2F8100540F00100C2F8E9
:102E5000100529B1012202FA03F3114AC2F8043322
:102E600003B030BDC3F38203042B12D0052B12D064
:102E700001A80194FFF7D8FD019BD0F81015D940A7
:102E800001F001010231204603B0BDE8304001F0FD
:102E9000D7B90321F7E70221F5E700BF04000020BE
:102EA0000060004008B50246FFF7CCFDC0B102F15A
:102EB00008010E4B33F81130990711D45B0B012236
:102EC0009A409B000A4903F1804303F5C043C1F8CF
:102ED0000823D3F8102522F00302C3F8102508BDFB
:102EE000BDE808400021104601F0AAB90400002006
:102EF000006000400E4B00F1080213B533F81230A9
:102F0000DB07044611D5FFF7CDFF2046FFF7ECFDA8
:102F100001A80194FFF788FD019B03F5E0730222ED
:102F200040F82320034802B010BD0348FBE700BF70
:102F3000040000200000AD0B0400AD0B2DE9F04FA4
:102F4000644B65486549002687B0012234461D68F8
:102F500035B1D0F8045315421EBF1C601D681643DE
:102F600004338B424FEA4202F1D1DFF86C81D8F88A
:102F70007C31002B00F091804FF0A043D3F8202546
:102F80000492C3F82025D3F820280592C3F82028FE
:102F900000270DF110097B0100934FF0010A49E071
:102FA000009B4F4A94FAA4F4B4FA84F41C4404F14C
:102FB0000803E00832F81330039404F007020AFA19
:102FC00002FC19F8002022EA0C0209F8002003A8EC
:102FD000C3F382059908FFF727FD039A02F5E07213
:102FE0004B0750F82220AB46C2F3014229D52046B8
:102FF0005946D5B2FFF730FD03A80394FFF714FD3F
:10300000039B03F5E07350F82330C3F301439D4263
:1030100007D10021204601F013F92946204601F08E
:103020000FF903A80394FFF7FFFC039B0AFA03F3CD
:10303000C0F8203559F82740002CB1D1CFB901276D
:10304000A9E7022A0CBF032102212046019201F0C8
:10305000F7F8032D04D0019A022A06D1012DE0D100
:1030600059462046FFF7F8FCDBE7032AD9D1022DA9
:10307000F5E7C8F87C41D8F87C311A494FF0A043F5
:10308000D3F820250492C3F82025D1F820350593E4
:10309000C1F8203513437FF47BAF012416B907B084
:1030A000BDE8F08F96FAA6F3B3FA83F304FA03F2BD
:1030B0009B0003F1804303F5C04326EA0206D3F8E0
:1030C0001005D3F81015C0F30520C1F30141FFF737
:1030D000C3FCE3E700610040006000402061004065
:1030E000040000200003005030B5002387B0012207
:1030F000CDE904230F22CDE9023201930C4C0D4B94
:103100000D49182204EBC01402FB00334FF4B075D4
:10311000009305FB0011094B4FF4A072204600F00C
:10312000A5F8637B23F00403637307B030BD00BFD1
:103130009800002060020020C006002089330000B3
:1031400008B50A4B012202201A7000F0CFFD01F0F1
:10315000A6F9032000F0CAFD00F0BAF801F09DF9CD
:10316000034A137B23F00103137308BD9902002067
:10317000180100200248034A0021121A00F0CCBEB8
:10318000980000209C02002080B5DFF8C080A6B027
:1031900088F308882E4D2F4E6B69DFF8BC9043F4FE
:1031A000007300246B61E02385F82230EC772C76E5
:1031B0006C76AC7685F820406B6A43F4E0236B6252
:1031C00085F82340FEF726FDFEF7F6FA4FF0FF33B1
:1031D000AB62EB62FEF7FCFDFEF764FD40F201130B
:1031E000ADF8243006ABB360CDE91F4401F058F9C7
:1031F000204600F07BFD0120184D00F077FD00F027
:103200001BFB174B0593012316490094CDE903439B
:103210004FF480624B46CDE901442846F56100F049
:1032200025F86A7B074622F0040228466A7301F0FB
:1032300078F82046FFF758FF0B4BF3604A463946B3
:1032400028463475C6F80480FEF7B8FB401000200D
:1032500000ED00E060020020413100001801002074
:10326000B1470000A0020020980000202DE9FF4196
:103270000E9E0673042646730D9E867300F1580554
:103280000F46D61DC0E916550C9A002526F00706F4
:103290002037C0E90655C0E919768560C573C56653
:1032A00006F1200802920B9A019288440A9A009231
:1032B00042460446FEF750FB044B65659B6803B12C
:1032C0001B6F2367404604B0BDE8F0816002002018
:1032D0002DE9F043294C2A4D87B02646AE4204F131
:1032E00030040FD300F006F9244CDFF898904FF427
:1032F000004640F2E737AC4220D307B0BDE8F043C8
:1033000000F07EBA54F8043C059354F8103C049342
:1033100054F8143C039354F8183C029354F81C3CA2
:10332000019354F8203C009354E90C0154E90A231A
:10333000FFF79CFF54F8303C5E65CEE7636A5A1C89
:103340000DD023EAE37300213846C3FB060151EA9E
:10335000C333D4F8008004D1404600F0AFF93034D4
:10336000C9E74FF47A720023FDF7CAFE02460B4606
:1033700008F11800494600F0CBFBF0E7940000206C
:10338000940000204343000008B5094C4FF0200290
:10339000EFF3118382F31288BFF36F8F01F04BF8C4
:1033A000A061FEF789F90028F0D1FEF70BFAEDE7EE
:1033B0006002002038B504464FF02003EFF311857A
:1033C00083F31288BFF36F8F01F007F848B1002232
:1033D000826700F0A6FF29460548BDE8384000F0A6
:1033E00077B8D4E902329A4218BF0133A360F2E7FA
:1033F0009A02002013B54FF02004EFF3118184F3FB
:103400001288BFF36F8F846844B1013C846081F3FC
:103410001188BFF36F8F002002B010BD52EA030481
:1034200006D181F31188BFF36F8F6FF00F00F3E7C0
:10343000CDE900230246024800F09CF9ECE700BF0A
:103440009A02002010B5084C23685BB1FFF7FCF826
:1034500003462068054A0344BDE81040136100217B
:1034600000F0F9BF10BD00BF9002002060020020F4
:10347000F8B504460D464FF02003EFF3118683F3B1
:103480001288BFF36F8F0F4B00214FF4004740F2BB
:10349000E73019614FF47A720023E4FB0701FDF76E
:1034A0002FFE002C084B09DC1860084B1D60FFF74D
:1034B000C9FF86F31188BFF36F8FF8BD0228B8BF2C
:1034C0000220F1E760020020900200208C02002020
:1034D00049B9EFF3058030B9054BDA699B689A4228
:1034E00001D0FEF7E5B981F31188BFF36F8F704704
:1034F000600200204FF02003EFF3118183F3128864
:10350000BFF36F8F044B9A68D37B013BD37381F376
:103510001188BFF36F8F70476002002038B50246F4
:103520000C480D4D00F0F7FE044600B9EC68AB689E
:103530004AB95A7BD20606D1A26922B9DA897F2A12
:1035400001D9EB6138BD9C4201D0FFF77BFFEC61F4
:10355000F8E700BF800200206002002070B590F9FB
:103560000D20437B002A014604DA03F07F034373F6
:1035700000F0A9FE4B7B154A63F07F034B73D2E941
:10358000083402F12005AB421BD0D3B191F90E6093
:1035900093F90E0086420FD0801B00280CDD58687E
:1035A000C1E90030016059609068431A5842BDE893
:1035B00070405841FFF7B2BFA34202D01B68002BF6
:1035C000E6D1C1E9005421605162EDE760020020BC
:1035D00038B501464FF02003EFF3118483F31288CE
:1035E000BFF36F8F154B164A98681568A84206D12D
:1035F000FFF728FF84F31188BFF36F8F38BD0025D4
:103600001560104A1268BAB1C2897F2A14D8427B69
:10361000D20611D10C4A90F90E50126895420BDB7C
:103620000A4A904208D01A698A4202DCFFF796FFE4
:10363000DEE7521A1A61DDE70022FBE76002002094
:1036400088020020900200208C02002098000020B8
:1036500070B490F90D20437B002A2ADBDA0628D1CA
:10366000826932BB144A63F07F034373D2E90834A2
:1036700002F12005AB4217D0B3B190F90E6093F977
:103680000E108E420BD0891B002908DD5A68C0E954
:1036900000321060586070BC0020FFF73FBFA342AB
:1036A00002D01B68002BEAD1C0E9005420605062B0
:1036B000F1E770BC704700BF6002002010B54FF00A
:1036C0002002EFF3118482F31288BFF36F8F427BE5
:1036D000510704D484F31188BFF36F8F10BD22F01B
:1036E00004024273FFF7B4FF21460248BDE81040D0
:1036F000FFF7EEBE9A02002008B590F90D20437B3B
:10370000002A014604DA03F07F03437300F0DBFD77
:10371000044B9868431A58425841BDE80840FFF7E7
:10372000FDBE00BF600200202DE9F04106461546AF
:103730001C464FF02003EFF3118783F31288BFF389
:103740006F8F00F020FE87F31188BFF36F8FB4F105
:10375000FF3F08BFB5F1FF3F08D02A46234606F1D8
:1037600018000349BDE8F04100F0D2B9BDE8F0818E
:103770004343000010B5074B9868074B0C46186090
:103780001146DDE90223FFF7CFFF2046BDE81040D8
:10379000FEF78EB8600200208802002070B5044653
:1037A000183000F032FE4FF02003EFF3118683F360
:1037B0001288BFF36F8F94F90D20637B002A05DA1E
:1037C00003F07F036373204600F07DFD0B4D637BA8
:1037D000A86843F010036373031B58425841FFF776
:1037E0009DFE86F31188BFF36F8FAB68A34203D1B0
:1037F000BDE8704000F085BD70BD00BF60020020D4
:1038000010B54FF02003EFF3118483F31288BFF358
:103810006F8F084B9A68D37B0133D3730020FFF777
:103820007DFE84F31188BFF36F8FBDE8104000F078
:1038300068BD00BF60020020044B002103F120029C
:10384000C3E908220846FFF713BE00BF600200204C
:10385000F8B54FF02003EFF3118583F31288BFF31F
:103860006F8F1A498868437B03F07F03437300F02E
:103870002AFD8B685A7B084662F07F025A7350F823
:10388000202F82421CD0DAB14F6A93F90E6092F970
:103890000E40A6420FD0A41B002C0CDD5168C3E9DA
:1038A00000210B6053600120FFF738FE2846BDE879
:1038B000F840FDF7FDBFBA4202D01268002AE6D1F7
:1038C0004A6AC3E9000213604B62ECE76002002021
:1038D00050EA01032DE9F04105460E4603D1FFF7FA
:1038E000B7FF002033E06FF00104241A4FF0FF33DC
:1038F00063EB0103012C73F1000302DA00F0C5FD54
:1039000044194FF02003EFF3118883F31288BFF3BB
:103910006F8F104F104BB8681860FFF7EDFEB86856
:103920000E492A463346183000F0F2F8BA68537B45
:1039300043F0100353734046FDF7BAFF00F0A5FDB6
:10394000201A63EB0303012873F10003C9DBBDE810
:10395000F08100BF60020020880200204343000085
:10396000B1F1FF3F08BFB0F1FF3F08B506D1084BEA
:103970009868FFF713FF4FF0FF3008BDFFF7A8FF6F
:103980004FF47A7380FB0303C00B40EA4340F4E733
:1039900060020020014B9868704700BF6002002061
:1039A0002DE9F04104464FF02003EFF3118683F335
:1039B0001288BFF36F8F437B1A0705D586F31188F2
:1039C000BFF36F8FBDE8F08123F0200242F00801C1
:1039D000D20920D14173A36813B1204600F07BFCCB
:1039E00004F1180000F011FD04F158074FF0000831
:1039F000A56DBD4200D0B5B90120FFF78FFD104B7A
:103A00009B68A342DAD1EFF30583002BD6D1304671
:103A1000FDF74EFFD2E703F05F0343F00803437363
:103A200000F051FCD7E7284600F055FC05F11800DE
:103A300000F0EBFCC5F878802846FFF709FED7E7D1
:103A40006002002008B50648064A0749121A00F02D
:103A500058FABDE80840054A0549064800F051BA41
:103A60000000002094000020B84700000000000083
:103A7000B847000000000020034B1B680BB9FEF79D
:103A8000E3BD0020704700BF94020020114B10B529
:103A90001C689C4208BF0024FFF7EEFF03466CB190
:103AA000D4E90402C01A62EBE373012873F1000247
:103AB0000DDBB0F1004F73F1000301DB6FF000404C
:103AC000054B1B6913B19842A8BF184610BD0020D2
:103AD000F6E700BF800000206002002030B50368D8
:103AE00068B10A4A5268904209D043B1D3E904212F
:103AF000D0E90445121941EB0501C3E904214268EC
:103B000013605A600023C0E9003330BD80000020FC
:103B1000B3F1FF3F08BFB2F1FF3FF8B504461F46BF
:103B2000154667D081604FF02003EFF3118683F3D1
:103B30001288BFF36F8F6FF00102531B4FF0FF3CF1
:103B40006CEB0703002B1BDB2B4BD3E90013521A42
:103B50006CEB0303551B63EB0703012D73F10002AC
:103B6000BCBF01250023C0E904532448D0E9003C30
:103B7000834218D1C4E9000CCCF80040446026E030
:103B8000FFF77AFF013547F100072D1847EBE07783
:103B9000C4E90457E9E7521A65EB07059C45C4E9F7
:103BA0000425E7D01B68002BE4D0D3E90417D4E93F
:103BB00004258A4275EB070EEDDA8A1A67EB0505D4
:103BC000C3E904255A68C4E9003214605C600368E4
:103BD00083420BD09C4209D1FFF758FF18B1084B24
:103BE0001B69834202D00021FEF7FCFC86F311889A
:103BF000BFF36F8FF8BD00BF980100208000002048
:103C0000600200202DE9F8430546FFF7E1FC4FF084
:103C10002003EFF3118483F31288BFF36F8F244ED8
:103C2000DFF890803560244DD8F8000032684045B8
:103C3000D5E9001E4FEAE2770BD050B1D0E9043C41
:103C40009A4277EB0C0916DA9B1A6CEB070CC0E969
:103C5000043C52184EEB0707C5E9002700253560E4
:103C6000FFF714FF2946FEF7BDFC84F31188BFF36C
:103C70006F8FBDE8F88359184EEBE377D31A3360A2
:103C800000220023C0E90423C5E90017FFF726FF3F
:103C900084F31188BFF36F8F836898474FF0200338
:103CA000EFF3118483F31288BFF36F8FBCE700BF7B
:103CB00094020020800000209801002010B54FF0F1
:103CC0002003EFF3118483F31288BFF36F8FFEF7A5
:103CD000BBFC054AD2E90031C01841F1000184F370
:103CE0001188BFF36F8F10BD980100200E4B70B587
:103CF00053F82040013053F82060A64200D870BD30
:103D0000D4E900352846984765B1EB6830B1002802
:103D1000B8BF4042FF28A8BFFF2018705A7842F071
:103D200001025A700834E8E768470000704703460C
:103D300058B1426802F00302012A03D0032A04D1D9
:103D4000026812B10020986070476FF0150070474C
:103D50004268816002F00302032A4FF0000203462A
:103D60000CBF006810465A607047038B13F00703BE
:103D700005D10368002B0CBF002003207047022BE5
:103D800005D1438B002B14BF002004207047012B6A
:103D900005D10368002B0CBF0020052070470020D0
:103DA00070472DE9F0410D4607461946281D9046FB
:103DB0001E46FFF7CDFF044638B13346424629463A
:103DC0003846A446BDE8F0416047BDE8F08110B434
:103DD0004FF02004EFF3118284F31288BFF36F8F4A
:103DE000416110BC0121FDF7F9BA10B50C4640B194
:103DF00039B1081DFFF79BFF28B9A36833F003030F
:103E000001D06FF0150010BD38B50C46054658B10D
:103E100051B10B6843B14B6833B11C22002100F053
:103E20007BF82C61002038BD6FF01500FBE770B502
:103E300004460E46FFF7D9FF051E31DB4FF0200385
:103E4000EFF3118183F31288BFF36F8F638B208BA5
:103E50004FF6FF75AB4200F007022ED0022A0ED1BA
:103E6000013363831546012381F31188BFF36F8FFC
:103E7000B3B1002331462046FFF793FF10E08307DC
:103E800001D0062A0ED100233360636893B9C4E9D8
:103E90000066154662B90A4620460221FDF79EFAE1
:103EA000284670BD052A0CBF6FF085056FF004052C
:103EB0000023D9E71E606660EBE76FF00A05F7E7BD
:103EC000044608B5084611461A46A047FFF762FDAA
:103ED000FDF7D6FE70470022C0E9002282607047DD
:103EE00000F0C9B90146006800F0C5B90021012001
:103EF000FFF7F6BF08B5FDF7B3FCBDE80840FDF7D6
:103F000093BD10B5431E0A44914200D110BD11F873
:103F1000014B03F8014FF7E7C9B20244034693424D
:103F200000D1704703F8011BF9E784B004AB03E943
:103F300007009DF80430062B08D14FF08043012282
:103F4000C3F80025BFF34F8F20BFFDE704B07047D3
:103F500084B004AB03E90700002383F31188BFF3A7
:103F60006F8F04B070470369C9B20C2201FB0233A2
:103F7000186C00F0070070474FF02003EFF3118238
:103F800083F31288BFF36F8F036803F0C00343F01D
:103F90000203036082F31188BFF36F8F70470346FB
:103FA00070B50069C9B24FF02004EFF3118684F3B5
:103FB0001288BFF36F8F0C2505FB0104246C14F0ED
:103FC000C00401D0A24210D105FB0100012202640D
:103FD000002086F31188BFF36F8F28B95B6803EB6D
:103FE000C1014B689847002070BD4FF0FF30F0E7EB
:103FF0008022FFF7D4BFF8B5069F04690546C9B211
:104000004FF02000EFF3118C80F31288BFF36F8F15
:104010000C2606FB0146306C00F0070EBEF1010FC6
:1040200011D1376400268CF31188BFF36F8F46B926
:104030000C2000FB0144C4E90E236B6853F83130B7
:1040400098473046F8BD00F0C000874214BF4FF0DB
:10405000FF366FF07706E6E713B580240094FFF78C
:10406000CAFF02B010BD006910B4CBB21C2403FB20
:104070000400002110BC1047002000F06EB80020A2
:10408000FEF762BC1046FFF795B943685B68D3F84A
:1040900010350B600020704743685B68D3F8040557
:1040A00042400A404240C3F804250020704743685C
:1040B0005B680020C3F80815704743685B68002000
:1040C000C3F80C15704743685A68D2F804354B4062
:1040D000C2F80435002070470369586830B558B1FC
:1040E0000024814212D108689D6854B98D425860FD
:1040F00000D19860002008606AB9002030BD2846D1
:10410000EFE78D42206008BF9C60F3E70568044636
:10411000002DF4D13AB198685A680A6059600028B5
:10412000EBD19960EAE76FF01500E7E770474FF0D1
:104130008053D3F83001A0F108035842584170472A
:10414000004700F0A6B908B50020FDF763FB18B9D9
:10415000BDE80840FDF74EBB08BD10B101281DD0D9
:1041600070474FF08043D3F81824D3F81814C903CC
:1041700012D502F00302012A0ED1C3F818254FF020
:1041800080430022C3F80421D3F804210222C3F89B
:10419000042301229A6070470022EEE74FF080432B
:1041A0000022C3F80021D3F80021C3F804031860EB
:1041B0007047F7B5019001A8DDE9084617461D468E
:1041C000FEF732FC019B002F00EB830014BF02239B
:1041D0000023002918BF43F00103002D14BF4FF046
:1041E0000C0C4FF0000C002C43EA0C0314BF4FF4EE
:1041F000E06C4FF0000C002E43EA0C03D0F80027CF
:1042000014BF4FF4403C4FF0000C43EA0C0322EA89
:10421000030301B109780FB13F787F0019430DB155
:104220002D78AD0039430CB1227814020D430EB144
:10423000367836042C433443C0F8004703B0F0BD51
:104240001FB50DF10F03019300238DF80F1000939C
:104250001A461946FFF7ADFF05B05DF804FB4FF0B5
:104260002002EFF3118382F31288BFF36F8FFEE712
:1042700008B5FFF7F4FFF8B505460E464FF02003EA
:10428000EFF3118783F31288BFF36F8FFFF782FB81
:10429000314604462846FFF7EBFF87F31188BFF34A
:1042A0006F8F2046BDE8F840FDF7EABCEFF30580CC
:1042B000003818BF0120704708B5FDF7B9F9BDE80F
:1042C0000840FFF733BFD0E9003213605A60002383
:1042D000C0E90033704708B5FFF7F5FF437B23F0D3
:1042E000020343730023836008BD034620B9EFF344
:1042F00005820AB9FDF7DCBA83F31188BFF36F8F2B
:1043000070474FF02003EFF3118083F31288BFF35F
:104310006F8FFFF7EABF03460068834208BF0020A3
:10432000704710B54FF02003EFF3118483F3128828
:10433000BFF36F8FFFF78CF984F31188BFF36F8F92
:1043400010BD10B501464FF02003EFF3118483F345
:104350001288BFF36F8F10F80B3C13F0280F0DD1AC
:1043600051F8103C18380BB1FFF7B5FF11F80B3CB2
:1043700023F0140301F80B3CFFF76AF984F311886A
:10438000BFF36F8F10BD38B504460D46FFF7B4F983
:10439000637B43F00203637395B12B68A5609D4274
:1043A00015D0A3B194F90E1093F90E20914208D0C4
:1043B000521A002A05DD5A68C4E9003214605C60B4
:1043C00038BD6A68934202D01B68002BECD16B6841
:1043D000C4E900531C606C60F2E738B54FF020036D
:1043E000EFF3118583F31288BFF36F8FFFF793FF0D
:1043F000044620B1FFF76FFF183000F006F885F390
:104400001188BFF36F8F204638BD10B54FF02002E2
:10441000EFF3118482F31288BFF36F8F03683BB10F
:10442000FFF75CFB002084F31188BFF36F8F10BD92
:104430006FF01500F7E710B54FF02003EFF311848C
:1044400083F31288BFF36F8FFFF720FB84F311888B
:10445000BFF36F8F10BD70B504460D464FF02003BB
:10446000EFF3118683F31288BFF36F8FFFF70EFB14
:10447000012805DDA04203DB29462046FEF7B2F8FD
:1044800086F31188BFF36F8F70BD08B5FFF716FC78
:1044900008BD08B1FDF7FCBC704700BF704770470E
:0844A00070470000FEF70AB9A5
:0844A8008CCCFF7F0100000035
:1044B000311E000000000000951F0000E0440000D5
:1044C000A51E000000000000D522000010450000DD
:1044D000D5220000F8440000A524000000000000E0
:1044E000914700000C470000F446000088000020BF
:1044F000D8010020B44600009E4700004C47000051
:10450000284700009000002030020020AE46000046
:104510009747000058470000284700008C00002003
:084520003C020020A846000047
:10452800C12900004141000000000000ED3E0000EC
:1045380000000000ED3E000000000000ED3E00001D
:1045480000000000ED3E000000000000ED3E00000D
:104558003D2F00004141000000000000ED3E00003A
:1045680000000000ED3E000000000000ED3E0000ED
:1045780000000000ED3E000000000000ED3E0000DD
:1045880000000000ED3E000000000000ED3E0000CD
:1045980000000000ED3E000000000000ED3E0000BD
:1045A80000000000ED3E000000000000852500002E
:1045B80000000000ED3E000000000000ED3E00009D
:1045C80000000000ED3E000000000000ED3E00008D
:1045D80000000000ED3E000000000000ED3E00007D
:1045E80000000000ED3E000000000000ED3E00006D
:1045F80000000000ED3E000000000000ED3E00005D
:1046080000000000ED3E000000000000ED3E00004C
:1046180000000000ED3E000000000000ED3E00003C
:1046280000000000ED3E000000000000ED3E00002C
:1046380000000000ED3E000000000000ED3E00001C
:1046480000000000ED3E000000000000ED3E00000C
:1046580000000000ED3E000000000000ED3E0000FC
:1046680000000000ED3E000000000000ED3E0000EC
:1046780000000000ED3E000000000000ED3E0000DC
:1046880000000000ED3E000000000000ED3E0000CC
:1046980000000000ED3E000000000000ED3E0000BC
:1046A80000800080FF7F00800080FF7F0080008006
:0246B800FF7F82
:0646BA00FFFFFFFFFFFF00
:1046C0000338FDD870470000000000200000000003
:1046D00000000B0602000000DC46000000000000A5
:1046E0007C470000260002070000002084470000ED
:1046F00022000B11A9200000F13F000059400000EA
:1047000000000000673F000000000000452000009E
:10471000DD200000794000007F400000511F0000B4
:10472000211F000000000000512300008B4000000A
:1047300099400000AF400000BB400000C7400000AF
:1047400009220000D940000000000000FFFFFFFF29
:104750000000005000000000FFFF000000030050B8
:1047600001000000F5FFFFFFB0440000D844000046
:10477000E0440000E0440000E0440000464C4153A7
:10478000485F30005352414D5F300000000100008F
:1047900000434C4F434B004750494F5F3100475057
:1047A000494F5F30000000000000010100000000E0
:0847B000006D61696E0000005C
:1047B8000090D0030000000000000000000000008E
:1047C80000000000000000000000000000000000E1
:1047D80000000000000000000000000000000000D1
:1047E80000000000000000000000000000000000C1
:1047F80000000000000000000000000000000000B1
:1048080000000000000000000000000000000000A0
:104818000000000000000000000000000000000090
:1048280000000000FF000000000000000000000081
:08483800800000208000002038
:0C4840000000000000000000000000006C
:0400000300001C518C
:00000001FF
