:10100000002000202936000073880000FD35000014
:10101000FD350000FD350000FD350000000000003A
:10102000000000000000000000000000113300007C
:10103000FD35000000000000BD320000FD3500005D
:10104000C1330000C1330000C1330000C1330000D0
:10105000C1330000C1330000C1330000C1330000C0
:10106000C1330000C1330000C1330000C1330000B0
:10107000C1330000C1330000C1330000C1330000A0
:10108000C1330000C1330000C1330000C133000090
:10109000C1330000C1330000C1330000C133000080
:1010A000C1330000C1330000C1330000C133000070
:1010B000C1330000C1330000C1330000C133000060
:1010C000C1330000C1330000C1330000C133000050
:1010D000C1330000C1330000C1330000C133000040
:1010E000C1330000C1330000C1330000C133000030
:1010F000C1330000C1330000C1330000C133000020
:1011000053B94AB9002908BF00281CBF4FF0FF316E
:101110004FF0FF3000F00CB8ADF1080C6DE904CED3
:1011200000F008F8DDF804E0DDE9022304B07047C0
:10113000704700BF2DE9F04F07468C460846099ED0
:1011400015463C461946002B40F0C6808242B2FA52
:1011500082F746D94FB1C7F1200E24FA0EFE00FAED
:1011600007F3BD404EEA030CBC404FEA15481FFA96
:1011700085FEBCFBF8F9220C08FB19C309FB0EFA2B
:1011800042EA03439A4528D9EB1809F1FF3004D20B
:101190009A4502D9A9F102002B44A3EB0A03A4B299
:1011A000B3FBF8F208FB123302FB0EFE44EA0344E1
:1011B000A64514D92C1902F1FF3303D2A64501D953
:1011C000931E2C44A4EB0E0443EA00401EB1FC40E5
:1011D000002334607360BDE8F08F4846DDE71346B6
:1011E000F0E702B9FFDE87BB831A01214FEA154EF3
:1011F000AAB2B3FBFEFC200C0EFB1C330CFB02F866
:1012000040EA0343984563D9EB180CF1FF3004D250
:10121000984502D9ACF102002B44A3EB0803A4B219
:10122000B3FBFEFC0EFB1C330CFB02F244EA03444E
:10123000A2424FD92C190CF1FF3304D2A24202D999
:10124000ACF102032C44A41ABEE7C7F1200C20FA2B
:101250000CF800FA07F324FA0CFCBD404CEA030238
:101260004FEA154EABB2B8FBFEFC110C0EFB1C8016
:101270000CFB03F941EA0040814504FA07F423D945
:1012800028180CF1FF3104D2814502D9ACF10201DA
:101290002844A0EB090092B2B0FBFEFC0EFB1C0040
:1012A0000CFB03F842EA004398450FD9EB180CF108
:1012B000FF3204D2984502D9ACF102022B44A3EBD1
:1012C000080342EA014191E76146E2E76246F6E738
:1012D0006046A2E76346B6E7834205D90EB1C6E988
:1012E00000700021084676E7B3FA83F181B98342A2
:1012F00001D3BA420AD8BC1A60EB030301209C4612
:10130000002E68D0C6E9004C002164E70846F7E7E4
:10131000C1F1200C8B4022FA0CF41C4302FA01F5B7
:1013200000FA01F327FA0CF220FA0CFB4FEA1449F9
:101330001343BBFBF9F81FFA84FE09FB18BB1A0C18
:1013400008FB0EFA42EA0B42924507FA01F73ED932
:10135000A21808F1FF3004D2924502D9A8F1020088
:101360002244A2EB0A029BB2B2FBF9F809FB182255
:1013700008FB0EFE43EA024296452AD9A21808F15C
:10138000FF3304D2964502D9A8F10203224443EA6E
:101390000040A0FB0593A2EB0E029A42CE4698466F
:1013A00002D306D14F4504D2B9EB050E63EB040816
:1013B000013886B1B7EB0E0362EB080707FA0CFCA5
:1013C000CB404CEA0303CF40C6E900379CE74046D8
:1013D000C7E74346DBE73146FDE600002DE9F34170
:1013E000204805F06BFB0446002838D0026981686C
:1013F000136843F0400313600B6840F2016206215A
:10140000984700282BDB0020019001F083F830BBC7
:10141000154883681B6D13B101AA04219847DFF8B2
:101420004C80134F012523691B6885F0010613F0DA
:10143000400F18BFF5B27DB1A368DB68402120469C
:1014400098474146384606F0D0FCF5B200214FF4EB
:10145000004006F069FAE6E7A3681B69EEE702B010
:10146000BDE8F081509C000060980000579C00008F
:101470006F9C00000B6801330B60014B1B68184721
:1014800000000020014B1860704700BF00000020E2
:1014900007B50B46002102460191034801A900F05F
:1014A000E5F803B05DF804FB751400002DE9F84F72
:1014B000B0F8189019F00808044693460DD0012999
:1014C0000CBF49F0100949F02009A0F818908BF3DF
:1014D0001188BFF36F8FBDE8F88F09F00709022963
:1014E00007D1204606F0A8FC0028F0D00128238B65
:1014F0004ED16769218B002F15DA256821F007018D
:10150000C4E9008841F0010121830026218B01F00C
:10151000070ACA4502D0A368002B5AD10DB9002E84
:1015200071D0002356E001F007035A1F012A1ED88C
:1015300021F00701062B256889B2C4E900880AD189
:101540003DB1638B2A46126801339BB2002AFAD15F
:10155000638341F002012183204606F06DFC0646BC
:101560000028D3D0238B43F020032383CDE7042B23
:101570000CD121F0070189B22183204606F05CFCE2
:1015800005460028C1D041F0200121830025BCE799
:10159000032809D1226923F00703166843F00603E4
:1015A000238300252F46B1E7042806D1226923F0C2
:1015B0000703566843F00403F2E7052806D12269C1
:1015C00023F00703966843F00503E9E700252E465C
:1015D000E8E7012341F0080121838BF31188BFF371
:1015E0006F8FFBB985BB16B11F492046B0474FF03E
:1015F0002003EFF3118B83F31288BFF36F8F238BDC
:1016000023F008032383238BDA0625D523F0100368
:1016100023830121B4F8189009F0070900297FF409
:101620005EAF54E7A1680029DCD0D1F80090D1F872
:1016300004B03B4652462046D847B9F1000FD1D0FE
:101640004946D9F80090F2E729463B4652462046E3
:101650002D6806F00DFCC5E713F020011EBF23F036
:10166000200323830221D5E79D7E00002DE9F04F62
:1016700091B08B46029092461C4600259AF80000D5
:1016800008B928465FE325280AF1010707D0029B25
:10169000594698470028C0F25683013512E21822B5
:1016A00000210AA807F013F99AF80130252B78D009
:1016B00000221046964694461646394617F8013BD6
:1016C0002B2B00F09D8000F29480202B00F09B805B
:1016D000232B00F09B802EB19DF8306046F004066D
:1016E0008DF83060BCF1000F05D09DF8306046F0F9
:1016F00008068DF83060BEF1000F05D09DF830600F
:1017000046F010068DF8306028B19DF8300040F0AA
:1017100020008DF830002AB19DF8302042F04002C0
:101720008DF830209DF8302002F04400442803D189
:101730006FF386128DF830209DF830202A2B42F06E
:1017400080028DF830207BD19DF8312042F00102DB
:101750004B1C8DF831201A782E2A9DF831200CBFB1
:101760000121002161F341028DF8312074D15A78B2
:101770002A2A6AD0013300210A26184610F8012BC4
:10178000A2F13007092F40F28E809DF830200E9193
:10179000C2F3400040EAD17161F341028DF830207C
:1017A0005AE00AF102078DF833309DF83130D9073D
:1017B00040F1498154F8049BB9F1000F07DA9DF814
:1017C000302042F004028DF83020C9F100095A0798
:1017D00040F1428154F8048BB8F1000F80F241814E
:1017E0009DF831306FF341038DF831304FF0FF3801
:1017F00037E12D2B0CD0302B7FF46DAF01225CE74D
:101800004FF0010C59E74FF0010E56E7012054E765
:10181000012652E70CFB0202303A33461E4616F808
:10182000010BA0F13007092FF4D9994293D09DF80C
:1018300030100D92D20F62F341018DF830108AE71B
:101840000B4600224FF00A0CE8E79DF8312042F0E9
:1018500004028DF8312002331F4617F8012B6C2A41
:1018600041D025D8682A2BD06A2A46D04C2A4CD0A1
:101870001F4617F8012B9DF831308DF83320782A58
:1018800000F2D980572A4DD8412A03D0453A022A7E
:1018900000F2D1809DF83230042262F302038DF809
:1018A000323001239EE006FB01213039034664E714
:1018B000742A26D07A2ADBD19DF8313006220DE039
:1018C0005A78682A9DF8312006D1012161F3C602B9
:1018D0008DF831209F1CCCE71346022262F3C60329
:1018E0008DF83130C5E75A786C2A9DF8312001D146
:1018F0000421EBE713460322F0E79DF8313005227F
:10190000ECE79DF831300722E8E7BDF8303023F4EA
:10191000F04323F0020343F4804343F00203ADF8A5
:101920003030A6E7A2F15801202900F2848001A0FE
:1019300050F821F0F9190000371A0000371A00009A
:10194000371A0000371A0000371A0000371A000053
:10195000371A0000371A000095180000371A0000E7
:10196000F9190000B9190000951800009518000039
:1019700095180000371A0000B9190000371A000046
:10198000371A0000371A0000371A0000011A000049
:10199000F91900001D1A0000371A0000371A00005C
:1019A0001D1A0000371A0000F9190000371A00004C
:1019B000371A0000F91900009DF83210012003F0D9
:1019C000780360F30201402B8DF8321002BF9DF8BE
:1019D000301041F001018DF83010632A31D1003B05
:1019E00018BF01239DF83020C2F340010B4363F37D
:1019F00041028DF83020D8E69DF832100220DEE753
:101A00009DF8322003F07803A3F14000032161F335
:101A1000020243428DF832204341E3E79DF8322031
:101A2000032113F0780F61F302028DF8322014BF06
:101A300001230023D6E79DF8303043F001038DF8F1
:101A400030300023CEE79DF93020002AB4BFDDF806
:101A500034904FF0FF39BAE69B077FF5C7AEDDF84B
:101A600038809DF831100023CDE90D339DF83230D8
:101A700003F00703012BC1F3C30138D1CB1E042BA4
:101A800022D8DFE803F003090921210054F8043BC0
:101A9000DA17CDE90A3206E0073424F00704F4E847
:101AA0000223CDE90A239DF8303013F0030656D007
:101AB00002983B465246594606F0C0FC0028C0F248
:101AC00042810544BA46D9E554F8043B01294FEA5E
:101AD000E372CDE90A3205D19DF828300A9300233C
:101AE0000B93E0E70229DED1BDF92830D0E7022BC5
:101AF00023D1CB1E042B13D8DFE803F0030A0A120C
:101B0000120022680A920023201D0B930446CAE7A4
:101B1000E01D20F00700F0E80223CDE90A23F5E7F5
:101B200054F8043B0A9301294FF000030B93D3D0E0
:101B30000229B8D1BDF82830D0E7042B09D1E31D24
:101B400023F0070303F10804D3E90023CDE90A23B6
:101B5000A9E7032B04BF54F8043B0A93A3E79DF8BD
:101B600033007828AED8622822D825283FF48FADDC
:101B70005828A7D10DF126030093DDE90A0104AB33
:101B80000CAA06F015FC8246B8F1000F0DF12600F4
:101B90000CDB9DF83020A0EB0A036FF3861298450A
:101BA0008DF8302002D9A8EB03030D9380463DE069
:101BB0006338152886D801A252F820F03D1C000099
:101BC000A11C0000C51A0000C51A0000C51A0000BB
:101BD000C51A0000A11C0000C51A0000C51A0000AB
:101BE000C51A0000C51A0000FB1C0000C91C00003B
:101BF000CD1C0000C51A0000C51A0000151C00000D
:101C0000C51A0000C91C0000C51A0000C51A000052
:101C1000C91C0000B8F1000FDDF828A00ADB41461E
:101C2000504606F034FE0AEB00080026BAF1000F19
:101C30000CD147E7504606F023FEF4E70A9B8DF8E7
:101C4000103000260DF1100A0DF11108A8EB0A035F
:101C500006B101339DF83220D00668D50233520612
:101C60000D9948BF0E9A0B4448BF9B18B9F1000F5D
:101C700076DD9DF83020A9EB0309C2F380030393BE
:101C800053076DD4500661D546B1029B5946304684
:101C90009847002857DB039B01351E46302356E04A
:101CA0001E070FD413F0100618BF2026DDE90A2303
:101CB000002BBFF65FAF524263EB4303CDE90A232B
:101CC0002D2657E72B26F1E7002653E70A9840B365
:101CD0000DF1260300930CAA04AB002106F068FB6B
:101CE000BDF8323003F0EF0343F4F04343F0100348
:101CF0008246ADF83230002646E70A9B07293FF6B8
:101D0000E1AEDFE801F00C04060C08080C0C1D70B5
:101D1000D8E61D80D6E6EA17C3E90052D2E61D6078
:101D2000D0E6DFF8C8A006460AF105088EE71107DD
:101D300048BF013393E7184603935946029B9847DF
:101D40000028039B04DA11B0BDE8F08F20234D4436
:101D50004A46002AA5EB090109F1FF39EBDC0D46E3
:101D600036B1029B5946304698470028EBDB0135D7
:101D70009DF83230D90601D41A0706D5029B594680
:101D8000302098470028DEDB01359DF83230DB0635
:101D900007D59DF83300029B594698470028D2DBAF
:101DA00001350D9E2E44731B002B16DC0298434612
:101DB0005246594606F042FB0028C4DB0544A944BC
:101DC000A9EB0503002B7FF77DAE029B594620202F
:101DD00098470028B7DB0135F2E7029B59463020CF
:101DE00098470028AFDB0135DDE700BF809C00008D
:101DF0000C4BF0B45F6A0C4E0C4BB34203D36FF044
:101E00008500F0BC70475D68BD4209D31C693CB1D8
:101E100095F802C00579AC4502D12346F0BC1847BD
:101E20002433EAE7C0050020D8020020B4020020D5
:101E30002DE9F047134CDFF85080DFF8509005464D
:101E40000E461746444503D36FF08500BDE8F08782
:101E50006268D9F824309A4212D3A36983B190788A
:101E60002979884205D13A4631462846BDE8F047EF
:101E700018475279012A03D13A46314628469847F5
:101E80002434DFE7B4020020D8020020C00500207F
:101E90002DE9F0410B4CDFF8308005460E46174621
:101EA000444502D36FF0850009E063690BB924341F
:101EB000F6E73A463146284698470028F7D1BDE86C
:101EC000F08100BFB4020020D802002007B583785B
:101ED0008DF800300379427943EA0223ADF80230ED
:101EE000C378684603F003038DF8043002F0B2F8BB
:101EF00010F1780F04D018B1002003B05DF804FB96
:101F00009DF8000002F02CF910F1780F01D00028A4
:101F1000F2D1024B012083F8B900EEE7C0050020A2
:101F200002480822002106F0D2BC00BF7B06002038
:101F300070B50B4B0B4CA34201D3002070BD196A46
:101F40001E7F00220439D5B2AE4201D82433F2E715
:101F5000013211F832508542F5D10120EEE700BF81
:101F6000B4020020D8020020094808B50378C3F362
:101F700041130A3350F823303BB100F1080200F15D
:101F800010019847C043C00F08BD1846FCE700BFCA
:101F9000C005002004282DE9F047DFF880800446C2
:101FA0000E460CD1FFF7BCFFDFF8749099F8B930FA
:101FB0003BB100F0A9FD042C03D11A4D14E0052813
:101FC000F2D0184D45451ED3154B1B6A1BB3314645
:101FD0002046BDE8F0471847D5F820A000272A7F03
:101FE000FBB29A4203D824354545F5D307E00AEB06
:101FF000C3030137187902F0DDF80028EFDA002377
:1020000089F8B930DDE7EB681BB132462146284636
:1020100098472435D6E7BDE8F08700BFD8020020F6
:10202000C0050020B402002073B5C4B263060D469B
:102030008DF8074007D02046FFF77AFF88B10F4B95
:1020400093F8BA0068B10D4E204665B102F024F84D
:10205000F3690BB9012004E008200DF1070198474E
:10206000284602B070BD02F03FF8F369002BF1D0B2
:102070000DF1070109209847ECE700BFC0050020DB
:102080002DE9F047A84EB36905460F46904663B95F
:10209000287800F01F00012800F0A680022800F038
:1020A0000E8138B16FF0150095E098470028EFD108
:1020B000002090E095F900206B78002A31DA062B99
:1020C000D8F8002010D0082B25D0002BEAD1012110
:1020D0005370117096F8C310002918BF022343F003
:1020E0000103137002231AE06B881A0A111F0129D9
:1020F000D8D9072AD6D8D9B2736A1C78002CD1D087
:102100005D78954203D1814200F012810130234471
:10211000F3E71B7812E196F8BA30137001233B60A5
:1021200059E0013B082BBDD801A252F823F000BFB3
:10213000C9210000A5200000DB210000A52000002F
:1021400055210000A5200000A5200000A5200000CA
:1021500061210000A87801F06BFF0028A8D0A1E75A
:102160006C8844B14FF0FF08776A0020C1463C7884
:102170006CB9002896D0FFF7D3FE6B8886F8BA308A
:10218000F369002B94D069490320984790E77B7846
:10219000042B0CD0052B0DD0022B05D197F8058010
:1021A0006A88424508BF01203B781F44DFE797F863
:1021B0000390F9E76B884345F6D1B9F1000FF3D1ED
:1021C0003846FFF783FEEFE76B88012B7FF46AAF99
:1021D000002086F8C300BDE8F0876B88012B7FF4F0
:1021E00061AF86F8C33063E796F8BA30002B3FF44E
:1021F00059AF746AB5F804C0287923461A78002AC2
:102200003FF450AF5978022904D193F804E0864591
:1022100000F296801344F1E7107050703960DAE7ED
:102220000C449BE00B287FF43DAF00274FF0FF0AE2
:10223000D046B94606E06378042B0FD0052B22D098
:1022400023781C442378002BF5D1F36913B1494658
:1022500007209847002F7FF42BAF23E794F802A0C4
:10226000AA8894F8038092455346E9D16988884545
:102270001FFA88F2E4D1072B1ED83344A14683F815
:10228000BB200127DCE7AB885345D9D1AB78434568
:102290000DD0A778384600F019FC384601F08AFFC7
:1022A00010F1780FEDD0B0FA80F77F09C8E720462B
:1022B000FFF70CFE0746C3E7A1460027C0E795F9E4
:1022C00000206B78002A19DA002B7FF4EBAE2C7912
:1022D00063060AD02046FFF72BFE00283FF4E2AE4B
:1022E00096F8BA30002B3FF4DDAED8F80050204607
:1022F000294601F019FF00206870F3E6012B08D091
:10230000032B7FF4CFAE6B88002B7FF4CBAE012183
:1023100003E0698800297FF4C5AEA888FFF784FE32
:1023200000287FF4C5AEBDE6C00500207A06002077
:10233000022AC8F800307FF4ECAE5B883B60B7E659
:1023400095F900306878002BBFF66CAFD8F8002004
:1023500000283FF461AF0A287FF4A4AE2178002959
:102360003FF4A0AE6378042B7FF45AAFA3789C456A
:102370007FF456AF072B96BF9B19002393F8BB3011
:1023800013700123DAE700BF13B5134C237DC3B9E3
:10239000E268A168019201AB802006F034F901994E
:1023A000A268E3680A445B1AA260E3603BB9236950
:1023B000E2889A4203DD9B0601D10123237502B016
:1023C00010BD00231A4619468020237502B0BDE8CF
:1023D000104001F015BF00BFC005002030B585B02A
:1023E000002302460D46019300285FD100293CD10D
:1023F00008220B460DEB020106F0C2FA002804DAAF
:10240000802001F049FE05B030BD2D4C9DF809300B
:102410009DF808206370BDF80A306380BDF80C3069
:102420002270A38004F13801BDF80E30E38012065B
:10243000C4E90355A16025750AD4802B04D98020F6
:1024400001F02AFE0020DCE713B1C4E90333DAE728
:10245000FFF78AFD0028D3D0E28823699A42D4BFCF
:10246000E260E360FFF790FFCDE7154CD4E9021579
:10247000002D01AB04DC06F083FA0028C3DABFE7C5
:102480002A4606F07DFA0028D9DB0199A268E368A4
:102490000A445B1AA260E360002BB4D104F1380354
:1024A000A360FFF761FD0028DCD1A9E78028AAD14D
:1024B000034BDA68002AD5D11B7D002BD2D1A2E7CD
:1024C000C0050020054B064A9A62064ADA62064AAF
:1024D0001A63064A58629A6100207047C0050020BE
:1024E00081200000F11D0000911E0000311E00003F
:1024F000074B10B593F8B84024B900F09DF918B116
:10250000FFF7E0FF002010BD4FF0FF30FBE700BFFA
:10251000C00500202DE9F3410446344D34484FF006
:10252000FF324FF0FF3304F0D5FC95F8B860002E71
:102530003ED130482C62E86101F078FF01F03AFDAD
:10254000041E36DB00F008FB041E32DB4023684625
:10255000ADF802308DF804608DF8006001F07AFD6E
:10256000041E26DB802768468DF8007001F072FD9E
:10257000041E1EDB2049304601F044FF041E18DB18
:102580001D49384601F03EFF041E12DB1B4CDFF8EC
:102590007080444514D3002001F0E2FD041E08DBE6
:1025A000802001F0DDFD041E03DB012385F8B83037
:1025B00000240F4804F006FD204602B0BDE8F0817B
:1025C000276A0026227FF3B29A4201D82434E0E73A
:1025D00007EBC30257F83310107901F013FF0136EF
:1025E0000028EFD04FF0FF34E3E700BFC005002024
:1025F000C8010020951F0000DD230000B402002068
:10260000D802002030B51E4B8BB005AA03F110058F
:1026100018685968144603C40833AB422246F7D100
:102620001B7823701022002101A806F050F9122215
:102630000021144806F04BF9102101A806F092FA87
:1026400000281ADD083801AA0E490028A8BF121870
:10265000002012F8013B0AAC04EB131403F00F0343
:1026600014F8144C0C700AAC2344013013F8143CD9
:102670004B70082801F10201EBD102480BB030BDCC
:10268000869C0000701300202DE9F04F044685B0B1
:1026900000254FF0011BA9462E46AA46207820B9F6
:1026A000614B02349C421FD0F2E76378052B05D8BA
:1026B000DFE803F0780403780720A24623781C445F
:1026C000ECE7E378002BF9D1A37883B109F1010994
:1026D0005FFA89F9F2E77268944200F09D8024362F
:1026E0009E42F8D34FF0FF3005B0BDE8F08F4F4E5B
:1026F0004F4BF5E7002EF5D000230121327F9342A6
:10270000F0D2326AA77802EBC3021079874201D077
:102710000133F3E70127E07894F805C000F00300E7
:102720008DF80C00207940EA0C20ADF80A0094F9ED
:10273000020000285FFA87F828DA07F1100001FA92
:1027400000F010EA0B0F29D168F07F008DF8080027
:1027500002A8CDE9003206F0FBF8DDE900320121E4
:10276000E0B99DF80830A37013F0800F1CBF08F18A
:1027700010085FFA88F813710B4615BF01FA08F8C4
:10278000BB404BEA080B4BEA030B97E701FA07F053
:1027900010EA0B0F02D18DF80880D9E70137102F0E
:1027A000B9D1B5E7032D1DD1FFF72CFF074668B15E
:1027B00006F066F8804648B11E4806F061F880458C
:1027C00004D142463946A01C06F076F823786FF013
:1027D0000201E218091B04EB5303D14213D5013562
:1027E000EDB26BE7002DF1D1BAF1000F3FF47AAFF3
:1027F000A4EB0A038AF80230C3F307238AF80330F4
:102800008AF80490EBE74FF0000002F8010C13F88F
:10281000010902F8020DE0E7B368002B3FF456AF60
:1028200049462046984751E7B3020020B4020020F1
:10283000D8020020869C000008B50448FFF724FF5A
:102840000028024818BF002008BD00BFEC0100208E
:1028500010B5094B00211A461C78844204D15C68EB
:1028600014B102EB811010BD0131042903F14003C2
:10287000F2D10020F7E700BF840600202DE9F341E4
:1028800050F8283C10F82C6C1033044610D1036922
:1028900050F8202C99073CD502BB13F0040304D157
:1028A0001A461946304605F0AEFE002344F8283C8F
:1028B00054F8283C10330ED054F8185C5DB154F82D
:1028C0001C7C54F8148C06F0C6FC00284CD02E4812
:1028D000214606F07FFD02B0BDE8F08150F8241CCF
:1028E00001AB304605F08FFE10B16FF01503DDE748
:1028F000019A54F8243C134444F8243C54F8203CF6
:102900009B1A44F8203C54F81C3C134444F81C3CEB
:10291000CEE750F8241C01AB304601F0E9FC00285A
:10292000E3D1019D54F8243C2B4444F8243C54F852
:10293000203C5B1B44F8203C54F81C3C2B4444F8DE
:102940001C3C002DB1D0304601F076FDB5FBF0F314
:1029500003FB1055002DA8D154F8203C002BA4D027
:10296000304601F00DFDA3E744F8180CA4F1100067
:1029700004F09EFB54F8283C8C33ACD042463946D8
:102980003046A847A7E700BFD80200204B1E012B06
:1029900073B506460D460FD8FFF75AFF044668B9CF
:1029A000012D09D101AB01220DF10301304601F0E7
:1029B0009FFC019B002BF5D102B070BD06F04BFCD3
:1029C00004F12C0108B1012D05D1084602B0BDE883
:1029D0007040FFF753BF034802B0BDE8704006F0F7
:1029E000F9BC00BFD80200202DE9F74F064601913F
:1029F0001546984605F059FE044600285CD14FF074
:102A00002003EFF3118A83F31288BFF36F8FDFF88F
:102A1000B0B0A70100220023584604F069FB68B952
:102A2000DFF8A09009EB0704636813F1100F14D1CD
:102A30000193584604F03CFB019B06E00134042C52
:102A40000BF1400BE5D16FF00B038AF31188BFF354
:102A50006F8F184603B0BDE8F08F019B2061C4E979
:102A600002350C9B63610D9BA3616FF00F03C4F8EB
:102A70003C806360304609F8076001F0DDFC58B126
:102A8000304601F0D9FCB5FBF0F202FB10551DB148
:102A9000E36B43F00403E36318F0020F07D02C3715
:102AA000094809EB070106F095FC0023CDE7304605
:102AB00001F066FC0346C8E76FF00F03C9E700BFEB
:102AC000A006002084060020D802002010B54FF098
:102AD0002003EFF3118483F31288BFF36F8FFFF7A6
:102AE000B7FE50B14368103307D16FF08B034360DA
:102AF00000F12C01034806F06DFC84F31188BFF34C
:102B00006F8F10BDD80200202DE9F041104CDFF886
:102B1000448004256FF08B074FF02003EFF31186FC
:102B200083F31288BFF36F8F6368103305D104F10C
:102B30002C014046676006F04DFC86F31188BFF318
:102B40006F8F013D04F14004E6D1BDE8F08100BF84
:102B500084060020D802002070B50A4C0A4E0025D9
:102B60003146204606F02DFC0122A4F1100011464A
:102B7000013506F008FC042D04F14004F0D10020DA
:102B800070BD00BFB00600207D28000070B504466F
:102B90000E4601791248154605F05CFDE8B194F93E
:102BA00000206378002A11DB202B04D0222B09D0CF
:102BB0006FF0850005E0296807220C3805F07CFEDF
:102BC000002070BD638800F8053CF9E7212BEFD1A8
:102BD0000C38072328603360F2E76FF01200F0E74B
:102BE0008407002008B50146034805F044FD10B1F4
:102BF000012300F8033C08BD84070020016901237C
:102C000081F82B300B6833B191F829301BB10248A1
:102C1000083106F0DFBB7047D802002001690123AC
:102C200081F82A300B6833B191F828301BB1024883
:102C3000083106F0CFBB7047D80200200B4A03468C
:102C40000021A0F87E10018510685867908892795D
:102C5000A3F8780083F87A2083F87C1083F87B103F
:102C6000402203F12C0005F032BE00BF309A000074
:102C700038B5056995F87E0070B195F87F3063B975
:102C800085F82830286F05F038FC05F11801044656
:102C9000034806F09FFB204638BD0020FCE700BF3C
:102CA000D802002073B5144602F12C060A1E054610
:102CB00010DDE06E314605F020FC012384F8293058
:102CC00023683BB194F82B3023B1084804F1080184
:102CD00006F080FB064B009301940123402231460D
:102CE0002846FFF781FE02B070BD00BFD802002069
:102CF000A52C000013B504698DF8071094F87E30F8
:102D00008BB194F87F3073B90DF10701206F84F80F
:102D10002830012205F0F1FB014630B10A4804F1E8
:102D2000180106F057FB02B010BD206F012205F01C
:102D300049FC0028F7D0206F01220DF1070105F0B2
:102D4000DCFB0028EAD1EEE7D8020020012382F85C
:102D50002830136810B514463BB192F82A3023B1DD
:102D6000084802F1080106F035FB206F05F07FFBF3
:102D700030B904F118010348BDE8104006F02ABB41
:102D800010BD00BFD80200207FB5836E5B681B6A50
:102D90001E7D0546304605F088FCD0B9A86D4FF47D
:102DA000806203A905F0C8FB044690B18306A5F133
:102DB000180308BF00F1FF340193074B03990093F8
:102DC000224602233046FFF70FFEA86D214605F08C
:102DD000DDFB04B070BD00BF4D2D000038B50D46C1
:102DE0000146244805F027FC044680B30246691ECC
:102DF00052F880395B68052929D8DFE801F02028DE
:102E00000320252914F8021C31B91B6A187BFFF72F
:102E100049FF012304F8023C14F8583CBBB90123D4
:102E200004F8583C54F8803C8BB114F8563C73B10C
:102E3000A4F178011048BDE8384006F0CBBABDE8EF
:102E400038401046FFF7FABE012304F8013C38BDB4
:102E500014F8011C0029FAD014F8020C002104F81F
:102E6000011C0028F3D01B6A187BBDE83840FFF72F
:102E700019BF00BF84070020D802002010B50469E4
:102E80000023C4F884300C4BC4F88000596804F166
:102E9000840269B9C3E9002204F10800074906F079
:102EA00090FA04F11800064906F08BFA002010BDD4
:102EB0000A605A60F0E700BF84070020D586000052
:102EC000892D000030B585B0A12305698DF8043047
:102ED000202342688DF80530002385F87D300220DC
:102EE000ADF80A00106AADF80C10ADF808300079A2
:102EF000ADF806300A2201A905F085FB054C95F8CE
:102F00007D3023B9012006F0A9FB013CF7D105B0C3
:102F100030BD00BFA186010037B5094D0949002425
:102F200000944FF0FF334FF48062284604F0EEF92E
:102F30000549284606F095F9204603B030BD00BF8C
:102F4000D8020020C0130020A19C00002DE9F84306
:102F500005464FF02003EFF3118683F31288BFF389
:102F60006F8F0E4B1C689CB10D4FDFF838804FF00F
:102F70000C09D4E90132002D08BF13462BB198F893
:102F8000142009FB02F2B85C98472468002CF0D1A9
:102F900086F31188BFF36F8FBDE8F8838C0700209C
:102FA000980700203013002000F01F0301229A40F0
:102FB0000A4BBFF35B8F400903EB800050E8003FF2
:102FC00043EA020140E8001CBCF1000FF6D1BFF358
:102FD0005B8F1A4214BF012000207047A407002015
:102FE00030B51D4B1C7DBFF35B8F04F01F03012226
:102FF0009A401A4B610985B0D04303EB810353E833
:10300000001F01EA000543E8005CBCF1000FF6D1A7
:10301000BFF35B8F114217D0114D0C2202FB0452FB
:1030200007CA01AB83E807000E4A7AB193E80700AC
:1030300005F06CFC0020FFF789FF0C235C432A1984
:1030400000232B51C2E9013305B030BD82F3118852
:10305000BFF36F8FEEE700BF30130020940700200E
:10306000980700200D8900002DE9F041374B384CBE
:103070001D7D88B080462846FFF796FF60B96F46F1
:1030800042462946384605F0E5FB97E807000C263E
:1030900006FB054686E807000C236B43E218E05C5C
:1030A0006E0905F01F0700283BD0B8F1FF3F10D094
:1030B000D2F808E02748284A4FF4004C00210023AA
:1030C000EEFB0C01FEF71CF80121A8EB000006F056
:1030D000A7FA04F0ABF90120FFF738FFBFF35B8FCD
:1030E0001E4B0122BA4003EB860353E8001F114335
:1030F00043E800100028F8D1BFF35B8F0C2303FBDB
:10310000054494E8070005AB83E80700144A1AB1A8
:1031100093E8070005F0E7FBFFF762FF04F054FBBC
:103120000120104ABFF35B8F0123BB40DB4302EB5E
:10313000860656E8002F1A4046E800210029F8D1FB
:10314000BFF35B8F08B0BDE8F08100BF30130020F3
:10315000980700203F420F0040420F0094070020D4
:10316000E7880000A4070020014910220A60704788
:1031700010ED00E072B6404080F31188BFF36F8F0E
:10318000BFF34F8F30BF62B6BFF36F8F704700BF82
:1031900072B6494081F3118820BF80F3118862B66E
:1031A000704700BF43B2002B08DB012200F01F0074
:1031B00002FA00F05B09024A42F82300704700BFA0
:1031C00000E100E043B2002B0DDB01225B0900F0BF
:1031D0001F0002FA00F02033034A42F82300BFF335
:1031E0004F8FBFF36F8F704700E100E0054B42093E
:1031F00000F01F0053F82220012303FA00F01040D2
:10320000704700BF00E100E043B2002BA8BF03F10C
:10321000604301F10101B8BF064B4FEA4111ACBF59
:1032200003F5614300F00F00C9B2B4BF195483F82D
:103230000013704714ED00E030BFFFF7FDBF00BF83
:103240000F4A08B50F4B22F07F029A60BFF34F8FF1
:10325000BFF36F8FD3F8882022F47002C3F8882060
:10326000EFF3148323F0040383F31488BFF36F8F09
:1032700003F094FC04F0ECFB00F0CAF903F098FCB6
:103280000010000000ED00E0094A0A49936809684F
:103290009967094958674B6843F080534B60002396
:1032A00083F31188BFF36F8F9368986F704700BFE7
:1032B00030130020289C000000ED00E012498A68CD
:1032C0004FF030001044EFF3098C80E8F01F20200D
:1032D00080F31288BFF36F8F0C4F4FF00066CA69FE
:1032E0008A603E60506F0023536780F3118804B5F5
:1032F000104600F0CFF9BDE8044002F1300090E83C
:10330000F01F8CF3098870473013002004ED00E0B3
:103310001EF0040F0CBFEFF30880EFF30980816902
:1033200011F8021C0229FFD001B505F09AFA01BD7F
:1033300042F8203C009B42F81C3C0A49019B42F8A1
:10334000183C029B42F8143C21F001014FF08073BD
:1033500042F8043C42F8081C0023203A0265436707
:10336000704700BF11800000094A0346906870B1A1
:1033700013F1160F406E05D0A0F120029A4205D835
:10338000834203D2814228BF00207047002070474B
:103390003013002008B5094B98600D46144600F024
:1033A00079F9204685F30988002163B681F31188F5
:1033B000BFF36F8F0022002304F02AFE3013002099
:1033C00001B572B60B4A906900281EBF00219161B9
:1033D00005F04CFF62B6EFF30580A0F110004FEA54
:1033E000C0000549014409C99847BDE801400349A7
:1033F00008470000301300209098000001340000BE
:10340000044B9968D869884203D003494FF0805231
:103410000A6070473013002004ED00E038B5194B06
:1034200014469A6A9A6A9A6A0546900719D5586BA3
:103430009A6A120615D519B19A6A22F080029A6228
:103440009A6A9A6A9A6AD1060ED49B6A9A070BD432
:1034500000200C4A936A43F0FF0393620023237019
:1034600038BD6FF01500EBE7064B5B681B05EFD529
:103470002946FFF779FF0028EAD080F30988022067
:10348000E7E700BF00ED00E00D4B9A6A9A6A9A6A7E
:10349000920508D59A6B9A6A120404D518B19A6AF3
:1034A00022F400429A62064B9A6A9A6AD20558BF81
:1034B0009A6A9A6A002042F47F429A6208707047C2
:1034C00000ED00E070B5484B5B688AB00D46C3F371
:1034D0000803002686F31188BFF36F8F02F07F4147
:1034E000B1F17F4F11D102F00C0108290DD0110765
:1034F00001D4054601260022033B8DF80720032B4B
:103500006BD8DFE803F00455595D3546F3E7364BD9
:10351000DC6A14F0020460D1DA6A002A15DBDA6A88
:10352000520012D5AA6932F8021C4DF6027291427D
:103530000AD093F828200AB30DF10702012128468A
:10354000FFF76CFF044600E02C689DF807309BB93C
:103550002022294602A805F0AFF9099B002E3ED093
:10356000C3F3080222B96FEA53236FEA4323099396
:1035700002A9204605F073F90AB070BD93F829201E
:103580002AB10DF107010120FFF77EFFDAE75A8D1E
:1035900092B2002AD9D09A6A9A6A9A6A9A6A9A6A00
:1035A0009A6A9A6A6FEA02426FEA12429A62CCE71A
:1035B0000DF107020021C2E70DF107010020E3E74A
:1035C000094B9A6A9A6A9A6A9A6A9A6A9A6A9A6A8B
:1035D0006FEA02426FEA12429A620024B5E723F4CE
:1035E000FF7323F00103C2E700ED00E0024A5369D4
:1035F00043F010035361704700ED00E0EFF30880E3
:10360000EFF3098101B57246FFF75CFF01BD00BF12
:10361000044800232021C2180133302B82F8001304
:10362000F9D1704700E100E006F0B4F8202080F303
:10363000118808484FF40261401880F30988EFF3BD
:1036400014800221084380F31488BFF36F8FFFF7C3
:10365000F7FD000080210020064B9B68834207D1C4
:10366000EFF3058323B1044A536843F0805353605A
:1036700004F08AB93013002000ED00E0024B034A49
:103680000348012100F06EB8000004200000002073
:103690009C9A0000426E054B203A1A60044A202191
:1036A000C3E901121846012100F066B8A8070020FE
:1036B00000000B15F0B51F4F00268E4201DB1046AF
:1036C000F0BD44689CB353B104F1FF3C14EA0C0F05
:1036D00018D11F2C16D905681CEA050F12D1202C11
:1036E0000568D0F808C0D2B20FD9B4F1004F0ED897
:1036F000013CB4FA84F4C4F11F046400072A4CEAC4
:10370000040406D96FF01502D9E70824F6E73E2431
:10371000F4E725F01F05154345F0100544F00104BA
:10372000C7F89820C7F89C500132C7F8A04001366E
:103730000C30C2E700ED00E0044B0522C3F89420F2
:10374000BFF34F8FBFF36F8F704700BF00ED00E0F6
:10375000BFF35F8F024B0022C3F89420704700BF75
:1037600000ED00E010B5034C01232278FFF7A2FF23
:10377000207010BD8213002008B5094A002312787A
:10378000FFF798FF10F1160F02D0064A072800DD58
:1037900008BDC2F89800C2F8A0300130F6E700BFBB
:1037A0008213002000ED00E014490868082810B5D5
:1037B00021D8FFF7CDFF124C49680022904201F159
:1037C0000C0105D10F4B1870FFF7B6FF002010BD9C
:1037D000C4F8982051F80C3C23F01F03134343F026
:1037E0001003C4F89C3051F8043C43F00103C4F8C2
:1037F000A0300132E2E74FF0FF30E8E7A89A00007E
:1038000000ED00E082130020014B1860704700BFFC
:10381000DC00002010B54FF02003EFF3118083F39C
:103820001288BFF36F8F114A0123C2F840354FF061
:1038300080424FF08051C2F87835D1F83041082CE1
:1038400008D1D1F83411052904D8094C615C09B1BB
:10385000C2F838364FF080430122C3F8802580F348
:103860001188BFF36F8F002010BD00BF00E0014042
:10387000B99C000020B1034B800143F001031847BD
:10388000704700BF409A00004FF08043D3F84036A5
:10389000DB072ED54FF01023D3F8043303F00703D2
:1038A000072B26D1144A0123C2F80435D2F800347C
:1038B000002BFBD04FF01021D1F8043323F0070385
:1038C00043F00403C1F804330023C2F804350A4A64
:1038D000D2F80034002BFBD0BFF34F8F0749084BC1
:1038E000CA6802F4E0621343CB60BFF34F8F00BF9E
:1038F000FDE70020704700BF00E0014000ED00E060
:103900000400FA0500F07F03082B42B204D010F047
:10391000780F01D000207047002A00F00F0300F05C
:10392000080005DA58B9084800EB43104C307047DE
:1039300038B9054800EB431000F5B67070470348EE
:1039400070470348704700BFB40D0020000F0020EF
:10395000201000200146014805F00ABDDC010020CE
:103960000149024805F036BDDC0D00207803002037
:1039700013B50B4802F060F800240A4802F0A2F8E0
:103980004FF0FF334FF4806207490848009403F07A
:10399000BDFC0749074805F014FD204602B010BDE4
:1039A000C29C0000C89A0000E017002078030020A5
:1039B000CD3C0000DC0D002002480022002303F073
:1039C00043BB00BFDC01002010B5054CFFF7F4FF3E
:1039D00020B1011D204605F015FCF7E710BD00BF22
:1039E000AC01002007B500230E48002201A903F016
:1039F00073F990B1FFF7E8FF0A480022002301A9FC
:103A000003F06AF938B90198042340600374FFF7A2
:103A1000A1FFFFF7A5FF002001E00198406003B07F
:103A20005DF804FBAC010020817870B506460846BD
:103A3000FFF768FF0B06F578044612D5002D43D139
:103A4000FFF7D0FF034600283ED00122A57702747D
:103A5000032202739C60FFF77DFFBDE87040FFF713
:103A60007FBF4DB1012D2FD1FFF7BCFF034658B3E7
:103A7000657705740573EDE7FFF7B4FF20B3B278FF
:103A8000124B12F0800F02F0080111D041B1D3F8AF
:103A9000A836E36001230374022303738460DAE72A
:103AA00002F00F02142101FB0233D3F80836F0E7CD
:103AB00011B1D3F8A837ECE702F00F02142101FB93
:103AC0000233D3F80837E4E770BD00BF007002404E
:103AD000022810B511D8094B1C5CFFF783FF60B1B9
:103AE000002202740472FFF735FF054B93F824306F
:103AF0001BB1BDE81040FFF733BF10BDBF9C0000F5
:103B0000B40D002010B50F49BFF35B8F01F1200306
:103B1000002253E8000F012803D143E80024002CC1
:103B2000F7D1BFF35B8F0BD1CC690C31204604F089
:103B300053FA783004D12046BDE8104004F027BA8B
:103B400010BD00BFB40D0020F0B5064689B01422A8
:103B5000002103A804F0BBFE3378013B052B21D8DC
:103B6000DFE803F07A0314146A1603238DF8143087
:103B70000024FFF737FF0346A0B1047400F10802E8
:103B8000DDE9050182E8030018461DE00423EDE7A6
:103B9000B1780846FFF7B6FE837A044623B1013BAD
:103BA000022B43D909B0F0BD0B06F57813D5002DD3
:103BB000F8D1FFF717FF03460028F3D00122A577BD
:103BC0000274032202739C60FFF7C4FE09B0BDE8D3
:103BD000F040FFF7C5BE55B1012DE3D1FFF702FF5D
:103BE00003460028DED0657705740573EBE7FFF721
:103BF000F9FE07460028D5D001230374022303737E
:103C0000846004F10C01B07805F09CFA134AE16875
:103C1000B2F88C328B4206D95B1AA2F88C3202F0D1
:103C2000B1FC3846D0E7A2F88C52FAE7304609B02A
:103C3000BDE8F040FFF7F8BE01A802F07DFC9DF85A
:103C40000530052B04D19DF8043013F0600FA9D086
:103C5000034B059301248CE702248AE7B40D00206E
:103C6000200F002038B5002464F07F00C0B2FFF7B9
:103C700049FE013404F055FE082CF5D10F4D002407
:103C8000E0B2FFF73FFE036903B90561013404F0B8
:103C900048FE082C05F14005F2D1094C04F5A67048
:103CA00004F03FFED4F87C3213B9064BC4F87C32E2
:103CB000054804F036FE002038BD00BFB40B0020DC
:103CC000B40D0020B4070020201000202DE9F0439F
:103CD000A84CDFF8A48285B00746FFF76DFE10B947
:103CE00005B0BDE8F08394F82530027C00F10409AA
:103CF0003BB9002A00F086804946404605F082FA2A
:103D0000EBE7042AF8D8DFE812F07D000500030194
:103D100019014301037B8568032BEDD8DFE803F02D
:103D2000023D5A5F6E6908220021304604F0CFFD43
:103D3000924B9348D3F880243270D3F88424727065
:103D4000D3F88824D3F88C1442EA01227280D3F885
:103D50009024D3F8941442EA0122B280D3F8982434
:103D6000D3F89C3442EA03230822F3803146EA6008
:103D700004F0A2FD2B68687A0021984796F900307C
:103D8000002B06DBF38823B1A4F88C3202F0FAFB97
:103D9000B2E70023A4F88C32AEE76B7F002BABD0E8
:103DA0002B7F002BA8D000266E774FF0FF3275488E
:103DB0002E774FF0FF3304F0C7FD6B6901936B68FA
:103DC000CDE9023601A9687A02F0E6F96D4804F0FF
:103DD000BDFD91E72B680121687A98478CE7AB7AA3
:103DE0006BB9EB7F5BB967484FF0FF324FF0FF33A1
:103DF00004F0AAFD02F0F6FB624804F0A7FD2B6870
:103E00000221E9E7027A042A3FF676AFDFE802F002
:103E10005B032569750002F06FF9054600287FF401
:103E20006BAF02F0ADF8BFF35B8F5749012351E848
:103E3000002F002A03D141E800300028F7D1BFF35A
:103E40005B8F7FF459AF41F8105C41F8085CE06982
:103E50006361143904F052F84EE7002565F07F00E5
:103E6000C0B2FFF74FFD037A13B1407A02F0A4FD10
:103E70000135082DF2D194F854311BB194F8550155
:103E800002F09AFD0025E8B2FFF73CFD037A13B17A
:103E9000407A02F091FD0135082DF4D194F8743286
:103EA0001BB194F8750202F087FD012002F006F9BB
:103EB000012384F825302368002B3FF41DAF002137
:103EC0000220984718E7002584F8255002F000FDED
:103ED000FFF718FE2368002B3FF40EAF294604209D
:103EE000EFE7002B3FF408AF02F00AFD2368002B38
:103EF0003FF402AF00210520E3E72268002A3FF4E7
:103F0000FBAE002B3FF4F8AE002106209047F3E60D
:103F100007F110054FF0FF334FF0FF32284604F051
:103F200013FDFFF79FFE284604F010FD57F8283CCC
:103F3000002B3FF4E1AE00210120C2E794F8743277
:103F40007BB1012584F8895284F88852FFF74AFD35
:103F500038B10E4A057405738260FFF7FBFCFFF76A
:103F6000FFFC57F8283C002B3FF4C6AE00210A2086
:103F7000A7E700BFB40D0020AC0100200070024094
:103F8000B80D0020EC0D0020D40D002020100020E2
:103F900005F045F802F09CFC01F0E8FFFFF714FD86
:103FA000FFF760FE05F034F8014802F0AFF8A3E631
:103FB000493B000038B51A4D95F824405CBB05F12B
:103FC000380005F062F9204600F03CFB2246E8612B
:103FD00001212720FFF718F9124802F097F8124B39
:103FE00098421AD105F014F8FFF73CFE044610B9C8
:103FF000012385F824300D4B1B680BB1FFF7B0FC93
:104000004FF08043D3F83834DB0702D50020FFF7A8
:104010005FFD204638BD0024FBE76FF00404F8E79D
:10402000B40D0020493B00000000AD0BDC01002076
:10403000074B93F824203AB193F82530002B0CBF9E
:104040006FF01200002070476FF01200704700BF41
:10405000B40D00200F4B93F8243010B50146B3B1D6
:1040600004782046FFF74EFC10B96FF0150010BD24
:1040700044720B79837249884160230702D44B1E36
:104080000B42F2D1204605F058F80020EFE76FF020
:104090001200ECE7B40D0020124B93F8242010B569
:1040A0000146CAB193F82530B3B1FFF72BFC0446A3
:1040B000A8B1837A012B12D007D9023B012B07D973
:1040C0006369A3610020E06010BD02F093FAF7E796
:1040D000084602F003FAF3E76FF01200F4E76FF01E
:1040E0001500F1E7B40D002038B50E4B93F82420ED
:1040F000054682B193F825306BB1FFF703FC68B138
:1041000015F008040AD1284602F00AFA284602F0FF
:10411000A5FC204638BD6FF01200FBE76FF01500DC
:10412000F8E700BFB40D002038B50C4B93F82420FD
:1041300005460C4662B193F825304BB1FFF7E2FB20
:1041400048B141B1284602F0D1F92070002038BDB5
:104150006FF01200FBE76FF01500F8E7B40D0020D8
:10416000F8B5134F97F824300446BBB1FFF7CAFBEC
:104170000546B0B1230705D4204602F0D1F9204608
:1041800002F06CFC2E7A7EB997F8250001232B7281
:1041900018B1204602F010FC3046F8BD6FF0120056
:1041A000FBE76FF01500F8E76FF07700F5E700BF69
:1041B000B40D002038B5114B93F8242001469AB174
:1041C00093F8253083B1FFF79DFB054678B1037A5C
:1041D00083B10846002402F0C3FB2846AC7704F004
:1041E000A0FB2C72204638BD6FF01200FBE76FF089
:1041F0001500F8E76FF07700F5E700BFB40D002079
:104200002DE9F043DFF8DC801C4698F8243085B0B7
:10421000074689461646002B5DD098F82530002BBE
:1042200059D003065AD5FFF76DFB0546002855D037
:10423000037A002B52D04FF0FF334FF0FF3208F1DA
:10424000380004F081FBAB7F4BB108F1380004F07B
:104250007DFB6FF00A04204605B0BDE8F08316B977
:10426000EB7F03B1EE77AB7ABBB95EB1B8F80A3039
:10427000B34207D96A68B6FBF2F302FB13630BB9CA
:104280000123EB7702F0BEF9B84206D002F0AAF99A
:10429000154804F05BFB0024DDE70123AB774FF00A
:1042A000000801A93846CDE90196CDF80C8001F04F
:1042B00073FF0E4B984207D085F81E800CB1C4F8EE
:1042C00000806FF0040402E00CB12660444606480A
:1042D00004F03CFBBFE76FF01204BCE76FF015047D
:1042E000B9E700BFB40D0020EC0D00200000AD0BBD
:1042F0002DE9F0411D46204B174693F824200E4629
:10430000002A33D093F8253083B3030631D401B9A2
:104310007FBBFFF7F7FA044658B3037A4BB34FF06D
:10432000FF3316484FF0FF3204F00EFBE3689F4264
:10433000B84628BF984646B93FB905B12B600F482B
:1043400004F004FB0020BDE8F081A169424630463C
:1043500004F0B2FAA3694344A361E368A3EB080342
:10436000E360002DEBD0C5F80080E8E76FF01200A5
:10437000E9E76FF01500E6E7B40D0020EC0D002032
:1043800070B51E4D95F82420034682B395F825207C
:104390006AB31B062ED4FFF7B5FA044650B3037A6E
:1043A00043B34FF0FF334FF0FF3205F1380004F014
:1043B000CBFAE368B3B9012663692677A361637F0B
:1043C00083B1FFF70FFB30B905F1380004F0BEFAF6
:1043D0006FF00B0070BD067484600673FFF7BAFAC5
:1043E000FFF7BEFA064804F0B1FA0020F2E76FF0DA
:1043F0001200EFE76FF01500ECE700BFB40D0020EE
:10440000EC0D002008B5084B93F824302BB1FFF7D2
:1044100079FA28B10160002008BD6FF01200FBE7B7
:104420006FF01500F8E700BFB40D0020014B1860D5
:10443000704700BFB40D002008B5074B93F8243037
:1044400023B1FFF75FFA20B1406808BD6FF012009A
:10445000FBE76FF01500F8E7B40D0020084B70B5CE
:10446000C31A0D4607499B1004465943064840228B
:1044700004F0B1FA2B4601462046BDE870401847CB
:1044800054100020B76DDBB61898000073B50C4CC3
:104490000C4A4023041B00930D460B460A49A41006
:1044A00061430646094804F0C2FA011E05DA3046A7
:1044B0002B4602B0BDE87040184702B070BD00BF87
:1044C000541000209F8A0000B76DDBB618980000DA
:1044D000002270B5012104461046FEF795FE00202B
:1044E000FEF760FE0F4800F0B9FE0F4B984215D161
:1044F00000F0C4FE26690D49304603F0ECFC0028AC
:104500000BDB246909490125356404F11C0003F023
:10451000E2FC002801DBE564002070BD6FF00400C0
:10452000FBE700BF654500000000AD0BF49A0000FA
:1045300001460C2309484B4370B5C418D4E90E5604
:1045400000224033A263184404F032FA2DB13246FF
:104550002B460348BDE87040184770BD541000203A
:104560001898000010B1012804D07047034B1B6C51
:104570005B0701D1FFF7DCBF704700BF541000207C
:1045800008B54FF02003EFF3118183F31288BFF3D6
:104590006F8F124A136843F0020013F0010310609A
:1045A0000CD04FF08042D2F80C34D2F80C2413F027
:1045B000010303D00A4804F0FBF9012381F31188B9
:1045C000BFF36F8F23B1BDE808400020FFF7B0BFF5
:1045D000BDE80840012004F08DBC00BFA4100020FD
:1045E000941000201FB500220123CDE90223094ABF
:1045F000CDF800D06B46CDF804D004F049FA00287D
:1046000005DB4FF480420023684602F071FD05B0DF
:104610005DF804FBBD8A0000094BBFF35B8F53E8D4
:10462000002F22F0020143E800100028F7D1BFF369
:104630005B8FD30702D4012000F02EBE704700BF6D
:10464000A4100020024AC3B21C2003FB00207047C4
:10465000541000202DE9F0413949BFF35B8F074624
:10466000012251E8003F41E800200028F9D1BFF3C2
:104670005B8F33B9334934484B60CB608A6003F0B9
:104680003DFC7B1E012B2FD8012F07D14FF080431B
:10469000D3F81C3403F00303012B25D004F0DBFD19
:1046A000044618B9294B1B78002B41D14FF0200349
:1046B000EFF3118683F31288BFF36F8F0124DFF8C5
:1046C00090804FF08045D5F81834D5F81824D203DF
:1046D0000CD503F00303012B01D0012F06D10CB33D
:1046E00086F31188BFF36F8FBDE8F081ACB130461F
:1046F000FEF74EFDD5F81835002BE4D1D5F804218E
:10470000002AE0D0C5F80431D5F804310123C5F8FA
:104710001835C8F88031AB60D5E70021212003F0BF
:1047200003F9E7E74FF080430222C3F80423DBE7F5
:104730004FF080430222C3F808230646BFE700BFBC
:10474000A81000204410002070100020A9130020A1
:1047500000E100E008B5084B0848186004F021FDAE
:1047600038B10748FFF750F80548FCF78BFE0020EA
:1047700008BD6FF01200FBE7AC100020609800004D
:10478000854700000A2838B5074D044604D128683B
:1047900083680D215B68984728688368E1B25B688D
:1047A0009847204638BD00BFAC10002030B54068A7
:1047B000047A01F01F01B2F5005F85B041EA4414AC
:1047C0004FF0000504D1204601F014F800202DE040
:1047D000B2F5804FCDE902552AD1B3F5003F0CBFA9
:1047E00004230523B2F5A03F8DF808302CD16209CF
:1047F000012A04F01F031D4A03F5E07318BF4FF0B0
:10480000A04252F82330DB071ED40DF107052946DC
:10481000204600F053FF164B984214D1284600F072
:104820009BFF144B98420ED06FF00B0005B030BDCB
:10483000B3F5C02F05D0B3F5003F0CBF0223012311
:10484000D0E70323CEE703950023194602AA2046AA
:1048500000F00EFE074B984204D10121204600F0E3
:1048600081FFB3E76FF00400E0E700BF00030050F2
:104870000400AD0B0000AD0B10B500F05DFF044669
:1048800068B900F031FF084B98420AD10748214629
:1048900000F00EFF224605210620FEF7B5FC0020A1
:1048A00010BD6FF00400FBE70000AD0BB148000045
:1048B000420970B5034602D0012A15D070BD0B4ED7
:1048C000326951680029F9D003F01F0301250C68F3
:1048D0009D408A682A4002D04B6830469847002C99
:1048E000ECD021462468F4E7014EE9E73098000057
:1048F00048980000F0B547683B7A01F01F0585B085
:104900000E4645EA43151446C2B902A9284600F0EE
:10491000D5FE0446284600F095FF414B984203D04F
:104920006FF0040005B0F0BD844205D19DF8080089
:1049300000F00CFFA042F3D10020F3E7002319465A
:1049400002AA2846CDE9023300F092FD344B98428A
:1049500002D06FF01500E5E7A3054ED5314B324A82
:10496000234093423AD00CD8062B14D004D893B1EC
:10497000022BEED104230EE0B3F5801FE9D1012311
:1049800009E02A4A93422BD0B3F5A00F2AD0B3F501
:10499000800FDED102238DF8043084F48073C3F3DA
:1049A0000023E0068DF8053054BFC4F34013032301
:1049B00021058DF8063017D57B68012101FA06F62E
:1049C000C3F80865002201A9284600F0FFFD144B3A
:1049D000984214BF6FF015000020A3E70723DAE721
:1049E0000523D8E70323D6E7620541BF7B68012191
:1049F00001FA06F6C3F80C65E4E7E3064FF000039E
:104A000054BFC4F3401403241A4601A928468DF864
:104A1000044000F02DFD024B98428DD099E700BF75
:104A20000000AD0B0600F000060010000200400080
:104A3000036803F01F025B09012B0260024818BFE4
:104A40004FF0A040704700BF00030050F0B54B7915
:104A5000012B26D0032B21D110268B79032B1DD1BE
:104A6000CC790CB1012C19D10A7912B1022A15D1D5
:104A70000E220B684568B3F5164F2D6865D02DD80A
:104A8000B3F5165F64D016D8B3F5966F62D00AD826
:104A9000B3F5967F61D0B3F5167F61D06FF08500D6
:104AA00052E00026D9E7B3F5166F5CD0B3F5965FF8
:104AB000F4D1374B3CE0B3F5E14F57D007D8B3F50D
:104AC000615F55D0B3F5964FE8D1324B30E047F6F1
:104AD0001227BB42E2D14FF4000329E0B3F5613F56
:104AE00048D013D8B3F5963F47D009D84DF6C02724
:104AF000BB4244D0B3F5614FD0D14FF46B0317E004
:104B0000B3F5E13FCAD14FF0EB7311E0B3F5612F7C
:104B100038D008D8204FBB4237D0B3F5E12FBDD1F4
:104B20004FF0E86304E01D4FBB42B7D14FF0805314
:104B3000C5F82435036903C9344322430433C5F857
:104B40006C2583E803000020F0BD4FF41D03EFE760
:104B5000134BEDE74FF49E23EAE74FF4A033E7E76A
:104B60004FF41C33E4E74FF41D23E1E70D4BDFE77F
:104B70000D4BDDE74FF06C73DAE70C4BD8E74FF4E1
:104B80006503D5E74FF07063D2E74FF08063CFE75E
:104B900000B0130000A04E0090D0030040420F0070
:104BA0000050270000C0750000F03A0000903A0164
:104BB000F8B5066905460F4604F04DFB10B9204BC9
:104BC0001B7883B94FF02003EFF3118483F312882D
:104BD000BFF36F8F686804F0D2F828BB84F31188A4
:104BE000BFF36F8FEEE76424686804F0C8F870B90B
:104BF000012004F07DF9013CF6D10021212002F0D2
:104C000093FEF0E784F31188BFF36F8FF5E74FF061
:104C10002003EFF3118483F31288BFF36F8F68686A
:104C200004F0ADF80028EDD03146012201F8147FE0
:104C3000686804F089F884F31188BFF36F8FF8BDBA
:104C4000A91300202DE9F34100220646012102208C
:104C5000FEF7DAFA0220FEF7A5FAD6F804803769E3
:104C6000D8F800400023C4F800353E607568EB6852
:104C70005A1C13D001A80193FFF7DAFE019A012311
:104C80009340C0F80835EB68019301A8FFF7D0FE08
:104C9000019B03F5E073032240F823202869431C9D
:104CA00006D02B7F002B14BF0321002104F03EF817
:104CB0006B695A1C13D001A80193FFF7B9FE019A42
:104CC00001239340C0F808356B69019301A8FFF7F1
:104CD000AFFE019B03F5E073032240F82320A8698F
:104CE000431C06D06B7F002B14BF0321002104F06E
:104CF0001DF8D5E903122B68C3F80C15C3F8142569
:104D0000D5E90512C3F808153169C3F81025043137
:104D10003046FFF79BFE0546002846D1D8F8043000
:104D2000990719D507F1160000F026FF224B98428B
:104D30003FD1B87DC30003F1804303F5F83304F19C
:104D40000C0204F59071C3F81015C3F814251B4A22
:104D500001238340C2F804350823C4F8003598F8CD
:104D600008305BB9C4F81031D4F8103107F11503DD
:104D7000C4F834350123C4F838352360D8F804303A
:104D80009A075CBF4FF48072C4F80423DB0644BF6B
:104D90004FF48003C4F8043314370023C4F8447577
:104DA000C4F848350123A360E360284602B0BDE89B
:104DB000F0816FF00405F8E70000AD0B00F0014052
:104DC000044A1368C81A20F07F400344136002F0BD
:104DD0001FBF00BFD410002038B50F4C00254FF482
:104DE0008033C4F80855C4F804330C4B4FF4003238
:104DF000C3F8802101212A461120FEF705FA11206F
:104E0000FEF7D0F90123064AA36002202360136055
:104E1000FFF720FC284638BD0010014000E100E00B
:104E2000D01000202DE9F843860006F1804600F1FD
:104E3000500406F58836A400A4B204F180444FF46F
:104E40008037D6F84035DFF86C8021F07F4504F5D7
:104E500088348740D8F80495A3EB090323F07F43F7
:104E600029F07F42012BC6F8402502D1132004F01F
:104E7000F5FB09F10202AB1A23F07F43B3F5000FF3
:104E800088BF1546002323602368C8F8447325F0C3
:104E90007F43C6F84035D8F80435994506D0EB1A5B
:104EA000023B23F07F43B3F5000F01D8BDE8F88340
:104EB0002B46CFE70010014070B5154D154C00266C
:104EC0002B68002006B170BDD4F80423D203FAD5B4
:104ED000D4F84021002AF6D0C4F84061D4F840212B
:104EE0004FF48032C4F84823D4F84015D4F8046550
:104EF000721A22F07F42B2F5000F88BF31460126B8
:104F00001BB16A6828609847DAE72B60DBE700BFCF
:104F1000C810002000100140134AB0F1FF3F14BF39
:104F200003461346013B002B1CDD9342A8BF1346EA
:104F30000E4AD2F804050E4A1168401A10F4000F08
:104F400020F07F4218BF002301321344094A0A4867
:104F5000106000205060044A934294BFC918891819
:104F6000FFF760BF0023E3E7FFFF7F000010014071
:104F7000D4100020C8100020C14D0000044BD3F80D
:104F80000405044B1B68C01A20F07F40704700BF27
:104F900000100140D4100020BFF34F8F0549064B8D
:104FA000CA6802F4E0621343CB60BFF34F8F00BFC7
:104FB000FDE700BF00ED00E00400FA054FF080536C
:104FC000D3F83021082A06D1D3F83431052B02D882
:104FD000024AD05C70470020704700BFDD9C000093
:104FE000024AD2F80034002BFBD0704700E00140A9
:104FF00010B503F073FF40B14FF080430022C3F8B7
:105000000C21C3F81021C3F8382503F067FF0028EE
:1050100046D04FF08052654BD2F80414C3F82015E7
:10502000D2F80814C3F82415D2F80C14C3F82815C4
:10503000D2F81014C3F82C15D2F81414C3F8301594
:10504000D2F81814C3F83415D2F81C14C3F840155C
:10505000D2F82014C3F84415D2F82414C3F8481524
:10506000D2F82814C3F84C15D2F82C14C3F85015F4
:10507000D2F83014C3F85415D2F83414C3F86015BC
:10508000D2F83814C3F86415D2F83C14C3F8681584
:10509000D2F84014C3F86C15D2F84424C3F8702534
:1050A000FFF78CFF18B1424B424AC3F88C26FFF73A
:1050B00085FF18B1404BFB22C3F81825FFF77EFF90
:1050C00070B14FF080414FF08053D1F8E42ED3F807
:1050D000583222F00F0203F00F031343C1F8E43EED
:1050E000FFF76CFF20B1354B4FF40072C3F8402638
:1050F00003F0F4FE48B14FF08043D3F80024D20708
:1051000044BF6FF00102C3F800244FF08053D3F87E
:105110003021082A0ED1D3F83431052B02D8284A81
:10512000D35C3BB14FF01023D3F808224FF08043FB
:10513000C3F858254FF01021D1F80C32DB0714D5F5
:1051400020480123C0F80435FFF74AFFD1F80C329C
:1051500023F00103C1F80C32FFF742FF0023C0F82F
:105160000435FFF73DFFFFF717FFD1F80032002BA2
:1051700003DBD1F80432002B14DA124901234FF07B
:105180001020C1F804351224FFF72AFFC0F80042AE
:10519000FFF726FFC0F80442FFF722FF0023C1F803
:1051A0000435DEE7084B094A1A6010BD00C0004014
:1051B000005000404881030000F000400090024091
:1051C000D79C000000E001400C0100200090D003BB
:1051D00070B501250368B3FA83F2202AC2F11F04D7
:1051E00014D0BFF35B8F05FA04F223EA020250E801
:1051F000006F9E4204D140E8002CBCF1000FF6D1B4
:10520000BFF35B8FE6D102480C7070BD0148FCE72C
:105210000000AD0B0200AD0B0368CB40DB0710B5FF
:1052200015D4012303FA01F10368BFF35B8F41EA50
:10523000030250E8004F9C4204D140E8002CBCF12E
:10524000000FF6D1BFF35B8FEED1024810BD0248CC
:10525000FCE700BF0000AD0B0400AD0B044B1A7956
:1052600022B9012218609A800248704702487047AC
:10527000D81000200000AD0B0C00AD0B08B50020CD
:10528000FDF7B4FF08B9FDF78DFF024B01221A703C
:1052900008BD00BFA313002038B510B1012817D0F6
:1052A00038BD4FF080440223C4F80833C4F8040129
:1052B000D4F804310123E36042F21075D4F81834B5
:1052C000DB03EDD5012003F013FE013DF6D1E7E746
:1052D0004FF080440023C4F80803C4F80031D4F828
:1052E0000031606042F21075D4F80C34D4F80C240C
:1052F000D20303F0010305D523B1012003F0F8FD2B
:10530000013DF1D1014B00225A71C9E7D8100020AC
:105310004FF0804310B5D3F800216AB10022C3F8E2
:105320000021D3F800210122C3F80823114B58793A
:1053300010B95A711B6898474FF08043D3F8042185
:1053400072B10022C3F80421D3F80421D3F8182441
:10535000D3F81814920704D10122C3F818259A60D3
:1053600010BD0222C3F80823024BBDE810401B68A1
:1053700001201847D8100020036803F01F025B09C2
:10538000012B0260024818BF4FF0A040704700BFD9
:1053900000030050034B083033F81000C0F34010F6
:1053A000704700BF1001002070B500F108030C4CDD
:1053B00034F81330DA0505460E4607D5C3F3432308
:1053C00004EBC30254F8333052689847A3682BB1FA
:1053D000E26831462846BDE87040184770BD00BFFE
:1053E00010010020124A083010B432F81030D905EC
:1053F0001BD5C3F3432123F4F85322F8103002F1F4
:105400001004002034F8023B13F4807F03D0C3F370
:105410004323994209D001303028F3D1002342F8C8
:105420003130044810BCFFF7F7BE10BC704700BF16
:10543000100100208401002038B50246FFF7AAFFC2
:10544000094C02F1080540B134F8153007495B0BEF
:1054500003F5A273002041F823001046FFF7C2FFB6
:10546000002324F8153038BD1001002000600040F2
:105470002DE9FF41044617461D4621B34E4E00F16B
:10548000080836F818309B0706D5FFF783FF18B1D8
:105490004A4804B0BDE8F0810023CDE900338DF81F
:1054A0000E308DF80F300DF10F020B4620460DF136
:1054B0000E0103F04BFD36F8183023F0020343F0E1
:1054C000010326F8183097B13B4B3E787A6804F117
:1054D000080033F810108F070CD5002AD8D133F804
:1054E000102022F01C0242EA860223F81020CDBBD5
:1054F0003348CEE721F02001C904C90C23F810106D
:10550000002AECD0032EC3D817782EB92D4A07F500
:10551000A27142F82160E2E7BA0002F1804202F58E
:10552000C04241EA4731D2F810C52CF0030CC2F852
:1055300010C5D2F810C52CF44F3C2CF4407CC2F8B6
:1055400010C5D2F810E54FEA042C0CF47C5C4EEA4E
:10555000064E4CEA0E0C41F0200123F81010C2F860
:1055600010C5BCE7D5E900672046FFF73BFF002EDA
:10557000BED0114D2B689E4204D16B689F4201D171
:1055800000220AE010480DF10F01FFF721FE0C4B3D
:1055900098427FF47EAF9DF80F2045F8326005EB0E
:1055A000C20308345F6035F8143043EA422343F401
:1055B000807325F814309BE7100100200400AD0B28
:1055C0000000AD0B0060004084010020F0B50446EF
:1055D00085B0154619B3334E00F1080736F8172089
:1055E000930703D4FFF7D6FE002858D112F01C0F02
:1055F00002D04B78012B52D001238DF80F300023BD
:10560000CDE900134A1C8B1C20460DF10F0103F05D
:105610009DFC36F8173043F0030326F8173015B910
:10562000214805B0F0BD1F4E04F1080736F81700F9
:10563000830734D595F800C06146890020F020002A
:1056400001F18041C00401F5C041C00C26F81700EB
:105650000023C1F810356A78002AE1D0D1F810355E
:10566000AD7823F4991323F4F853C1F81035D1F829
:1056700010E5230203F47C53120402F4403243EA9F
:105680000E0313432A0502F4801240EA4C30134300
:1056900040F0200026F81700C1F81035C0E7034895
:1056A000BFE700BF100100200000AD0B0400AD0BF0
:1056B000014BC3E9020170471001002008B5024602
:1056C000FFF768FE38B1054B0548083233F8123051
:1056D0005B0B0B7008BD0348FCE700BF1001002006
:1056E0000000AD0B0400AD0B38B50F4C94F87850AA
:1056F000BDB96022294604F1100003F0E8F8062045
:10570000FDF750FD094B0A48C3F87C51D3F87C21C2
:105710004FF00042C3F80423012384F87830636714
:1057200038BD0448FCE700BF1001002000600040C5
:105730000000AD0B0500AD0B034B93F8780000386B
:1057400018BF0120704700BF10010020014601482A
:10575000FFF762BD8001002001460148FFF738BD18
:105760008001002037B50446FFF714FE04F108025B
:105770001E4B33F81230E8B113F002051AD15B0B5F
:105780009A0002F1804000F5C24002F1804202F529
:10579000C04205600068D2F8100540F00100C2F870
:1057A000100529B1012202FA03F3114AC2F80433A9
:1057B00003B030BDC3F38203042B12D0052B12D0EB
:1057C00001A80194FFF7D8FD019BD0F81015D9402E
:1057D00001F001010231204603B0BDE8304003F082
:1057E000FCBB0321F7E70221F5E700BF1001002011
:1057F0000060004008B50246FFF7CCFDC0B102F1E1
:1058000008010E4B33F81130990711D45B0B0122BC
:105810009A409B000A4903F1804303F5C043C1F855
:105820000823D3F8102522F00302C3F8102508BD81
:10583000BDE808400021104603F0CFBB1001002056
:10584000006000400E4B00F1080213B533F812302F
:10585000DB07044611D5FFF7CDFF2046FFF7ECFD2F
:1058600001A80194FFF788FD019B03F5E073022274
:1058700040F82320034802B010BD0348FBE700BFF7
:10588000100100200000AD0B0400AD0B2DE9F04F1E
:10589000644B65486549002687B0012234461D687F
:1058A00035B1D0F8045315421EBF1C601D68164365
:1058B00004338B424FEA4202F1D1DFF86C81D8F811
:1058C0007C31002B00F091804FF0A043D3F82025CD
:1058D0000492C3F82025D3F820280592C3F8202885
:1058E00000270DF110097B0100934FF0010A49E0F8
:1058F000009B4F4A94FAA4F4B4FA84F41C4404F1D3
:105900000803E00832F81330039404F007020AFA9F
:1059100002FC19F8002022EA0C0209F8002003A872
:10592000C3F382059908FFF727FD039A02F5E07299
:105930004B0750F82220AB46C2F3014229D520463E
:105940005946D5B2FFF730FD03A80394FFF714FDC5
:10595000039B03F5E07350F82330C3F301439D42EA
:1059600007D10021204603F038FB2946204603F0EA
:1059700034FB03A80394FFF7FFFC039B0AFA03F32D
:10598000C0F8203559F82740002CB1D1CFB90127F4
:10599000A9E7022A0CBF032102212046019203F04D
:1059A0001CFB032D04D0019A022A06D1012DE0D15F
:1059B00059462046FFF7F8FCDBE7032AD9D1022D30
:1059C000F5E7C8F87C41D8F87C311A494FF0A0437C
:1059D000D3F820250492C3F82025D1F8203505936B
:1059E000C1F8203513437FF47BAF012416B907B00B
:1059F000BDE8F08F96FAA6F3B3FA83F304FA03F244
:105A00009B0003F1804303F5C04326EA0206D3F866
:105A10001005D3F81015C0F30520C1F30141FFF7BD
:105A2000C3FCE3E7006100400060004020610040EB
:105A3000100100200003005010B5184C237853BB10
:105A400002789107C2F3400311D54FF08053D3F889
:105A5000301108291DD1D3F83431052B19D810493C
:105A6000C95C012319B14FF08041C1F838364FF0BD
:105A7000804102F00102C1F880350020C1F878258C
:105A8000FDF7B4FB08B9FDF78DFB01230548237032
:105A900010BD0123EBE70448FAE700BFA413002080
:105AA000E39C00000000AD0B0C00AD0B4FF08043F9
:105AB0004FF46072C3F80823014B00221A6070474C
:105AC000E810002008B5FFF7F1FF03680BB1014AA9
:105AD000136008BDE81000204FF0804310B5D3F8E4
:105AE0000443620707D54FF4847003F085FA10B1C0
:105AF0001E4B1B689847A30608D54FF48A7003F025
:105B00007BFA18B11A4B00201B689847600608D52D
:105B10004FF48C7003F070FA18B1154B01201B681C
:105B20009847210608D54FF48E7003F065FA18B136
:105B3000104B00201B689847E20508D54FF4907081
:105B400003F05AFA18B10B4B01201B689847A305C4
:105B50000AD54FF4927003F04FFA28B1054BBDE817
:105B600010401B680220184710BD00BFE010002045
:105B7000E4100020E810002001460148FFF728BB90
:105B80008C0100204FF08053D3F83021082A06D131
:105B9000D3F83431052B04D8034AD05C7047002079
:105BA00070470120704700BFE99C0000054B10F0D2
:105BB000800FA3F1900208BF134600F00F0003EB23
:105BC000001070475C12002008B503F036FA18B1D7
:105BD000034B0022C3F81C2C024B00221A7008BD94
:105BE00000700240A613002007B5094A0023137075
:105BF000084AADF8053013708DF8073001238DF891
:105C00000430054B01A81B68984703B05DF804FBFE
:105C1000A5130020A8130020EC120020214B13B57F
:105C2000D3F80044C3F80044E105D3F800340ED59E
:105C30001D4B01221A700023ADF805308DF8073096
:105C400002238DF80430194B01A81B689847A20560
:105C50000DD5154A00231370ADF805308DF80730C7
:105C600003238DF80430114B01A81B689847630586
:105C700015D50D4A137893B100231370094A0121F9
:105C8000C2F808159165926DADF805308DF80730B2
:105C900004238DF80430054B01A81B68984702B017
:105CA00010BD00BF00700240A5130020EC120020C0
:105CB0004FF02003EFF3118083F31288BFF36F8F4F
:105CC0000A4BD3F8001C032261B949F27531C3F8BD
:105CD000001CC3F8142DC3F8001C80F31188BFF317
:105CE0006F8F7047C3F8142DF7E700BF00E0064040
:105CF0004FF02003EFF3118083F31288BFF36F8F0F
:105D00000A4BD3F8001C61B949F27532C3F8002C74
:105D1000C3F8141DC3F8002C80F31188BFF36F8FF4
:105D200070470022C3F8142DF6E700BF00E00640DC
:105D3000F8B54D680B4F954228BF15460C460646F0
:105D40002A460968384602F0B7FD60682268401BA1
:105D5000C6E900752A4460600038226018BF01203F
:105D6000F8BD00BFF0120020F8B54C68944228BF7F
:105D7000144606460D468CB1094F0968224638463E
:105D800002F09AFD37606B6874601B1B6B602B68B8
:105D9000201E23442B6018BF0120F8BD0460F2E7E9
:105DA000F012002007B500238DF804300B4BD3F818
:105DB0002025ADF80620D3F8C034094A002B13681B
:105DC0000CBF4FF480714FF001210B431360054B62
:105DD00001A81B68984703B05DF804FB00700240FF
:105DE000C8110020EC120020064BBFF35B8F53E874
:105DF000002F024043E800210029F8D1BFF35B8F58
:105E0000704700BF5811002008B5FFF7DDFE084BB2
:105E100093F89E20032A05D1BDE808406FF00100E9
:105E2000FFF7E2BFD3F89030002BF5D008BD00BFDC
:105E3000CC110020012273B502FA01F51C491D4E58
:105E40000B6810F0800F43EA050304460B6024D072
:105E500000F00F02184B33F8123003F1804303F5C2
:105E60001C331A6832B100221A6080281B6811D0D6
:105E700003F033F9316829400AD106238DF8043044
:105E80008DF806408DF807100C4B01A81B68984749
:105E900002B070BDFFF7B8FFECE733681D42F7D1E1
:105EA00006238DF804308DF806008DF80720EBE707
:105EB000C8110020581100202C9C0000EC1200207A
:105EC00008B5054B1A78104603F0FDF8BDE8084008
:105ED00001461046FFF7AEBFA813002007B5FFF735
:105EE00073FE0C4B93F88E20032A10D0D3F8803029
:105EF0006BB96FF08070FFF777FF06238DF80430E1
:105F00000823ADF80630044B01A81B68984703B07E
:105F10005DF804FBCC110020EC12002007B5FFF760
:105F200053FE104B93F81E21032A06D16FF48070A4
:105F300003B05DF804EBFFF757BFD3F810316BB92E
:105F40006FF48070FFF750FF06238DF8043088232C
:105F5000ADF80630044B01A81B68984703B05DF804
:105F600004FB00BFCC110020EC120020024A0023E9
:105F70001360024A13707047EC120020A713002030
:105F800008B5484B4FF40062C3F80024D3F800343E
:105F9000FFF7F8FD08B1FFF78BFE03F04EF8C8B12C
:105FA0004FF02003EFF3118083F31288BFF36F8F5C
:105FB0003D4BD3F8001CC02200296AD149F275314B
:105FC000C3F8001CC3F8142CC3F8001C80F311881C
:105FD000BFF36F8F334B0122C3F80025D3F80025A0
:105FE000D3F800241205FBD54FF40062C3F8002457
:105FF000D3F8003403F021F8C0B14FF02003EFF3E1
:10600000118083F31288BFF36F8F274BD3F8001CE6
:10601000002941D149F27532C3F8002CC3F8141C91
:10602000C3F8002C80F31188BFF36F8FFFF7AAFD30
:1060300030B1FFF75DFEFFF7A5FD08B1FFF738FEB1
:1060400002F0FBFF174B50B140F2E372C3F8002897
:106050004022C3F80428BFF36F8FBFF34F8F002196
:106060008022C3F81C25C3F83015104B40F2FF12F4
:106070001A600F4B1960FFF7A7FD0E4B19700E4BFE
:1060800002221A70FFF77EFD50B1BDE80840FFF70D
:106090002FBEC3F8142C99E70022C3F8142CC1E7D3
:1060A00008BD00BF0070024000E00640C81100209B
:1060B00058110020A8130020A71300200A4B00222B
:1060C00010B51A70094A0A4B0A4C002818BF13462B
:1060D000C4F804332720FDF765F80123C4F804351C
:1060E000D4F8043510BD00BFA51300200714E0014B
:1060F0000714C00100700240034B1878012894BFB8
:1061000000200120704700BFA71300202DE9F041B7
:106110001D4B1C78002C35D11C4A106001221A70CE
:10612000254640F2FF18274665F07F0615F0080F58
:10613000F6B214BF41464021304602F0FEFF304621
:10614000FFF734FD0135092D877307608760EBD1B8
:106150004021002540F2FF16204602F0EEFF2046C7
:10616000FFF724FD0134E4B2092C857305608560D6
:1061700002D10748BDE8F08114F0080F14BF314682
:106180004021E9E70348F5E7A7130020EC120020BF
:106190000000AD0B0500AD0B2DE9F84305464FF0AF
:1061A0002003EFF3118883F31288BFF36F8F10F091
:1061B0000F0403D1274B1B78834246D1264B274F30
:1061C0001A683E68284602F07EFFD24392B24FF032
:1061D0000109324309FA00F912EA090F37D12846BA
:1061E000FFF7E4FC0C2254432A06034629D51C4A37
:1061F0000868144400F060408A68B0F1005F02F063
:10620000010219D1B2B9174A1A6007C984E8070018
:1062100000229A609A735C60134B144846EA0906A0
:1062200080223E60C3F8042188F31188BFF36F8F8A
:10623000BDE8F8830E4AE7E70AB90E4AE4E70E4ADA
:10624000E2E70E4A14440E4ADEE70E48ECE70E4839
:10625000EAE700BFA8130020C81100205811002051
:106260005C1100207B90000000E100E00000AD0B1D
:106270009D900000315D0000695D0000EC10002081
:106280004D9000000A00AD0B0B00AD0B10F0080F95
:10629000074B06D0D3F8C00410F4803F18BF00208D
:1062A000704700F00F0000F5947053F8200070471D
:1062B000007002402DE9F04FDFF85C8198F8003063
:1062C00085B0002B6BD1DFF85491554ED9F80010F2
:1062D0003368194063D011F0012314BF93FAA3F17E
:1062E00091FAA1F1B1FA81F10F298ABFA1F110044D
:1062F00041F08004E4B22046FFF758FC4FF0010B58
:106300004FFA84FA0BFA01F1BAF1000F05466FEA71
:10631000010B47DA03688289416802A8984700B9EF
:10632000286002F08AFE18B13E4B8222C3F81C2C72
:1063300001233168039A88F80030AB6801EA0B0149
:106340001344BAF1000F3160AB6004F00800029909
:10635000344B04F00F044FDA002845D0C3F8A016E0
:10636000C3F8A426042303EB840303F1804303F55D
:106370001C3301221A601B682B4A2C4B294913EA53
:106380002A0338BF134633F8143003F1804303F572
:106390001C331A681AB9D1F80021002AF9D005B0C7
:1063A000BDE8F08F2046FFF771FFAA896968D5F82C
:1063B00000C00346074602A8E047029A002AAED072
:1063C000039A9742ABD902275846AF73FFF70CFDEB
:1063D00006238DF80430164B8DF806401B688DF8A7
:1063E000077001A8984771E7142000FB0433C3F835
:1063F0000016C3F80426B5E728B1C3F8A017C3F800
:10640000A4272823AFE7142000FB0433C3F80017A8
:10641000C3F80427F5E700BFA61300205811002099
:10642000C8110020007002403E9C00002C9C00001F
:10643000EC12002038B50F4BD3F86C44C3F86C4411
:1064400001251CB9BDE83840FFF734BF94FAA4F326
:10645000B3FA83F30F2BC8BFA3F110001946D4BFC2
:1064600043F08000C0B205FA03F324EA0304FFF707
:10647000E1FCE6E70070024037B50446FFF7A4FBF5
:106480002046FFF793FB837B032B0DD1204602F0C0
:106490001AFE012303FA00F0C043FFF7A5FC03B086
:1064A000BDE83040FFF706BF0568002DF7D1204654
:1064B00002F009FE012303FA00F0C043FFF794FC49
:1064C00006238DF80430044B8DF806401B688DF8C8
:1064D000075001A89847E2E7EC120020024B40F475
:1064E0008070C3F81805704700700240020713D48B
:1064F00000F00F0310F0800F084A0BBF03F58873FC
:1065000003F5847302EB830352F8230008BF586835
:10651000431E5842584170470020704700700240A7
:10652000044BC3F80C0540F48070C3F80C05D3F895
:106530000C3570470070024010B508220021044657
:1065400002F0C5F90E4BD3F880242270D3F88424CE
:106550006270D3F88824D3F88C1442EA0122628056
:10656000D3F89024D3F8941442EA0122A280D3F8FD
:106570009824D3F89C3442EA0323E38010BD00BF83
:1065800000700240024B0122DA64DB6C704700BFEE
:106590000070024013B5FFF717FB104B9A7B032ADC
:1065A00006D16FF4803002B0BDE81040FFF71CBC8C
:1065B0001C6874B96FF48030FFF716FC06238DF861
:1065C0000430074BADF806401B6801A8984702B09D
:1065D00010BD02B0BDE81040FFF7D4BFCC110020C1
:1065E000EC120020024B01221A651B6D704700BFA0
:1065F00000700240024B01225A655B6D704700BF7C
:1066000000700240014B1878704700BFA8130020AB
:1066100010B502464FF02003EFF3118483F3128884
:10662000BFF36F8F02F04FFD0D49012303FA00F015
:106630000B6823EA00030B6012F008010AD102F094
:106640000F039B0003F1804303F51C33C3F8A01430
:10665000D3F8A03484F31188BFF36F8F10BD00BF4F
:10666000C8110020F7B501464FF02003EFF3118564
:1066700083F31288BFF36F8FFFF798FA0646084638
:1066800002F021FD012211F0800F02FA00F22E48E3
:1066900018D1036832EA03040AD00846FFF7B8FFAE
:1066A0000323B37385F31188BFF36F8F03B0F0BD7D
:1066B00023EA020334600360244B186820EA0200D6
:1066C0001860EDE70B0715D48029214B2FD001F07E
:1066D0000F0404F2DA346400C3F80048D3F8044825
:1066E000D3F80478E4B244F002043C43C3F804480D
:1066F000D3F80438154F04683B6864EA030C1CEABD
:10670000020FCFD0134324EA02043B60002304604D
:1067100033600323B3738DF807300E4B8DF80610EA
:1067200006221B688DF8042001A89847BAE740F2BA
:10673000B474C3F80048D3F80448D3F80478E4B23A
:1067400044F00404D1E700BF58110020C811002014
:1067500000700240EC12002073B5174B174CD3F8B1
:1067600080542368164EDA43164B31781B6892B278
:1067700008461A4302F0A7FC01238340134202D0CB
:106780000846FFF76FFF05F080056FF001103570C8
:10679000FFF72AFB236843F0010323600023ADF8D1
:1067A00005308DF8073005238DF80430064B01A81D
:1067B0001B68984702B070BD00700240C8110020ED
:1067C000A813002058110020EC1200201B4BD3F816
:1067D000040300232DE9F04101241D4670B9184F30
:1067E00003F4000623F400044FF00108BCB9FFF7DE
:1067F00061FD06B3BDE8F041FFF7AEBF90FAA0F22D
:10680000B2FA82F20F499600314404FA02F20E689D
:1068100016B10D600968134320EA0200DEE794FA1E
:10682000A4F5B5FA85F557F8253008FA05F5984727
:1068300024EA0504DAE7BDE8F08100BF00700240F9
:10684000B09B000000710240F8B5104E104B346848
:106850001B68240C24041C4301271CB940F2FF13BD
:106860003360F8BD94FAA4F5B5FA85F50F2DC6BFCF
:10687000A5F11000C0B245F08000030701D4FFF776
:10688000F1FE07FA05F524EA0504E6E7C811002041
:10689000581100200C4B802210B52720C3F884210A
:1068A000FCF7A4FC70B1094CFFF7CEFF0023C4F83D
:1068B00004352720D4F80435FCF784FC4FF0FF336F
:1068C000C4F8083310BD00BF00E100E000700240D2
:1068D00008B5FFF7DFFF084BD3F80423C3F80823FC
:1068E0000022C3F80025D3F80035FFF76DF9034BFC
:1068F00001221A7008BD00BF00700240A7130020DB
:1069000038B54FF02003EFF3118583F31288BFF3FE
:106910006F8F114B1B7803F0FF0433B9002485F30C
:106920001188BFF36F8F204638BDFFF78DFF0B4BEB
:10693000D3F8002412F40072F0D10121C3F82C1511
:10694000D3F82C15D3F80014890542BFC3F82C25C1
:10695000D3F82C351446E2E7A5130020007002405E
:1069600010B50446FFF77EFE104A14F0800F04F0C5
:106970000F004FF0010314BFD2F81015D2F8141510
:1069800003FA00F36FEA030315BF0B400B40C2F894
:106990001035C2F8143514BF054B064B1A5C0123A1
:1069A0009340024AC2F8083310BD00BF0070024095
:1069B000EF9C0000F89C000070B543B2002B234B05
:1069C000234AA8BF1A4600F00F034FF00104D15C20
:1069D000204A04FA01F10546C2F804130CDAD2F891
:1069E0001015D940C80706D4D2F8100504FA03F3ED
:1069F0000343C2F8103570BDD2F81415D940C90749
:106A0000F9D4D2F8146504FA03F13143C2F814152D
:106A1000002BF0D00307EED44FF02003EFF31186E4
:106A200083F31288BFF36F8FFFF7F2FD284602F061
:106A30004AFB094A136804FA00F023EA00001060D8
:106A400086F31188BFF36F8FD5E700BFF89C000075
:106A5000EF9C00000070024058110020030610B5A2
:106A6000044605D4FFF742FD10B12046FFF7D0FDE4
:106A7000014BC3F8184510BD007002400E4B70B5B5
:106A800053F82040013053F82060A64200D870BD72
:106A9000D4E900352846984765B1EB6830B1002845
:106AA000B8BF4042FF28A8BFFF2018705A7842F0B4
:106AB00001025A700834E8E7149C000070B50546DE
:106AC00010B90024204670BD0378002BF9D00E4C7D
:106AD0000E4EB44208D10C4CB442F2D0204602F023
